:020000040000FA
:10000000901B2020D5010000D9010000DB01000079
:1000100000000000000000000000000000000000E0
:10002000000000000000000000000000DD010000F2
:100030000000000000000000DF010000A96C0000CB
:10004000E3010000E3010000E3010000E301000020
:10005000E3010000E3010000E3010000E301000010
:1000600000000000E3010000E301000000000000C8
:1000700000000000E3010000E3010000E3010000D4
:10008000E3010000E3010000E3010000E3010000E0
:10009000E3010000E3010000000000000000000098
:1000A000E3010000E3010000000000000000000088
:1000B000E301000000000000E3010000E301000094
:1000C00000F002F800F05AF812A030C808382418DE
:1000D0002D18AC4201D100F051F80FCCA246AB462E
:1000E0000CA730CF2D1B083F3F197C427F1E544484
:1000F0002D090426F441641EAC4201D300F03EF801
:100100000126334200D0FB1A3343984754465D46DC
:10011000DFE70000149600003496000000000000A5
:10012000103A02D378C878C1FAD8520701D330C840
:1001300030C101D504680C60704700000000000069
:100140007047000000000000002300240025002666
:10015000103A01D378C1FBD8520700D330C100D583
:100160000B60704710B5732902D101F011F910BD71
:10017000002010BD1FB51FBD10B510BD01F092F9D4
:100180001146FFF7F7FF06F0F9FD01F0AAF903B4F5
:10019000FFF7F2FF03BC06F0EFFD000070B5054667
:1001A0000C46164602E00FCC0FC5103E102EFAD2B8
:1001B000082E02D303CC03C5083E042E07D301CC7E
:1001C00001C5361F03E021782970641C6D1C761E62
:1001D000F9D270BD06480047FEE7FEE7FEE7FEE7FE
:1001E000FEE7FEE703480449024A044B704700005B
:1001F000C100000090132020901B2020901320208D
:100200004343514330B55C18010C130C0D4692B2B8
:100210005D4380B251432C19054655430A0C09042D
:100220004D1962415843010C00044019514130BD41
:10023000FEB5044610460D46184373D0A6468C46BC
:100240000020A41A01469D4167D366460027012479
:100250003D46B61A9D4102D313463A4621246546CF
:1002600076462F04360C3E432D0CB61A9D4104D31E
:10027000150C1B042B4312041034654676462F06DA
:10028000360A3E432D0AB61A9D4104D3150E1B02B1
:100290002B4312020834654676462F0736093E4343
:1002A0002D09B61A9D4104D3150F1B012B431201D2
:1002B000241D65467646AF07B6083E43AD08B61A1C
:1002C0009D4104D3950F9B002B439200A41C6546CF
:1002D0007646EF0776083E436D08B61A9D411AD35D
:1002E00092185B41641C16E0001876466546494149
:1002F000B71A9D410191009009D36046B11A984107
:100300008E468446009801990025401C6941DD070E
:1003100052082A435B08641EE6D57246634603B062
:10032000F0BDFFE72046284307D00020C043014628
:10033000C046C04622462B46F1E700200146F7E7BB
:1003400070B50C460546012A05D02878800600D5F0
:10035000EA69002302E0012305E05B1C934202D21C
:10036000E05C0028F9D1A869E618C01AA861286ADB
:10037000C01828622846C046C04604E06A68207853
:10038000A968641C9047B442F8D32846C046C046CA
:1003900070BDF8B5042A2CD3830712D00B78491C02
:1003A0000370401C521E83070BD00B78491C03704E
:1003B000401C521E830704D00B78491C0370401C5C
:1003C000521E8B079B0F05D0C91ADF002023DE1BAE
:1003D00008C90AE0FFF7E2FEF8BD1D4608C9FD4066
:1003E0001C46B4402C4310C0121F042AF5D2F30857
:1003F000C91A521EF0D40B78491C0370401C521EBF
:10040000EAD40B78491C0370401C012AE4D4097813
:100410000170F8BD01E004C0091F0429FBD28B075D
:1004200001D50280801CC90700D0027070470029E6
:100430000BD0C30702D00270401C491E022904D30E
:10044000830702D50280801C891EE3E70022EEE7C5
:100450000022DFE7002203098B4273D3030A8B4299
:1004600058D3030B8B423CD3030C8B4221D312E0B5
:1004700003460B437FD4002243088B4274D3030905
:100480008B425FD3030A8B4244D3030B8B4228D3A6
:10049000030C8B420DD30902FF2212BA030C8B42CC
:1004A00002D31212090265D0030B8B4219D300E06C
:1004B000090AC30B8B4201D3CB03C01A5241830BF1
:1004C0008B4201D38B03C01A5241430B8B4201D3A1
:1004D0004B03C01A5241030B8B4201D30B03C01ACA
:1004E0005241C30A8B4201D3CB02C01A5241830A44
:1004F0008B4201D38B02C01A5241430A8B4201D373
:100500004B02C01A5241030A8B4201D30B02C01A9C
:100510005241CDD2C3098B4201D3CB01C01A524103
:1005200083098B4201D38B01C01A524143098B428C
:1005300001D34B01C01A524103098B4201D30B0175
:10054000C01A5241C3088B4201D3CB00C01A52419A
:1005500083088B4201D38B00C01A524143088B425F
:1005600001D34B00C01A5241411A00D201465241F8
:10057000104670475DE0CA0F00D04942031000D317
:10058000404253409C46002203098B422DD3030A6C
:100590008B4212D38901FC2212BA030A8B420CD37C
:1005A000890192118B4208D3890192118B4204D3A5
:1005B00089013AD0921100E08909C3098B4201D325
:1005C000CB01C01A524183098B4201D38B01C01A5F
:1005D000524143098B4201D34B01C01A52410309D6
:1005E0008B4201D30B01C01A5241C3088B4201D385
:1005F000CB00C01A524183088B4201D38B00C01A32
:100600005241D9D243088B4201D34B00C01A524108
:10061000411A00D201465241104663465B1001D395
:100620004042002B00D54942704763465B1000D31F
:10063000404201B50449002802DC491C084000E0A2
:100640000846C046C04602BDFFFFFF7F70477047A7
:10065000704700000246C80FC00781434B0030B509
:100660004B405B009B0D20D01923DB06C9180123EA
:100670001B05994220DB0324A40704251346AB4045
:100680000BD3002B04D1EB0613409B00E34204D4B0
:1006900001246407002312195941FF231B059942C5
:1006A0000BD2C9000143500F09E0CB0204D501432E
:1006B0000803024305D0054830BDFF21C9050843A2
:1006C00030BD084607210905884330BD0000C07FC2
:1006D000F0B50C46871A9C410D46861A9D4103D2FF
:1006E000C01BA141D21963410D0D1F0DC94EEC1B5A
:1006F000AE435CD07F057F0D0026002F51D02D0525
:10070000AC46A943DD020123ED0A1B051D4320234E
:100710001B1B24D41746E740381871412F46E74089
:10072000CC199D402818314661410C0D27D16144F8
:100730009A4013D50023401C594152000ED1400865
:10074000400001224B005205D34207D30520400749
:10075000C14201D5B04900E0B0493046F0BD6B0060
:10076000002A00D001229A181F23203C1B1B01D510
:10077000002302E0E540281871410C0DD7D0012478
:1007800024050919C407CD0740084908E40F284388
:100790006144002CD5D00024401C61419A40D0D146
:1007A000CDE76A05520DD9D1C90FC907D5E79C4DD0
:1007B0004E00002801D0012400E0002434195F001D
:1007C000002A01D0012600E00026BE19954FAC4258
:1007D0000CD8AE420AD8B44206D001256D05EC42D1
:1007E000BCD010461946F0BD9942FCD000203946D5
:1007F000F0BDF0B51FB40C460F46811A9F41254647
:10080000861A9D4106D20125ED076F40401ABC4172
:1008100052187B41210D1E0D8D1BAC467D4D8D4325
:100820007ED075056D0D7CD00D05AE46AC431B0327
:100830001B0B794D52429D41202366469B1B14D3CE
:100840001746F740381800260090744160462F463E
:100850000741E41900989D402818664116D4714656
:1008600071189A4025D5012320E093182A466A4141
:100870005200002B00D0521C1E23203E9B1B002B3D
:1008800061DD3541EE1728186641E8D5001876413C
:100890005B1C9A4000D3401C4B05F3181524E34021
:1008A00010D3002B52D071467118D30FC01802D349
:1008B000491C05B0F0BD0123DB079A42F9D140087D
:1008C0004000F6E701225205B21801D1002853D0AA
:1008D0000123CC0ADB029943891E002A08D1020CAD
:1008E00003D0020C0004103902E002460020203937
:1008F0000023550B05D112020823550B01D15201DB
:100900000D23550C01D112011B1DD50C01D19200F4
:100910009B1C150D01D152005B1C2025EE1A01E035
:100920002CE022E00546F54015439840CA1AE1073D
:1009300069181305C918002ABBDA032040070818F4
:10094000C10FC9070FE071466118B2E7F10740080F
:100950000843711071444A000CD001235B059A4290
:10096000A7D2C90FC9070020A3E74905490D26D121
:10097000002001E00028F4D100219AE7284D66000C
:10098000002801D0012100E0002171185F00002A39
:1009900001D0012600E00026BE19224FA94210D83E
:1009A000AE420ED8B14208D001256D05E94206D00D
:1009B0001946A802414010467BE79C4201D02146DF
:1009C00077E70020394674E710B50C465C4005D542
:1009D0000124E4076340FFF70CFF10BDFFF778FE2A
:1009E00010BD30B40C465C4004D50124E4076340DC
:1009F00030BC6DE630BCFCE670B50124E407614014
:100A00000D465D4002D4FFF763FE70BD6340FFF703
:100A1000F0FE70BDFF0700000000F0FF0000F07F57
:100A20000000E0FF0000F87FF0B5F94D0C091E0949
:100A30002C402E402F468BB0A7437DD0B543FCD031
:100A4000002E7AD0002CFCD00D465D40ED0F2543E2
:100A5000AC1BFF25AD0464190894C502440DC902FE
:100A60002143500DDC0204430120C007014304432D
:100A7000D2020191200C110C00958C4601042346F2
:100A80008B430A9161460904E24D8A430991010AA8
:100A90007D4449198039097805464D4301266D1872
:100AA000F605751B6943C90C640B891C4C4364181B
:100AB000B5012C1B250C2E04B4434C434D43210C93
:100AC000691889090591009DE90701D00121C9072D
:100AD00004912C4601996708CD072F434C08059DCA
:100AE000E10B4D432D0C29466646754302950D4694
:100AF00045432E46029D7D1BB44100950D465D4346
:100B000001942C0C2F040D465543AE462D0C3D434D
:100B1000029503947546049C2D04641B049406D22C
:100B2000029C039D641C002675410395029401AC50
:100B300070CC009F7D1B01E03EE162E1B4410904FD
:100B40000095079101940599A4086143090C0C468E
:100B50004443650BE7040C4666467443A646640BA3
:100B60003C43039502947446049DE4042C1B0494B6
:100B700006D2029C039D641C0026754103950294D5
:100B800001AC70CC009F7D1BB44101940C465C43CA
:100B90000095650FE7000C465443A646640F3C439E
:100BA000039502947446049DE4002C1B049406D221
:100BB000029C039D641C002675410395029401ACC0
:100BC00070CC009F7D1BB441AE09AF06049DC900E7
:100BD000AD092F43049DA406AD060495079D34433B
:100BE00069180791059DE10B4D432D0C294666467A
:100BF000754302950D4645432E46029D7D1BB4412B
:100C000000950D465D4301942C0C2F040D46554371
:100C1000AE462D0C3D43029503947546049C2D046D
:100C2000641B049406D2029C039D641C002675413B
:100C30000395029401AC70CC009F7D1BB4410194DC
:100C40008C050694079C890A611800950791019C00
:100C50000599A4086143090C0D464543680BEF0450
:100C60000D46644665436C0B3C43049FED047D1BBD
:100C7000AC4602D20025641C6841009E019D371BD2
:100C800085410846584301950C46460FC50054431C
:100C9000600F28436546E4002C1B02D20025401C4F
:100CA0006E41019D3F1AB5412846BD098006284383
:100CB0008446A009BF064E020699A406761807438B
:100CC000079D002068410A99079019430020099B5D
:100CD00000906046FF1913434041E20F64003A431D
:100CE000A4460446D71A8C41A04203D901200090A3
:100CF00020463A46C70F941840416246D20F22431D
:100D0000644664000494009CBE466400D71AA4465E
:100D1000044602978C417746002F01D1A04204D9A6
:100D20006046401C8446029A2046C40FA64694188A
:100D30004041049A0546D20F224364466400D31A08
:100D40008D417146002901D1A84202D928461A4690
:100D5000641C10430122002800D0164361020020C9
:100D6000079B891904465C410223002C02DB4918C9
:100D700013466441089DCE0A2D145D194B05670585
:100D8000E10A2C050D1908993E43C9076940002B5B
:100D900008D0934006D30022761C5141002B01D18C
:100DA000760876001C4A002D43DB154241D0AA4349
:100DB0003FD030460BB0F0BD06180D464D41174CE4
:100DC0007642AC411AD395181C465C41134A6D42D9
:100DD000A24113D3012252054C00D4420AD15C0037
:100DE000D4420BD04B4002D592021143E2E74900B6
:100DF0004908DFE75940C90FC90718E00020084932
:100E0000D8E7054801420DD10342F7D0F2E70000D0
:100E10000000FF07088700000000F07F0000E0FFEF
:100E20000000F87F114859400143C01241400020A2
:100E3000C0E70123089A9B069A4205DC0322520769
:100E40008918C90FC907B5E7052252078918074A4B
:100E50001143D2125140ADE770B515461C4602460B
:100E60000B4628462146FFF7DFFD70BDFFFFFF7FE1
:100E70000346CA02400D10B510430A1504D00124E0
:100E8000E4072043002A05DB0A4CA21A04D4D04010
:100E9000FF2A00DD002010BD4A00002B01D00120F8
:100EA00000E00020101801225205D042F2D8C817E5
:100EB000C04310BD1E0400001F22030C02D10F22EC
:100EC000000402D0030E03D004E000200146704766
:100ED0000002083A030F01D10001121F830F01D154
:100EE0008000921E002801DB4000521E120551189E
:100EF0004205C012411810467047C10FC90700D003
:100F00004042012292071143D6E701218907D3E726
:100F1000F0B58B4C0F09254689B0BD437BD01D0928
:100F20002646AE43FAD00E465E402740F60F3E43BB
:100F3000254071D024012142FBD0FF24AD19A40427
:100F40002D1B039501252D05DB02DB0AC9022B436E
:100F5000C90A29431E010901040F130F050121438A
:100F60001701880B820391432D098C46A90B1E4360
:100F70008A039543B30B9A0396433F09BA0B940334
:100F8000A74302962E467E430497B6464E19D719BC
:100F90000C460196544305977E43371B7646BF1B8C
:100FA0003601B646BE0B361900967646BC04371994
:100FB000009C01D3641C00946400002F01D0012622
:100FC0003443029E049F754366467E430496760032
:100FD00034196E0034190094029C019E1C1966435A
:100FE000751BAE46069465464519059C05956C43F0
:100FF000594375460891691A0191049E014651436F
:10100000A41B0491611A009C0791E10605D06109B7
:101010000122114302E072E06EE06109089D0027A1
:101020002C0A2D066918049D7C412A0A2D06691890
:10103000019D6241AC0DAD026D185441079A910DAE
:10104000920255196141029A644658435443069BE3
:10105000059A5A43121A131B9A0E9B015B187A4188
:10106000010B0005C3185141220A200644195A41B8
:101070009A4200D2491C01204002814203D3152329
:101080000226F64302E014230326F6432020C51A65
:10109000A9401746AF40DA400A4320460399D8409A
:1010A0000914731819055118039A3843D20751408F
:1010B000AC4009D00122944006D30022401C51418B
:1010C000002C01D1400840001E4A934212D3012255
:1010D00003989206904207DB0520400709181A483A
:1010E0000143C012414004E0032040070818C10F2B
:1010F000C907002009B0F0BD0020F107FAE7051884
:101100000C464C4111486D42A04115D394181A4623
:101110005A410E48644290410ED301204A004005D6
:10112000824209D35A00824206D35940C90F084A65
:10113000C90700201143DDE700200649DAE7000077
:101140000000FF07FE070000FFFFFF7F0000E0FF39
:101150000000F07F0000F87F0121C905012341183C
:1011600042001B06D3185B0E0AD0C1100722D2061C
:10117000891840075242D14201D552008918704760
:10118000090208D50146002A03D0C10FC907002073
:10119000704710467047420202D000200249704753
:1011A000072109050143F4E70000F87FF0B5FF25AA
:1011B0002D04C609C209FF2704462E400137CB097A
:1011C0003E4348402A402B400746002A6BD0002B64
:1011D00069D0AA4267D0AB4265D0002800DA324617
:1011E0000125ED0529432C4309022002090AD21AE0
:1011F0004B0C7F24E31A434C000A7C44E35C7D24BF
:101200002404121914145B00A218884201D3521C42
:1012100000E0400049420C465C4324115C43DB0182
:101220006415E318040A5C43C502200D0C464443D0
:101230006419250A5D432303EC0C0D466543000346
:101240000019EB184C42A34201D35B18401CD40593
:101250002018002B07D05B00C91804D3401C0029BC
:1012600001D1400840003F2189048A4209D3002A65
:1012700008DC1106090F04D0032149074018C00FEC
:10128000C007F0BD01224100120689187F225206D4
:101290009142F6D205214907C84201D59010F0BD10
:1012A000FF20C005F0BD002F00DA32461648AA42E2
:1012B00007D2AB4205D21902090E17D0F80FC007AA
:1012C000F0BDFF2563002D06AB42F9D84900A942C5
:1012D000F6D8AB4201D1A942F2D0A94201D10021F6
:1012E00001E061004908D0050843F0BD1102090E74
:1012F000FBD0FF200243D005F0BD0A460146104650
:1013000054E700001E8000000000C07F1F22030C75
:1013100002D10F2200041CD0030E01D10002083AB2
:10132000030F01D10001121F830F01D18000921E13
:10133000002801DB4000521ED2055118021251183C
:101340001922904004D3491C002801D149084900C2
:1013500008467047C10FC90700D0404201229207DA
:101360001143D3E701218907D0E710B54369002B6A
:1013700002D0C046C04601E0FEF7E2FF012010BDEA
:101380001278014624310A7000224A700122ECE7EB
:1013900011680022D243E8E7F8B5264C4E00069DBE
:1013A000A6420AD8A64201D1002806D15E00A64274
:1013B00003D8A6420AD1002A08D00D2424042542CD
:1013C00033D02946002000F094F8F8BD0C461C43A9
:1013D00011D4994207D0C81A02D3EFF30080F8BDA8
:1013E000EFF30080F8BD801A02D3EFF30080F8BD60
:1013F000EFF30080F8BD09242407E5008B4207D0F5
:10140000581A02D3EFF3008006E0EFF3008007E004
:10141000101A03D3EFF30080A04303E0EFF3008042
:10142000A043284380F30088F8BD009500F078F8C9
:10143000F8BD00000000E0FF10B5FF231B064400CC
:101440009C421DD84C009C421AD80346124A0B43BA
:1014500007D4401A02D3EFF3008010BDEFF30080F1
:1014600010BD081A03D3EFF30080904305E0EFF3BB
:10147000008001219043C907084380F3008810BD14
:101480000D231B041A4204D01146002000F031F84D
:1014900010BD00F04FF810BD0000009000487047EC
:1014A000600020207546FFF7F9FFAE46050069464B
:1014B0005346C008C000854618B020B5FEF792FE1E
:1014C00060BCB64600260027C0C5C0C5C0C5C0C5A3
:1014D000C0C5C0C5C0C5C0C5403D490849008D460E
:1014E000704710B50446C046C0462046FEF74FFE82
:1014F00010BDC80212D54803400F002804D0C8030D
:10150000C043012188407047EFF3008000010009CB
:1015100003210907084380F30088704700207047C3
:1015200010B500200249029A00F00CF810BD00002E
:101530000000F87F10B5024800F004F810BD00006C
:101540000000C07F10B50C461107090F092904D00F
:101550000A290AD008290CD104E011460820FFF717
:10156000C8FF06E0510606D501E0510601D501206D
:10157000C007214610BDD10607D501010909CC08D5
:101580004907000E0006044309E0410F2002490705
:10159000000A0143200E00061D22D14101430846E6
:1015A000E7E7000010B5BB4C21780220002913D0DA
:1015B000B549097801290FD1B2482021022204F04F
:1015C000F9F80146022803D00320002903D003E0E4
:1015D0000620002900D108463421605410BDC046C1
:1015E00080B582B06B46598018800120C003988076
:1015F0001846114600F002F802B080BD70B582B006
:1016000022222C4DAA5C002A18D0002919D00C46A1
:1016100000262E8400F096FA002815D0072818D04E
:10162000002805D101200103124801AA00F0D4F9D5
:10163000002811D10198288430460DE0022002B024
:1016400070BD012002B070BD204601F02BFC0728C0
:10165000E6D1FFF7A7FF0720291D0446084600F042
:1016600037F820462C7002B070BDC0461148704754
:10167000004870472502202070B50E4C24212046DA
:10168000FEF7E6FE0C4800210C4A0D4B0D4D0E4EA8
:1016900042C0026045608360C26001610121017443
:1016A0000A4800F0F9F8414241412222A154207039
:1016B00070BDC04674012020980120200000A0C009
:1016C0000000203D00C09E4000007F4320002020FD
:1016D000F0B587B0BA4E317800290BD000280BD076
:1016E0000746B94803F062FD002807D0022815D04C
:1016F0000320ACE00220AAE00120A8E0B148007875
:10170000022501284CD1B048212106AA03F0C4FDCE
:10171000022805D00324002843D104E0062096E0E7
:10172000062400283DD1A7480078012838D1A648D2
:10173000272105AA03F0B0FD022801D0032400E010
:10174000062400282DD1FD480078012828D1FA4828
:10175000282104AA03F0A0FD022801D0032400E000
:10176000062400281DD1F5480078012818D1F24838
:101770002C2103AA03F090FD022801D0032400E0ED
:10178000062400280DD1ED480078012808D1EA4848
:101790002D2102AA03F080FD02285DD003245CE025
:1017A0002C46E54803F028FD21460143090642D1B5
:1017B0000398F880049A0298FA603861019A3A72A4
:1017C00006AA1278012313403B7005AB1B882F4CEF
:1017D0001C407C81D306DB0F7B711307DB0FFB7092
:1017E0005307DB0FBB709307DB0F7B709206D20FA2
:1017F0003A71FFF7B7FD05462046FFF7B3FD0146F6
:101800002846FFF7D3FC002C00D120467861F06811
:10181000FFF7A8FD0446708AFFF7A4FD01462046A5
:10182000FFF7C4FCB861304618300ECF0EC01ECF93
:101830001EC000200BE0C1B2022901D0032000E04D
:101840000620002900D10846210600D02046342178
:101850007054C0B207B0F0BD06240028A1D1B7482B
:10186000007801282C469CD1B3482E2101AA03F010
:1018700013FD022801D0032400E00624002890D1A3
:1018800004468EE7EC01202024022020FF1F0000E8
:10189000FD487047B4012020F0B585B00546FA4CEC
:1018A00038212046FEF7D4FD80206075412080025B
:1018B0002061FB4800270770002D0ED001AE304696
:1018C00003F0ACFC0195F248314603F0B5FC00286A
:1018D00005D0022817D0032068E0012066E001252A
:1018E000EF4E3570221DEA482A2103F0D5FC01464F
:1018F0006068364A42400A4307D002291FD00320BD
:10190000002952D052E0062050E03078022601280B
:1019100046D122460832DE482B2103F0BDFCA168E7
:101920002B4A891A4A1E914102062A4600D10A46CC
:10193000012A08D1C1B2022934D0032033E00620A5
:10194000002933D131E0D6480078012828D1224639
:101950000C32CF48292103F09FFCE1681D4A891A07
:101960004A1E9141020600D10D46012DE2D004F03D
:1019700079FD0546CA480078012811D121216A461F
:10198000C34803F089FC0028A3D168460078C0074B
:1019900010D104F067FD411B05206429EAD305E05E
:1019A000304603E00620002900D104203421605491
:1019B00005B0F0BD0120207620703846F6E7C0461D
:1019C000B401202024022020EC012020018092ADCF
:1019D000010001000048E801F0B58BB00446AA4FB1
:1019E000387800281ED00120002C1CD0002A1AD0E4
:1019F0000E460025158004A80292FFF769FE002814
:101A000011D104A9887842424241488980B24342B8
:101A1000434113434978C9B24A1E9141194306D044
:101A2000082000E00220342178540BB0F0BD86423B
:101A300001D20120F7E7964803F0B8FB002803D055
:101A4000022813D00320EEE79548007802260128EB
:101A500057D100968E4825210022019203F0AAFE5C
:101A600045424541022803D0032602E00620DAE77A
:101A70000626002800D1064604A94989002940D03D
:101A800000283ED10125019E85480078012830D1EB
:101A9000262103AA7E4803F0FFFB00282BD10398E0
:101AA000010A274A11408E4219D07D48007801284A
:101AB0001FD125217648324603F07CFE00281AD13A
:101AC00077480078012814D1262103AA704803F032
:101AD000E3FB00280FD10398010A194A11408E42F6
:101AE0000BD1A055761C04A840898642CCD3002691
:101AF00007E0009E04E0022801D0032600E006264D
:101B0000019D634803F078FB0146022801D00320C1
:101B100000E00620029A002900D1084601231D405A
:101B200000D13046002D00D17DE7002900D07AE7B2
:101B300004A94989118076E7EC01202024022020A5
:101B4000FF0F0000F0B589B001464F4D28780028FE
:101B50001FD0012000291DD00A884C4BD21892B208
:101B6000120B0F2A16D34A88002A13D00A79032AA7
:101B700010D802A80E46FFF7ABFD00280AD102A834
:101B8000007800280BD002A84078002809D0062051
:101B900000E0022034216854C0B209B0F0BD052035
:101BA000F8E7B7883A4803F001FB002803D0022881
:101BB000EDD00320EEE731882220364A01F0A6F965
:101BC000002821D171882320334A01F09FF9002891
:101BD0001AD179BA2420314A01F098F9002813D19A
:101BE0002F480078012808D129482021012203F03C
:101BF000E1FD022803D0032102E0022004E00621D7
:101C0000002800D1014608460190C4B267426741EE
:101C10001F4803F0F1FA014642424241022801D036
:101C2000032000E00620002900D108461740002CC0
:101C300000D00198012FADD131887288B38800247B
:101C4000AC61EC612C626C62AC62EC622C63AB82C6
:101C50006A822982FF210231298331794A1E91410A
:101C60002977E968374606460846FFF77BFB0446B6
:101C70007888FFF777FB01462046FFF797FA014681
:101C80003046296386E7C046B4012020FFEFFFFFFE
:101C9000EC012020FF1F0000FFFF0000FF030000F9
:101CA00024022020F0B589B0FFF7E0FC2221405C3F
:101CB000002807D0CB4819300121C822FFF790FC3B
:101CC000054604E000F0BCFE05460028F2D0C64CF4
:101CD0005B21204603F05EFA41262046314603F0A0
:101CE00059FA4421204603F055FA3921204603F0E1
:101CF00051FA3221204603F04DFA3821204603F0F4
:101D000049FA30212046059103F044FA5D2120462E
:101D100003F040FA20272046394603F03BFA4321DE
:101D2000204603F037FA2046314603F033FA5021BB
:101D3000204603F02FFA5421204603F02BFA5521B8
:101D4000204603F027FA5221204603F023FA4521CA
:101D5000204603F01FFA2046394603F01BFA082DEF
:101D600003D8A800A149095800E0A1490878002833
:101D70009D4F09D04C1CC1B2384603F00BFA611CD0
:101D8000207800280C46F6D10D21384603F002FADF
:101D90000A243846214603F0FDF9002D01D009B090
:101DA000F0BD0394FFF762FC0646FFF761FC00906C
:101DB000318C002907D0706964224243480810180A
:101DC00007F00AF800E000200290059C039D5B21CB
:101DD000384603F0DFF94121384603F0DBF94421AE
:101DE000384603F0D7F93921384603F0D3F93221C8
:101DF000384603F0CFF93821384603F0CBF938469E
:101E0000214603F0C7F95D21384603F0C3F92021CC
:101E1000384603F0BFF94321384603F0BBF94F21A0
:101E2000384603F0B7F95521384603F0B3F94E218F
:101E3000384603F0AFF95421384603F0ABF93D21A1
:101E4000384603F0A7F9308C81B26A4A4A43D20C73
:101E500029465143411A214306AB19700A282FD352
:101E600065490B4653431B0C6B43D21A224306AB06
:101E70005A70642826D38208604B53435A0C0B4691
:101E800053431B0C6B43D21A224306AB9A70C20811
:101E90007D2A19D35A4B53431A0D5143090C6943F8
:101EA000511A214306AAD170564988420ED300091F
:101EB00055494143C80C303006A90871052506E094
:101EC000012504E0022502E0032500E004256C1E44
:101ED00006A8015D384603F05DF9002C49D0AC1E20
:101EE00006A8015D384603F055F9002C41D0EC1EE0
:101EF00006A8015D384603F04DF9002C39D02C1F9F
:101F000006A8015D384603F045F9002C31D06C1F5E
:101F100006A8015D384603F03DF9002C29D0AC1F1E
:101F200006A8015D384603F035F9002C21D0EC1FDE
:101F300006A8015D384603F02DF9002C19D00720C2
:101F4000C0432C1806A8015D384603F023F9002C85
:101F50000FD02C46093C06A8015D384603F01AF95B
:101F6000002C06D006A828180A380178384603F055
:101F700011F92021384603F00DF94D21384603F0C0
:101F800009F94921384603F005F94E21384603F096
:101F900001F93D21384603F0FDF8B07AC1B2CD25F4
:101FA0006943C90A039F3A464A43821A059C224361
:101FB00006AB1A700A28049611D31A224A43120A51
:101FC0007A43891A214306AA517064281ED3292115
:101FD0004143080B303006A98870032617E001261C
:101FE00015E0C046E7030000008010405C9200004E
:101FF00068950000CDCC00009A1900007B14000009
:10200000C520000010270000470300000226741EB0
:1020100006A8015DF24F384603F0BCF8002C4BD007
:10202000B41E06A8015D384603F0B4F8002C43D076
:10203000F41E06A8015D384603F0ACF8002C3BD036
:102040000320C043341806A8015D384603F0A2F807
:10205000002C31D0741F06A8015D384603F09AF8B1
:10206000002C29D0B41F06A8015D384603F092F871
:10207000002C21D0F41F06A8015D384603F08AF831
:10208000002C19D00720C043341806A8015D38463B
:1020900003F080F8002C0FD03446093C06A8015DFF
:1020A000384603F077F8002C06D006A830180A3816
:1020B0000178384603F06EF82021384603F06AF8BC
:1020C0004D21384603F066F84121384603F062F8A6
:1020D0005821384603F05EF83D21384603F05AF89F
:1020E0000498C07AC1B24D43E90A039D2A464A4387
:1020F000821A059C224306AB1A700A2812D31A22B0
:102100004A43120A5543491B214306AA51706428C9
:10211000029E0AD329214143080B303006A988705A
:10212000032503E00125029E00E002256C1E06A89F
:10213000015D384603F02EF8002C4BD0AC1E06A8EB
:10214000015D384603F026F8002C43D0EC1E06A8AB
:10215000015D384603F01EF8002C3BD00320C0433D
:102160002C1806A8015D384603F014F8002C31D075
:102170006C1F06A8015D384603F00CF8002C29D02E
:10218000AC1F06A8015D384603F004F8002C21D0EE
:10219000EC1F06A8015D384602F0FCFF002C19D0A8
:1021A0000720C0432C1806A8015D384602F0F2FF54
:1021B000002C0FD02C46093C06A8015D384602F0E1
:1021C000E9FF002C06D006A828180A3801783846FE
:1021D00002F0E0FF2021384602F0DCFF4D213846B6
:1021E00002F0D8FF4521384602F0D4FF412138469D
:1021F00002F0D0FF4E21384602F0CCFF3D21384698
:1022000002F0C8FF64253046294606F0E5FD074682
:102210000A210391FEF71EF9059C214306A80170CF
:10222000F0087D28019757D37D20C100304606F085
:10223000D3FD0A21FEF70EF9214306A84170694833
:1022400086424BD96849304606F0C6FD0A21FEF7A2
:1022500001F9214306A881706448864240D9644947
:10226000304606F0B9FD0A21FEF7F4F8214306A82E
:10227000C1706048864235D95F49304606F0ACFDF2
:102280000A21FEF7E7F8214306A801715B48864260
:102290002AD95B49304606F09FFD0A21FEF7DAF89D
:1022A000214306A84171574886421FD956493046F6
:1022B00006F092FD0A21FEF7CDF8214306A88171B0
:1022C0005248864214D95249304606F085FD2043D3
:1022D00006A9C87108270CE001270AE0022708E0D8
:1022E000032706E0042704E0052702E0062700E0B4
:1022F00007277C1E06A8015D394E304602F04AFFD2
:10230000002C48D0BC1E06A8015D304602F042FFFA
:10231000002C40D0FC1E06A8015D304602F03AFFBA
:10232000002C38D03C1F06A8015D304602F032FF79
:10233000002C30D07C1F06A8015D304602F02AFF39
:10234000002C28D0BC1F06A8015D304602F022FFF9
:10235000002C20D0FC1F06A8015D304602F01AFFB9
:10236000002C18D03C46083C06A8015D304602F01F
:1023700011FF002C0FD03C46093C06A8015D3046F9
:1023800002F008FF002C06D006A838180A38017899
:10239000304602F0FFFE2E21304602F0FBFE01988F
:1023A00045430298451B092D3746059C03D830212B
:1023B000384602F0EFFE2846039E314606F00CFD3B
:1023C0004643A91B214306AA11700A2D049E21D35E
:1023D0000A21FEF73FF8214306A8417002251AE0C2
:1023E000008010400F270000102700009F8601008A
:1023F000A08601003F420F0040420F007F969800E8
:1024000080969800FFE0F50500E1F505FFC99A3BCD
:1024100000CA9A3B01256C1E06A8015D384602F0F1
:10242000B9FE002C4BD0AC1E06A8015D384602F068
:10243000B1FE002C43D0EC1E06A8015D384602F028
:10244000A9FE002C3BD00320C0432C1806A8015D38
:10245000384602F09FFE002C31D06C1F06A8015DAB
:10246000384602F097FE002C29D0AC1F06A8015D6B
:10247000384602F08FFE002C21D0EC1F06A8015D2B
:10248000384602F087FE002C19D00720C0432C18D4
:1024900006A8015D384602F07DFE002C0FD02C46C8
:1024A000093C06A8015D384602F074FE002C06D0F7
:1024B00006A828180A380178384602F06BFE202159
:1024C000384602F067FE5321384602F063FE55217C
:1024D000384602F05FFE4D21384602F05BFE3D219A
:1024E000384602F057FE75692846039C214606F0DF
:1024F00073FC4443291B059C214306AA11700A2D35
:102500006CD30A21FDF7A6FF214306A84170642D74
:1025100066D36421284606F05FFC0A21FDF79AFF86
:10252000214306A88170AF4885425BD97D20C10058
:10253000284606F051FC0A21FDF78CFF214306A82E
:10254000C170A94885424FD9A849284606F044FCE5
:102550000A21FDF77FFF214306A80171A4488542A7
:1025600044D9A449284606F037FC0A21FDF772FF3A
:10257000214306A84171A048854239D99F49284680
:1025800006F02AFC0A21FDF765FF214306A88171A8
:102590009B4885422ED99B49284606F01DFC0A21FE
:1025A000FDF758FF214306A8C1719748854223D9FA
:1025B0009649284606F010FC0A263146FDF74AFFE8
:1025C000214306A801729248854217D991492846AD
:1025D00006F002FC204306A9487210E001260EE036
:1025E00002260CE003260AE0042608E0052606E0A1
:1025F000062604E0072602E0082600E00926741EED
:1026000006A8015D844F384602F0C4FD002C48D076
:10261000B41E06A8015D384602F0BCFD002C40D077
:10262000F41E06A8015D384602F0B4FD002C38D037
:10263000341F06A8015D384602F0ACFD002C30D0F6
:10264000741F06A8015D384602F0A4FD002C28D0B6
:10265000B41F06A8015D384602F09CFD002C20D076
:10266000F41F06A8015D384602F094FD002C18D036
:102670003446083C06A8015D384602F08BFD002C6C
:102680000FD03446093C06A8015D384602F082FDB1
:10269000002C06D006A830180A380178384602F017
:1026A00079FD2021384602F075FD4F21384602F0B1
:1026B00071FD5421384602F06DFD5221384602F07A
:1026C00069FD3D21384602F065FD049805692846FC
:1026D000039C214606F080FB4443291B059C2143B3
:1026E00006AA11700A2D6CD30A21FDF7B3FE21430F
:1026F00006A84170642D66D36421284606F06CFB61
:102700000A21FDF7A7FE214306A88170BE48854235
:102710005BD97D20C100284606F05EFB0A21FDF74B
:1027200099FE214306A8C170BA4885424FD9B849DD
:10273000284606F051FB0A21FDF78CFE214306A82E
:102740000171B548854244D9B449284606F044FB96
:102750000A21FDF77FFE214306A84171B04885425A
:1027600039D9B049284606F037FB0A21FDF772FE39
:10277000214306A88171AC4885422ED9AB49284631
:1027800006F02AFB0A21FDF765FE214306A8C17168
:10279000A748854223D9A749284606F01DFB0A26EB
:1027A0003146FDF757FE214306A80172A248854233
:1027B00034D9A249284606F00FFB204306A94872E7
:1027C0002DE001262BE0022629E0032627E004263F
:1027D00025E0052623E0062621E007261FE008263F
:1027E0001DE0C046E70300000F270000102700008F
:1027F0009F860100A08601003F420F0040420F006B
:102800007F96980080969800FFE0F50500E1F505B9
:10281000FFC99A3B00CA9A3B008010400926741EEB
:1028200006A8015D384602F0B5FC002C48D0B41E65
:1028300006A8015D384602F0ADFC002C40D0F41E25
:1028400006A8015D384602F0A5FC002C38D0341FE4
:1028500006A8015D384602F09DFC002C30D0741FA4
:1028600006A8015D384602F095FC002C28D0B41F64
:1028700006A8015D384602F08DFC002C20D0F41F24
:1028800006A8015D384602F085FC002C18D03446BD
:10289000083C06A8015D384602F07CFC002C0FD0F5
:1028A0003446093C06A8015D384602F073FC002C52
:1028B00006D006A830180A380178384602F06AFCBB
:1028C0000D21384602F066FC0A21384602F062FC0F
:1028D0005B21384602F05EFC4121384602F05AFC8A
:1028E0004421384602F056FC3921384602F052FCA9
:1028F0003221384602F04EFC3821384602F04AFCBC
:102900003021384602F046FC5D21384602F042FC98
:1029100020253846294602F03DFC4621384602F083
:1029200039FC4921384602F035FC5221384602F084
:1029300031FC5321384602F02DFC5421384602F078
:1029400029FC5F21384602F025FC4821384602F078
:1029500021FC4521384602F01DFC5821384602F082
:1029600019FC3D21384602F015FC0498048C002C1B
:102970001ED00098067870093109052801D3373137
:1029800000E03031214802F005FC0F2005900640A0
:102990000A2E01D3373600E030361C48314602F0AB
:1029A000F9FB202C204600D32846012C174F09D1D3
:1029B0000D21384602F0EEFB0A21384602F0EAFB10
:1029C00009B0F0BD00994E1C441E08E037350F4F8A
:1029D0003846294602F0DEFB761C641EE8D02C2126
:1029E000384602F0D7FB357868092909052801D354
:1029F000373100E03031054802F0CCFB0598054046
:102A00000A2DE3D23035E2E7E703000000801040F2
:102A1000102700000F2700009F860100A0860100FC
:102A20003F420F0040420F007F969800809698002A
:102A3000FFE0F50500E1F505FFC99A3B00CA9A3BA6
:102A4000F0B589B0FEF718FE0446FEF721FF0590A9
:102A5000D94D5B21284602F09DFB4121284602F01A
:102A600099FB4421284602F095FB3921284602F0C3
:102A700091FB3221284602F08DFB3821284602F0D6
:102A800089FB30272846394602F084FB5D21284621
:102A900002F080FB2021284602F07CFB082C0394E6
:102AA00003D8A000F849095800E0F6490878002842
:102AB00009D04C1CC1B2284602F06CFB611C207886
:102AC00000280C46F6D120210191284602F062FB35
:102AD0004921284602F05EFB4421284602F05AFBB9
:102AE0003D2428462146029402F054FB28463946EC
:102AF00002F050FB049778262846314602F04AFB44
:102B00000598406804F0E0F82846019F394602F035
:102B100041FB4621284602F03DFB5721284602F0A2
:102B200039FB2846214602F035FB2846049902F07D
:102B300031FB2846314602F02DFB059CA06804F0CD
:102B4000C3F82846394602F025FB4321284602F007
:102B500021FB4C21284602F01DFB4B21284602F0A8
:102B600019FB2846049D029902F014FBE6680A242A
:102B70003046214606F030F921464143711A294377
:102B800006AA11700A2E02946CD30A21FDF762FC8A
:102B9000294306A84170642E66D36421304606F0AE
:102BA0001BF90A21FDF756FC294306A88170F0089D
:102BB0007D285BD37D20C100304606F00DF90A2147
:102BC000FDF748FC294306A8C170B04886424FD3A0
:102BD000AE49304606F000F90A21FDF73BFC2943D7
:102BE00006A80171AA48864244D3A949304606F096
:102BF000F3F80A21FDF72EFC294306A84171A548E8
:102C0000864239D3A349304606F0E6F80A21FDF79B
:102C100021FC294306A881719F4886422ED39E49F4
:102C2000304606F0D9F80A21FDF714FC294306A81E
:102C3000C1719A48864223D39849304606F0CCF8B1
:102C40000A242146FDF706FC294306A80172944890
:102C5000864217D39249304606F0BEF8284306A9AB
:102C6000487210E001240EE002240CE003240AE084
:102C7000042408E0052406E0062404E0072402E01A
:102C8000082400E00924661E06A8815D7C4F3846B2
:102C900002F080FA002E48D0A61E06A8815D3846B4
:102CA00002F078FA002E40D0E61E06A8815D384674
:102CB00002F070FA002E38D0261F06A8815D384633
:102CC00002F068FA002E30D0661F06A8815D3846F3
:102CD00002F060FA002E28D0A61F06A8815D3846B3
:102CE00002F058FA002E20D0E61F06A8815D384673
:102CF00002F050FA002E18D02646083E06A8815D44
:102D0000384602F047FA002E0FD02646093E06A8A4
:102D1000815D384602F03EFA002E06D006A8201843
:102D20000A380178384602F035FA4821384602F070
:102D300031FA7A21384602F02DFA2021384602F085
:102D400029FA5221384602F025FA4521384602F088
:102D500021FA4121384602F01DFA4421384602F09A
:102D600019FA5921384602F015FA3D21384602F089
:102D700011FA0598007EC1B2CD224A43D10A029CC5
:102D800022464A43821A2A4306AB1A700A2811D3F4
:102D90001A224A43120A5443091B294306AA5170B6
:102DA00064280BD329214143080B303006A98870D1
:102DB000032404E0012402E0008010400224304D8E
:102DC000661E06A8815D284602F0E4F9002E4BD06D
:102DD000A61E06A8815D284602F0DCF9002E43D02D
:102DE000E61E06A8815D284602F0D4F9002E3BD0ED
:102DF0000320C043261806A8815D284602F0CAF9C0
:102E0000002E31D0661F06A8815D284602F0C2F967
:102E1000002E29D0A61F06A8815D284602F0BAF927
:102E2000002E21D0E61F06A8815D284602F0B2F9E7
:102E3000002E19D00720C043261806A8815D284619
:102E400002F0A8F9002E0FD02646093E06A8815DA3
:102E5000284602F09FF9002E06D006A820180A384E
:102E60000178284602F096F90D21284602F092F9E1
:102E70000A21284602F08EF9039809B0F0BDC04639
:102E800000801040689500005C9200001027000050
:102E9000A086010040420F008096980000E1F505F1
:102EA00000CA9A3B70B588B00446174E30780028A7
:102EB0001CD0002C1CD003F0D5FA054601A8FEF763
:102EC00007FC00281BD101A80078002812D001A817
:102ED0008078002810D101A8407800280ED003F097
:102EE000C1FA401BA042E9D3072008E0022006E017
:102EF000012004E0052002E0002000E00820342149
:102F0000705408B070BDC046B4012020F0B583B045
:102F10000546194E3078022701280CD10C46019243
:102F200016482946224602F045FC022805D0032116
:102F300000281DD104E039461AE00621002817D1E7
:102F400030780128394613D10C4802AA294602F0EC
:102F5000A3F9022803D00321002809D102E00621A9
:102F6000002805D1029961400198014000D0032159
:102F7000C8B203B0F0BDC04624022020EC012020DE
:102F800080B500F029F880BD80B5024800F026F831
:102F900080BDC0462000202080B500F035FB80BDFC
:102FA00010B582B0044600201202009201900B027C
:102FB00003482021224600F093F802B010BDC0461D
:102FC000CC92000080B500F0D9FE002800D080BD72
:102FD000002000F09FFD80BD74487047F0B585B0BB
:102FE0000546724E44213046FDF732FA0120B07496
:102FF000002777748102F1818021F1723249318199
:10300000324C2770002D0ED001AE304602F006F98A
:1030100001952F48314602F00FF9002807D001280A
:1030200000D00320614E4021705405B0F0BD012551
:10303000257027480A216A4602F02EF9002804D09C
:1030400001285A4EEFD00320EDE70099574EB163A7
:103050000420204A9142E6D104461D4814216A46C4
:1030600002F01AF9002802D00128DCD0EBE7009822
:10307000F063194988422046D5D1F54809216A46AE
:1030800002F00AF901461548009A101A421E9041B2
:10309000002900D10546012D03D101290ED1084692
:1030A0000DE0642001F03CFA0028BCD10120307012
:1030B00000F0D2FB0028B6D03770B4E70320002917
:1030C000B1D10420AFE7C04680800000A4122020C8
:1030D0006C122020020897AD0300020040597307CC
:1030E000F0B587B01446D94A1278002A46D0012597
:1030F000002844D004AA0BC20021204605F088FF16
:1031000000283CD1CB49204605F077FF002836D176
:1031100002942046FEF720F80027C74B3A46FDF7F9
:10312000F7FEC64B3A46FDF77FFC06460C46C44AFE
:10313000C44B05F04CFF0390C34B304621463A4642
:10314000FDF742FCFDF794FE0399002901D1002808
:1031500015D00125E9030698884210D8411E89B28E
:103160007F290CD30C9C00280CD0844207D3012566
:1031700029040698081AA04201D306E00225284631
:1031800007B0F0BDAA488442F9D20498059900F02E
:1031900061F905460028F2D10D98009001200299AE
:1031A000069A234600F004F80546E8E72812202096
:1031B000F0B587B004460120C503AA424BD8551E7E
:1031C000ADB27F2D47D3002A07D0934243D30120CD
:1031D0000504AD1A9D4203D23DE0954DAB423AD273
:1031E0000025059408460C4629460493039205F0F1
:1031F0000FFF05468F49204605F0FFFE28430122B8
:103200000028104627D102922046FDF7A5FF002492
:10321000894B2246FDF77CFE884B2246FDF704FCD5
:1032200006460F46864A874B05F0D1FE0546864B7B
:10323000304639462246FDF7C7FBFDF719FE044626
:10324000002D04D1002C02D1012007B0F0BD00F008
:1032500095FD002801D007B0F0BDE54A10780225A1
:10326000002809D0E54800210A4602F0A3FA0146E9
:10327000012803D1084602E02846AFE003200029D8
:1032800000D0AAE0DD48002106AA019102F004F86E
:103290000146012801D1084600E003200029059AD3
:1032A00000D09AE00698C00701D0062095E04021A2
:1032B000CF48019B435483700078002800D18BE0F5
:1032C000042A01D9012088E00091CC48012102F0B4
:1032D00071FA0146012801D1084600E003200029C7
:1032E000C34A7BD1C548012106AA01F0D5FF01469A
:1032F000012801D1084600E003200029BC4A6DD115
:103300000720069901400598814224D1B8490098C8
:10331000019A0A54059808740398049900F09CFCDB
:10332000002816D1464A474B3046394605F05AFE2A
:10333000002801D10198C443204600F039FCAC4973
:10334000009A8854002804D10C9800F0D1FC002881
:1033500003D007B0F0BD062040E0A54A1078002851
:1033600028463BD090780325002801D02C4600E069
:103370000224A2480021224602F01CFA012800D1B2
:103380000546002828D1FD48002606AA314601F04E
:1033900083FF012801D1054600E0032500281BD149
:1033A00006986040C00716D1F3480099465400784B
:1033B000002817D000F0E4F90028EF4A0ED1D178A8
:1033C000484248415178002900D0029002980028D4
:1033D0000AD0052002E006252846E74A402150543D
:1033E00007B0F0BD0220F8E7E4480021012422469E
:1033F00002F0E0F9012801D1014600E00321002894
:1034000014D1DE48002606AA314601F045FF012806
:1034100001D1014600E00321002807D10698C0072A
:1034200003D0D54A94703046D8E706210846D4E741
:1034300001FF000020BC3E4C0000F04165CD9D41E5
:103440000000E0FFFFFFEF410000E03F28122020D6
:103450006C122020F0B585B00646FE4F3878022564
:1034600000281ED00120002E1CD0624A0C4689186C
:10347000891E614A89B2914214D300F07FFC002872
:1034800010D13878002828460CD0F14800210A468F
:1034900002F090F90146012809D10846002901D11E
:1034A00008E0284640217854C0B205B0F0BD0320A2
:1034B0000029F7D1E648002503AA294601F0ECFED1
:1034C0000146012801D1084600E003200029E9D186
:1034D0000398C00701D00620E4E740203D54BD70AA
:1034E000DB4801F063FE002803D00128DAD0032076
:1034F000D8E7D748062100252A4602F05BF90128C3
:1035000001D1014600E00321002856D1D048062110
:1035100004AA019101F0C0FE012801D1014600E09A
:103520000321002849D104988005019945D10195CE
:1035300001257019401E02780721C54802F03AF9AA
:10354000A54202D26D1C0028F3D0012801D101460A
:1035500000E00321002830D10B202A4A214601F047
:103560000BF80146002828D1B948062502AA2946A9
:1035700001F092FE012801D1014600E0032100285C
:103580001BD1029860401E490842294615D1B04817
:10359000072102AA01F080FE012801D1014600E0C6
:1035A0000321002809D13019401E007802A90978AA
:1035B000884201D00620019001990191CDB26E425E
:1035C0006E41A34801F018FE0146424242410128E3
:1035D00001D1084600E00320002900D1084616402A
:1035E000002D00D00198012E00D05BE7FC8159E747
:1035F0002812202001FCFFFF01FC00006C1220209B
:10360000FF030000FF070000F0B583B0044600F0A0
:10361000B5FB002804D040218E4A505403B0F0BDC1
:103620008C4E30780227002835D0894800210A4680
:1036300002F0C0F80146012803D108460029EAD16A
:1036400002E003200029E6D18148002502AA29468C
:1036500001F022FE0146012803D108460029DAD1F3
:1036600002E003200029D6D10298C00701D006202D
:10367000D1E740217554B570307800280BD0019106
:103680007348012100252A4602F094F801460128DA
:1036900003D1084602E03846BDE703200029BAD12D
:1036A0006B48012102AA01F0F7FD0146012801D172
:1036B000084600E003200029ADD102A800784007A9
:1036C000D5D10198355435746148032101912246C2
:1036D00002F070F8012800D10190002830D15C4838
:1036E000032102AA019101F0D7FD012800D1019028
:1036F000002825D102A8007884421FD13563756166
:10370000B561347230780028384684D000F038F83B
:10371000002800D07FE771780520002900D17AE7E2
:10372000F178002900D176E7F648002101242246ED
:1037300002F040F8012805D1014604E0062001907E
:10374000019868E70321002813D1EE48002502AA5A
:10375000294601F0A1FD012801D1014600E0032125
:10376000002806D10298C00702D0B470284652E75C
:10377000062108464FE7C046281220206C12202060
:1037800010B582B031480078012808D1DD4801F039
:103790000DFD00280AD0012802D0032000E00220FD
:1037A0004021D74A5054C0B202B010BDD5480421C0
:1037B00001AA01F071FD012803D10446002810D1AF
:1037C00002E0032400280CD1F84812216A4601F0D7
:1037D00063FD012801D1044600E00324002800D144
:1037E0000446F24801F008FD0146204608431ED178
:1037F00001A80278012311461940EB48417069463F
:1038000009780B4043719306DB0F03715307DB0FFD
:10381000C3709207D20F82700A07D20F82744A07D0
:10382000D20FC2718907C90F81710020B8E7012941
:1038300003D10846002903D003E00320002900D16A
:103840000846002CACD02046AAE7C046A41220208F
:103850006C12202028122020F0B583B0FB4F38785E
:10386000002808D0FB4801F0A1FC002805D0012861
:1038700068D0032066E0022064E0F64811210024AD
:10388000224601F097FF012803D10646002830D1D7
:1038900002E0032600282CD1EE48112102AA01F0F3
:1038A000FBFC012803D10646002822D102E00326B2
:1038B00000281ED102A800782F21084201D0062638
:1038C00017E0E44800210A4601F074FF012801D105
:1038D000064600E0032600280BD1DE48002102AA9C
:1038E00001F0DAFC012801D1064600E00326002899
:1038F0002CD075427541D74801F07EFC014642420A
:103900004241012803D10846002903D003E00320E7
:10391000002900D108461540002E00D03046012D68
:1039200010D13C743C737A497C60B960BC70012151
:103930008902F9813A461432242104461046FCF7E4
:1039400087FD20464021785403B0F0BD02A80078DE
:10395000C007B4D1E5480121002201F02BFF012866
:1039600001D1064600E003260028C2D1DF48012528
:1039700002AA294601F090FC012801D1064600E088
:1039800003260028B5D102A80078400797D1F9484E
:103990000221002201F00EFF012801D1064600E0BD
:1039A00003260028A5D1F348022102AA01F074FCE5
:1039B000012801D1064600E00326002899D102988B
:1039C000002800D07BE7EB4803268022314601F037
:1039D000F1FE012800D1064600288AD1E5480326D9
:1039E00002AA314601F058FC012800D10646002801
:1039F00000D07EE702A80078802800D05FE7DD488D
:103A00000521002201F0D6FE012801D1064600E082
:103A10000326002800D06CE7D648052102AA01F051
:103A20003BFC012801D1064600E00326002800D017
:103A30005FE70298002800D041E7AA02CD480B2199
:103A4000019201F0B7FE012801D1064600E00326ED
:103A5000002800D04DE7C7480B2102AA01F01CFC4A
:103A6000012801D1064600E00326002800D040E7E7
:103A70002548029901400198814200D01FE7BD48C6
:103A80000C21224A01F096FE012801D1064600E0F1
:103A90000326002800D02CE7B6480C2102AA01F02A
:103AA000FBFB012801D1064600E00326002800D0D8
:103AB0001FE702981549884200D000E7AD48002171
:103AC000022201F077FE012801D1064600E003261C
:103AD000002800D00DE7A748002102AA01F0DCFB76
:103AE000012801D1064600E00326002800D000E7A7
:103AF00002A800782840404206260640F9E6C04663
:103B0000281220206C122020FF0700008080000077
:103B10008080008070B582B00446EA4E307800287C
:103B20001AD0002C0AD0FFF72BFE002837D171786D
:103B30000520002933D0F178002930D0601E2246BC
:103B40008241E148002101F035FE0146012805D1FE
:103B50000846002923D104E0022020E003200029A8
:103B60001DD1D948002501AA294601F095FB01463F
:103B7000012803D10846002911D102E003200029C1
:103B80000DD1601E214681410120019A02409142DF
:103B900001D0062003E0601E8441B4702846402115
:103BA000705402B070BDC046281220206C12202034
:103BB00070B582B00446C34D2878002806D024484A
:103BC0002118491E814203D201203AE0022038E048
:103BD000BD480221224601F0EDFD0146012803D136
:103BE000084600292DD102E00320002929D1B6483A
:103BF000022101AA01F050FB0146012803D1084629
:103C000000291ED102E0032000291AD10198A04208
:103C100016D12C632046FDF778F90024AB4B2246E1
:103C2000FDF776F9AA4B26462246FDF771F9FCF717
:103C300011FD68616979002900D1A861304600E072
:103C400006204021685402B070BDC04628122020D2
:103C50009A9999996C122020F0B583B00246994D3B
:103C6000287800281ED00120C3039A423AD8531E58
:103C70007F2B37D3FF201346834301921006CAB22D
:103C800012041018C0180E460F0AC4198E480C21D1
:103C9000224601F08FFD0146012805D10846002982
:103CA00020D104E002201DE0032000291AD186481B
:103CB0000C2102AA01F0F0FA0146012803D10846BE
:103CC00000290FD102E0032000290BD10298A04265
:103CD00007D12E73EF720198A872000A6872002053
:103CE00000E006204021685403B0F0BD6C12202093
:103CF000B0B582B00446734D287800280BD07248C6
:103D00000521224601F056FD0146012805D108464D
:103D100000292BD104E0022028E00320002925D12E
:103D20006948052101AA01F0B7FA0146012803D12B
:103D3000084600291AD102E00320002916D1019873
:103D4000A04212D16C632046FDF7DFF800240A4B35
:103D50002246FDF7DDF85E4B2246FDF7D9F8FCF769
:103D600079FC01462046E96100E0062040216854C4
:103D700002B0B0BD6C12202000807640B0B582B099
:103D8000504D2878002807D0287900286ED0A87CCC
:103D9000012803D0092002E002208CE02920697C60
:103DA0004C00044348481121224601F003FD01461E
:103DB000012803D1084600297DD102E00320002913
:103DC00079D14148112101AA01F066FA0146012882
:103DD00003D1084600296ED102E0032000296AD1F0
:103DE000019860402F21084264D1402000212954CD
:103DF0000120A871344813216A4601F04DFA0146AA
:103E0000012801D1084600E00320002953D1009C7D
:103E10002D480221224601F0CDFC0146012801D1A6
:103E2000084600E00320002945D12748022101AAC5
:103E300001F032FA0146012801D1084600E00320D2
:103E4000002938D10198A04234D100982863FDF7A9
:103E50005CF800241D4B2246FDF75AF81C4B224605
:103E6000FDF756F8FCF7F6FB6861A86116481121CA
:103E70000024224601F09EFC0146012803D1084699
:103E8000002918D102E00320002914D10E48112185
:103E900001AA01F001FA0146012803D108460029D0
:103EA00009D102E00320002905D101A800782F21C3
:103EB000084204D006204021685402B0B0BD6C60B6
:103EC0002046F8E7281220206C12202065CD9D4165
:103ED0000000F03DF0B58BB00546FFF751F80078D3
:103EE000002803D02846FFF757F803E000F006F952
:103EF0000028F7D00790804C5B21204601F04AF95A
:103F000041210491204601F045F9442105912046C4
:103F100001F040F93921204601F03CF937212046D3
:103F200001F038F930210391204601F033F93821AE
:103F3000204601F02FF95D21204601F02BF92021C8
:103F40000291204601F026F943210191204601F01B
:103F500021F906954F252046294601F01BF94E27E9
:103F60002046394601F016F95321204601F012F996
:103F700054262046314601F00DF92046049901F0FF
:103F800009F92046394601F005F920463146039EDD
:103F900001F000F92046029901F0FCF82046019951
:103FA00001F0F8F820462946069D01F0F3F8204676
:103FB000059901F0EFF84521204601F0EBF83D218D
:103FC000204601F0E7F8CD206843C00A0A210A46DE
:103FD0004243AA1A324308AB1A700A2D11D31A228F
:103FE0004243120A5143401A304308A94870642DD5
:103FF00009D329206843000B303008A988700325B5
:1040000002E0012500E00225079F6E1E08A8815DE1
:10401000204601F0BFF8002E4BD0AE1E08A8815DEF
:10402000204601F0B7F8002E43D0EE1E08A8815DAF
:10403000204601F0AFF8002E3BD00320C0432E18DD
:1040400008A8815D204601F0A5F8002E31D06E1F32
:1040500008A8815D204601F09DF8002E29D0AE1FF2
:1040600008A8815D204601F095F8002E21D0EE1FB2
:1040700008A8815D204601F08DF8002E19D0072098
:10408000C0432E1808A8815D204601F083F8002E59
:104090000FD02E46093E08A8815D204601F07AF82F
:1040A000002E06D008A828180A380178204601F00A
:1040B00071F82021204601F06DF8072F03D8B800D1
:1040C000E749095800E0E5490878002809D04D1C67
:1040D000C1B2204601F05EF8691C287800280D4620
:1040E000F6D10D21204601F055F80A21204601F0B5
:1040F00051F80BB0F0BDC04600801040F0B589B05B
:10410000FEF742FF0446FEF73BFF0590F54D5B21AD
:10411000284601F03FF84121284601F03BF84421B0
:10412000284601F037F83921284601F033F83721C5
:10413000284601F02FF830272846394601F02AF8A2
:104140003821284601F026F85D21284601F022F8A2
:104150002021284601F01EF8072C039403D8A00064
:10416000EE49095800E0EC490878002809D04C1CB9
:10417000C1B2284601F00EF8611C207800280C46D8
:10418000F6D1202428462146019401F003F8492164
:10419000284600F0FFFF4421284600F0FBFF3D26A3
:1041A00028463146029600F0F5FF2846394600F0D1
:1041B000F1FF049778272846394600F0EBFF059871
:1041C000806B02F081FD2846214600F0E3FF462186
:1041D000284600F0DFFF5721284600F0DBFF284685
:1041E000314600F0D7FF2846049900F0D3FF284657
:1041F0003946049C00F0CEFF059FF86B02F064FD89
:104200002846019900F0C6FF5021284600F0C2FF61
:104210004C262846314600F0BDFF2846314600F0C6
:10422000B9FF2846029900F0B5FFF8782746C1B2D9
:10423000CD267143C90A0A2422464A43821A3A43C8
:1042400006AB1A700A28029411D31A224A43120AA2
:104250006243891A394306AA5170642809D3292177
:104260004143080B303006A98870032702E001277C
:1042700000E002277C1E06A8015D284600F08AFFA8
:10428000002C4BD0BC1E06A8015D284600F082FF22
:10429000002C43D0FC1E06A8015D284600F07AFFE2
:1042A000002C3BD00320C0433C1806A8015D2846E3
:1042B00000F070FF002C31D07C1F06A8015D28465D
:1042C00000F068FF002C29D0BC1F06A8015D28461D
:1042D00000F060FF002C21D0FC1F06A8015D2846DD
:1042E00000F058FF002C19D00720C0433C1806A846
:1042F000015D284600F04EFF002C0FD03C46093CE3
:1043000006A8015D284600F045FF002C06D006A84F
:1043100038180A380178284600F03CFF202128464A
:1043200000F038FF5221284600F034FF452128468E
:1043300000F030FF4121284600F02CFF44212846A0
:1043400000F028FF5921284600F024FF3D2128468F
:1043500000F020FF05984078C1B24E43F10A029E5A
:1043600032464A43821A049C224306AB1A700A283A
:1043700011D31A224A43120A5643891B214306AA23
:104380005170642809D329214143080B303006A914
:104390008870032402E0012400E00224661E06A8BF
:1043A000815D284600F0F6FE002E4BD0A61E06A822
:1043B000815D284600F0EEFE002E43D0E61E06A8E2
:1043C000815D284600F0E6FE002E3BD00320C0436E
:1043D000261806A8815D284600F0DCFE002E31D0AC
:1043E000661F06A8815D284600F0D4FE002E29D065
:1043F000A61F06A8815D284600F0CCFE002E21D025
:10440000E61F06A8815D284600F0C4FE002E19D0E4
:104410000720C043261806A8815D284600F0BAFE92
:10442000002E0FD02646093E06A8815D284600F0E2
:10443000B1FE002E06D006A820180A3801782846BA
:1044400000F0A8FE0D21284600F0A4FE0A2128460F
:1044500000F0A0FE039809B0F0BDC04668950000CA
:1044600080920000F0B581B0FEF78AFD0078002848
:1044700006D01B4864218022FEF792FD044604E02A
:10448000FFF73CFE04460028F3D05B200126154DC3
:1044900015A7C1B2284600F07DFEB85D761C2E2E11
:1044A000F7D1072C03D8A0001C49095800E01A498D
:1044B0000878002809D04E1CC1B2284600F06AFED8
:1044C000711C307800280E46F6D10D21284600F0E8
:1044D00061FE0A21284600F05DFE204601B0F0BDD5
:1044E0000050C347008010405B4144393730385D8D
:1044F0002053494E45203130306B487A20414D5091
:104500005F434F44453D313030204F46465345547C
:104510003D31323820000000689500008092000094
:1045200070B504460120002C1DD0114909780029DE
:1045300019D001F097FF05460E4E07E0012001F06B
:1045400045FF01F08FFF401BA0420BD2FFF718F987
:10455000002808D170780028F0D0F0780028EDD03D
:10456000002000E005204021024A505470BDC046A2
:10457000A41220202812202070B582B014460D46C7
:104580000646124831462A4601F014F9012803D1A3
:104590000146002816D102E00321002812D10B4861
:1045A00001AA314600F078FE012803D10146002817
:1045B00008D102E00321002804D10199694021407B
:1045C00000D00621C8B202B070BDC0466C122020D7
:1045D00010B50024204600F0B5F8002800D010BD2A
:1045E00048490C70324A01211170454A1460464A0C
:1045F0001480464A1460464A1460464A1460464A8B
:104600001460464A1170464A1460464A1460464A8D
:104610001460464A1460464A1460464A1460464A8A
:10462000117046490C6046490C6010BD70B58A0B8C
:1046300001D0022070BD04461D4D2878002809D104
:104640000E46002000F07EF8002800D070BD01204A
:10465000287031462A4A002010602A4A10702A4ADF
:1046600010802A4A10602A4A10602A4A10602A4A9A
:1046700010602A4A01231370294A1060294A1060E9
:10468000294A1060294A1060294A1060294A10609E
:10469000294A1370294A1060294A1060084600F020
:1046A00045F90028D2D1204600F04AF970BDC04635
:1046B000A5122020124900200860124908701249F2
:1046C00008801249086012490860124908601249BE
:1046D0000860124901220A701149086011490860F6
:1046E00011490860114908601149086011490860C2
:1046F00011490A7011490860114908607047C046A5
:10470000CC122020D01220203C1320204013202047
:1047100044132020481320204C1320205013202025
:1047200054132020581320206013202064132020CD
:10473000681320206C132020701320207413202075
:1047400078132020F0B583B000F0A2F801AD002668
:104750002E7001277C02C2482146324601F04EFEEF
:104760002846394600F092FB0546002804D1BD4892
:10477000042100F08BFB0546B948012721463A4643
:1047800001F03CFE0296B84E0298B04204D200BF3F
:104790000298401C0290F7E7002D6BD101AD2F70FD
:1047A000AF4800222146009201F028FE28463946F3
:1047B00000F06CFB0546002804D1AC48042100F051
:1047C00065FB0546A6480122214601F017FE009828
:1047D00002900298B04203D200BF0298401CF7E753
:1047E000002D47D101AD022028709D4800272146A9
:1047F0003A4601F003FE0121284600F047FB05463A
:10480000002804D11D48042100F040FB05469448CF
:1048100001222146144601F0F1FD0097029702980B
:10482000B04204D200BF0298401C0290F7E7002D6E
:1048300020D127028A483946224601F0DFFD009D3B
:1048400002950298B04204D200BF0298401C029028
:10485000F7E7834839462A4601F0D0FD02950298D1
:10486000B04204D200BF0298401C0290F7E76420D7
:1048700001F0ACFD284603B0F0BDC046500020203A
:1048800080B5024601204103744801F0B7FD80BDA8
:10489000F0B581B001246103704800252A4601F07B
:1048A000ADFD61026E4F3846224601F0A7FD26029B
:1048B000384631462A4601F0A1FD684F3846314658
:1048C0002A4601F09BFD022138462A4601F096FD5A
:1048D0008026634F384631462A4601F08FFD20215D
:1048E00038462A4601F08AFD40275C4839462A4668
:1048F00001F084FD594831462A4601F07FFD0A4EF9
:1049000030463946224601F079FD052001F05EFD72
:10491000304639462A4601F071FD204601F056FD29
:10492000284601B0F0BDC0460000202080B55149A6
:1049300048708004800E087000F0FAFA80BDC0460E
:10494000F0B587B04449884202D9022007B0F0BDD3
:10495000029001273902414C00262046324601F0E0
:104960004DFD02212046324601F048FD3C4D802499
:1049700028462146324601F041FD20212846324694
:1049800001F03CFD4021354D2846324601F036FD10
:1049900028462146324601F031FD03AC26707D02E7
:1049A0002F482946324601F029FD2046394600F0BD
:1049B0006DFA002803D12B48042100F067FA044661
:1049C0002748012729463A4601F018FD0496264E4D
:1049D0000498B04204D200BF0498401C0490F7E74A
:1049E0002046002C01D007B0F0BD05AC27701C4854
:1049F00000222946019201F001FD2046394600F0CF
:104A000045FA002803D11948042100F03FFA044672
:104A100013480122294601F0F1FC019806900698FE
:104A2000B04203D200BF0698401CF7E72046002C96
:104A3000D9D10F4A002002990346FBF7F9FB0D4933
:104A4000C871020A8A71020C4A71000E087100F0E6
:104A50006FFA07B0F0BDC0468074D21A1000202053
:104A60000800202048002020701700004C00202063
:104A700000CA9A3B54002020F0B585B00546F94C99
:104A80002078002806D1FFF7A3FD074600280AD1A9
:104A9000012020700020FFF7F3FE0120410328468B
:104AA000FFF7C4FD0746F04C5B21204600F072FB87
:104AB0004121204600F06EFB4421204600F06AFBB5
:104AC00039262046314600F065FB2046314600F08D
:104AD00061FB3121204600F05DFB30212046019131
:104AE00000F058FB5D21204600F054FB20262046B4
:104AF000314600F04FFB5321204600F04BFB49218B
:104B0000204600F047FB4E21204600F043FB4521A4
:104B1000204600F03FFB2046314600F03BFB022FD1
:104B200003D8B800D249095800E0D04908780028D5
:104B300009D04E1CC1B2204600F02CFB711C30780D
:104B400000280E46F6D12021204600F023FB462106
:104B5000204600F01FFB5221204600F01BFB4521A0
:104B6000204600F017FB5121204600F013FB3D21A9
:104B7000204600F00FFB0A262846314604F02CF9A7
:104B80004643A91B019E314302AA11700A2D6CD322
:104B90000A21FBF75FFC314302A84170642D66D304
:104BA0006421284604F018F90A21FBF753FC31432D
:104BB00002A88170E8087D285BD37D20C1002846CB
:104BC00004F00AF90A21FBF745FC314302A8C17041
:104BD000A84885424FD3A749284604F0FDF80A218A
:104BE000FBF738FC314302A80171A348854244D346
:104BF000A149284604F0F0F80A21FBF72BFC3143C9
:104C000002A841719D48854239D39C49284604F049
:104C1000E3F80A21FBF71EFC314302A88171984892
:104C200085422ED39649284604F0D6F80A21FBF790
:104C300011FC314302A8C1719248854223D39149A6
:104C4000284604F0C9F80A273946FBF703FC31432C
:104C500002A801728C48854217D38B49284604F07C
:104C6000BBF8304302A9487210E001270EE002278A
:104C70000CE003270AE0042708E0052706E00627E2
:104C800004E0072702E0082700E009277D1E02A8AC
:104C9000415D204600F07EFA002D48D0BD1E02A8DE
:104CA000415D204600F076FA002D40D0FD1E02A89E
:104CB000415D204600F06EFA002D38D03D1F02A85D
:104CC000415D204600F066FA002D30D07D1F02A81D
:104CD000415D204600F05EFA002D28D0BD1F02A8DD
:104CE000415D204600F056FA002D20D0FD1F02A89D
:104CF000415D204600F04EFA002D18D03D46083D9B
:104D000002A8415D204600F045FA002D0FD03D4637
:104D1000093D02A8415D204600F03CFA002D06D076
:104D200002A838180A380178204600F033FA4821E2
:104D3000204600F02FFA7A21204600F02BFA202698
:104D40002046314600F026FA4121204600F022FAA2
:104D50004D21204600F01EFA50210191204600F01E
:104D600019FA3D21204600F015FA38272046394629
:104D700000F010FA31252046294600F00BFA3921BF
:104D8000204600F007FA3221204600F003FA2F21D6
:104D9000204600F0FFF92046294600F0FBF93621B5
:104DA000204600F0F7F933252046294600F0F2F9B5
:104DB0002046394600F0EEF92046294600F0EAF98F
:104DC0002046314600F0E6F95621204600F0E2F98F
:104DD0004521204600F0DEF952272046394600F0F2
:104DE000D9F94921204600F0D5F946252046294623
:104DF00000F0D0F95921204600F0CCF92046314688
:104E000000F0C8F92046394600F0C4F9204629468A
:104E100000F0C0F92046314600F0BCF94F21204691
:104E200000F0B8F955252046294600F0B3F954267C
:104E30002046314600F0AEF92046019900F0AAF96B
:104E40002046294600F0A6F92046314600F0A2F996
:104E50000D21204600F09EF90A21204600F09AF923
:104E600005B0F0BDA612202000801040689500001B
:104E7000A092000010270000A086010040420F0011
:104E80008096980000E1F50500CA9A3BF0B587B01E
:104E900002270290002846D0002944D00022234E49
:104EA000019104E0039A521C01998A423BD0029876
:104EB0000392855C802401E06408F3D022462A40F6
:104EC000501E82414021304601F098FA0027049795
:104ED0000498772806D800BF0498401C04900498D2
:104EE0007828F8D304210122304601F087FA05978B
:104EF0000598772806D800BF0598401C05900598AE
:104F00007828F8D3042130463A4601F077FA06971C
:104F100006987728D0D800BF0698401C06900698BF
:104F20007828F8D3C8E7384607B0F0BD180020202D
:104F3000F0B587B0012047020E20284D284901977F
:104F400003AC02902070002608463946324601F034
:104F500055FA01212046FFF799FF0446002804D1A5
:104F600008212048FFF792FF044601221C483946D9
:104F7000009201F043FA049603E000BF0498401C3D
:104F800004900498A842F8D3002C029922D1481C1E
:104F90001429019F1249D3D9009A140210482146BE
:104FA00001F02CFA05960598A84204D200BF059896
:104FB000401C0590F7E70A482146324601F01EFAE8
:104FC00006960698A84204D200BF0698401C069098
:104FD000F7E73446204607B0F0BDC0467017000022
:104FE0000800202054002020F0B581B00C46054672
:104FF00015480078154F3978081A8030420E82180B
:1050000080231340181A8038C0B2A04201D2002475
:1050100017E00E190E487F2E03D840182946224665
:105020000CE040187F22D243511ACEB229463246B4
:10503000FBF7AFF9A919A61B05483246FBF7A9F9FA
:105040003E70204601B0F0BD700120208813202062
:10505000C8002020B0B50A78032313400B4A8458B7
:105060000B4D2540EB18A92424061B198350072259
:1050700012064B6813401124240205599543EA187F
:105080000251001949780161B0BDC046080800000E
:10509000FCFFFF00811E091F00BFFCD2704700000B
:1050A00010B5002A0CD0074BC31800201C686407F9
:1050B00005D41C6A0C54401C8242F7D1104610BD26
:1050C000002010BD10110000B0B51122120283584B
:1050D0000C4C1C400B894D881D438B792B430A4D8A
:1050E0001D402B1983508B88CC791C4309782143B0
:1050F0005D239B001940801842689A4389184160DB
:10510000B0BDC04680CCFFFF7F33000010B5012248
:10511000120383180C785C604978815010BD000040
:10512000B0B51122120283580124A34383500B8887
:105130008C781C438B882343094C1C408358094DB1
:105140001D40631983508B79CC791C43097A214324
:105150007E231940801842689A4351184160B0BDBF
:1051600018670000E798FDFF0F4A83585B0704D4D7
:105170008018C06908700120704700207047C04641
:1051800010B50122120383180C789C604978815075
:1051900010BD0000044A801802681206FCD4816128
:1051A0000168C907FCD170470811000010B501461D
:1051B000012000291ED00A4634325378002B02D039
:1051C0000220107010BD0B68324CA34202D00120A7
:1051D000107010BD4B68002BF9D00B89002BF6D056
:1051E000C9684B424B411370002903D001200002D3
:1051F0001080002010BDC04610B502460120002AD4
:105200000BD0144634346178002906D011895068D7
:10521000012201F0F3F80020208010BD002808D002
:105220000A21C16003491B4A026041600121C90390
:10523000018170470000202070B503460120002B3B
:1052400026D0002924D01A463432CC68DC608C6821
:105250009C604C685C600968196000251D6395704E
:1052600055700C4CA14202D00120107070BD5C68DA
:10527000002CF9D019890029F6D0DB685E425E4126
:105280001670002B04D00122204601F0B7F8284602
:1052900070BDC04620002020F0B583B016460546FC
:1052A000009200220291134600F0E8F8411F01220B
:1052B000D443A14200D2DEE07F20C743384600BF7E
:1052C00000BF00BF00BF00BF00BF00BF00BF00BFE6
:1052D00000BF00BF00BF00BF00BF00BF00BF00BFD6
:1052E00000BF00BF00BF00BF00BF00BF00BF00BFC6
:1052F00000BF00BF00BF00BF00BF00BF00BF00BFB6
:1053000000BF00BF00BF00BF00BF00BF00BF00BFA5
:1053100000BF00BF00BF00BF00BF00BF00BF00BF95
:1053200000BF00BF00BF00BF00BF00BF00BF00BF85
:1053300000BF00BF00BF00BF00BF00BF00BF4030C4
:10534000BDD10096002228460299134600F096F837
:10535000411FA14200D28EE0384600BF00BF00BF0F
:1053600000BF00BF00BF00BF00BF00BF00BF00BF45
:1053700000BF00BF00BF00BF00BF00BF00BF00BF35
:1053800000BF00BF00BF00BF00BF00BF00BF00BF25
:1053900000BF00BF00BF00BF00BF00BF00BF00BF15
:1053A00000BF00BF00BF00BF00BF00BF00BF00BF05
:1053B00000BF00BF00BF00BF00BF00BF00BF00BFF5
:1053C00000BF00BF00BF00BF00BF00BF00BF00BFE5
:1053D00000BF00BF00BF00BF00BF4030BDD100967E
:1053E000002228460299134600F048F8411FA142C6
:1053F00041D300BF00BF00BF00BF00BF00BF00BF60
:1054000000BF00BF00BF00BF00BF00BF00BF00BFA4
:1054100000BF00BF00BF00BF00BF00BF00BF00BF94
:1054200000BF00BF00BF00BF00BF00BF00BF00BF84
:1054300000BF00BF00BF00BF00BF00BF00BF00BF74
:1054400000BF00BF00BF00BF00BF00BF00BF00BF64
:1054500000BF00BF00BF00BF00BF00BF00BF00BF54
:1054600000BF00BF00BF00BF00BF00BF00BF00BF44
:1054700000BF4037BDD103B0F0BD0000F0B58DB026
:1054800007460120002F07D04DB2002D04D4129CF6
:10549000002A03D1002C01D10DB0F0BD03943C468D
:1054A000343460780690002800D13AE10AA800253B
:1054B0004571037108AEB5801E0AC6701E0C867059
:1054C0001B0E4370531E9A41D2010A430270089585
:1054D0007F20C543284600BF00BF00BF00BF00BFFC
:1054E00000BF00BF00BF00BF00BF00BF00BF00BFC4
:1054F00000BF00BF00BF00BF00BF00BF00BF00BFB4
:1055000000BF00BF00BF00BF00BF00BF00BF00BFA3
:1055100000BF00BF00BF00BF00BF00BF00BF00BF93
:1055200000BF00BF00BF00BF00BF00BF00BF00BF83
:1055300000BF00BF00BF00BF00BF00BF00BF00BF73
:1055400000BF00BF00BF00BF00BF00BF00BF00BF63
:1055500000BF00BF00BF4030BDD104943989079718
:1055600078680022059200F049FF284600BF00BF7E
:1055700000BF00BF00BF00BF00BF00BF00BF00BF33
:1055800000BF00BF00BF00BF00BF00BF00BF00BF23
:1055900000BF00BF00BF00BF00BF00BF00BF00BF13
:1055A00000BF00BF00BF00BF00BF00BF00BF00BF03
:1055B00000BF00BF00BF00BF00BF00BF00BF00BFF3
:1055C00000BF00BF00BF00BF00BF00BF00BF00BFE3
:1055D00000BF00BF00BF00BF00BF00BF00BF00BFD3
:1055E00000BF00BF00BF00BF00BF00BF4030BDD143
:1055F0006E480CA904220292FFF752FD6C4E00F097
:1056000031FF07463068800707D40798C46800F068
:1056100029FFC01BA042F5D317E00AA80599405CFA
:1056200030633068400707D50798C46800F01AFF58
:10563000C01BA042F5D308E0306A08A9059A885437
:10564000521C0592062ADDD18CE00320059000242F
:105650000798018940680122174600F0CFFE00BF7D
:1056600000BF00BF00BF00BF00BF00BF00BF00BF42
:1056700000BF00BF00BF00BF00BF00BF00BF00BF32
:1056800000BF00BF00BF00BF00BF00BF00BF00BF22
:1056900000BF00BF00BF00BF00BF00BF00BF00BF12
:1056A00000BF00BF00BF00BF00BF00BF00BF00BF02
:1056B00000BF00BF00BF00BF00BF00BF00BF00BFF2
:1056C00000BF00BF00BF00BF00BF00BF00BF00BFE2
:1056D00000BF00BF00BF00BF00BF00BF00BF40351C
:1056E000BDD1002C3846049C079D059E45D008A9D5
:1056F0000A78A52A40D149785A29029E3DD108A9A5
:105700008A781206CB781B049A180B791B02D218E0
:105710004979511829630026039A002A2DD0116077
:105720002BE03D680120204EB54236D17D68002D2A
:1057300033D03D89002D30D0F86845424541257071
:1057400000282DD0012000022080AFE607980194A8
:10575000C46800F087FEC01B03210591A042019C94
:1057600000D375E73068102101404C424C410029BC
:10577000ECD1002005906BE7029E069900290BD121
:105780006178002906D029896868012200F036FE78
:1057900000206070002E00D0304620700DB0F0BDAB
:1057A00001200DB0F0BDC046200020200080464002
:1057B0001091464080B582B013460022009201222B
:1057C000FFF75CFE02B080BD80B5084600F0FEFD2C
:1057D00080BD80B500F046FE80BD0000F0B58BB006
:1057E0000124E543681C002900D1D7E0002A00D13C
:1057F000D4E0002B00D1D1E09B4B1B78002B00D1D3
:10580000CCE00B78A52B00D0C8E0984B1878012885
:1058100016D15A2010704878052393705070C878BC
:105820000024D471947154711471D0700821104601
:10583000154600F046F90146204629720BB0F0BD2E
:105840001C700027099708260846089131460792E0
:1058500000F037F90899079A0B7A984200D084E053
:105860008B78581E022811D20024099408790190DF
:105870004879029088790390C8790490C8780528FF
:105880000590069314D8302606432AE0002B1AD13F
:10589000002009907348302109AAFFF7FDFC044657
:1058A000002860D0022C079A089974D105245CE086
:1058B0000346F8201840202807D0102809D12826B0
:1058C000059806430CE002244FE005980646203672
:1058D00006E0FE20059B184040286DD11E43184667
:1058E000069B022B27D1032802D00346052857D157
:1058F0000198000602990904081803990902401842
:1059000004994218F6B2574831460492FFF752FF05
:10591000002815D153480AAA3146FFF7BDFC0028DC
:1059200039D10A9A0598049900F050F80899079A15
:1059300000281AD12FE0F1B24A4809AAFFF7ACFCBF
:1059400002280FD00028079A089924D10698012828
:105950000BD10598022808D10B204006099B8343F0
:10596000099302E00524079A08995A201070487894
:1059700094705070C8780999D1710B0A93710B0C0F
:105980005371090E1171D07008211046144600F0B1
:1059900098F820723D463548077028460BB0F0BD98
:1059A000FE2018404028A3D0F820184010289FD08F
:1059B00020289DD00424D8E71846503817281E46C2
:1059C0001846069B8DD90324CFE7C046B0B5012306
:1059D000032812D0052810D0F825054000231C46C6
:1059E000DB43102D09D0202D07D0402804D04128BA
:1059F000204606D1EB4B00E0024B4A401A40504291
:105A00005041B0BD1F030000B0B584B000280FD0D6
:105A100004466D462846FFF701FC12482946FFF769
:105A20000BFC002806D0104800210170FE2016E073
:105A3000FF2014E00D48002505700B48012101707E
:105A4000039B0B4920462A4600F0EEF8002806D1B9
:105A50000849094A20462B4600F050FB284640B230
:105A600004B0B0BD001320203913202038132020AB
:105A7000DD570000D3570000C957000070B582B051
:105A800000281AD0044601A8009001260322002510
:105A9000204631462B4600F036FB00280ED10198F7
:105AA00000953040831C02210322204600F02BFB8E
:105AB000002803D12577284600E0FF2040B202B03D
:105AC00070BDF0B50025002835D0002933D0012362
:105AD0000A461A40012930D100231D46002A2AD047
