:020000040000FA
:10000000F01A2020D5010000D9010000DB0100001A
:1000100000000000000000000000000000000000E0
:10002000000000000000000000000000DD010000F2
:100030000000000000000000DF010000D1620000AD
:10004000E3010000E3010000E3010000E301000020
:10005000E3010000E3010000E3010000E301000010
:1000600000000000E3010000E301000000000000C8
:1000700000000000E3010000E3010000E3010000D4
:10008000E3010000E3010000E3010000E3010000E0
:10009000E3010000E3010000000000000000000098
:1000A000E3010000E3010000000000000000000088
:1000B000E301000000000000E3010000E301000094
:1000C00000F002F800F05AF812A030C808382418DE
:1000D0002D18AC4201D100F051F80FCCA246AB462E
:1000E0000CA730CF2D1B083F3F197C427F1E544484
:1000F0002D090426F441641EAC4201D300F03EF801
:100100000126334200D0FB1A3343984754465D46DC
:10011000DFE700006489000084890000000000001F
:10012000103A02D378C878C1FAD8520701D330C840
:1001300030C101D504680C60704700000000000069
:100140007047000000000000002300240025002666
:10015000103A01D378C1FBD8520700D330C100D583
:100160000B60704710B5732902D101F011F910BD71
:10017000002010BD1FB51FBD10B510BD01F092F9D4
:100180001146FFF7F7FF06F00DF901F0AAF903B4E5
:10019000FFF7F2FF03BC06F003F9000070B5054657
:1001A0000C46164602E00FCC0FC5103E102EFAD2B8
:1001B000082E02D303CC03C5083E042E07D301CC7E
:1001C00001C5361F03E021782970641C6D1C761E62
:1001D000F9D270BD06480047FEE7FEE7FEE7FEE7FE
:1001E000FEE7FEE703480449024A044B704700005B
:1001F000C1000000F0122020F01A2020F012202070
:100200004343514330B55C18010C130C0D4692B2B8
:100210005D4380B251432C19054655430A0C09042D
:100220004D1962415843010C00044019514130BD41
:10023000FEB5044610460D46184373D0A6468C46BC
:100240000020A41A01469D4167D366460027012479
:100250003D46B61A9D4102D313463A4621246546CF
:1002600076462F04360C3E432D0CB61A9D4104D31E
:10027000150C1B042B4312041034654676462F06DA
:10028000360A3E432D0AB61A9D4104D3150E1B02B1
:100290002B4312020834654676462F0736093E4343
:1002A0002D09B61A9D4104D3150F1B012B431201D2
:1002B000241D65467646AF07B6083E43AD08B61A1C
:1002C0009D4104D3950F9B002B439200A41C6546CF
:1002D0007646EF0776083E436D08B61A9D411AD35D
:1002E00092185B41641C16E0001876466546494149
:1002F000B71A9D410191009009D36046B11A984107
:100300008E468446009801990025401C6941DD070E
:1003100052082A435B08641EE6D57246634603B062
:10032000F0BDFFE72046284307D00020C043014628
:10033000C046C04622462B46F1E700200146F7E7BB
:1003400070B50C460546012A05D02878800600D5F0
:10035000EA69002302E0012305E05B1C934202D21C
:10036000E05C0028F9D1A869E618C01AA861286ADB
:10037000C01828622846C046C04604E06A68207853
:10038000A968641C9047B442F8D32846C046C046CA
:1003900070BDF8B5042A2CD3830712D00B78491C02
:1003A0000370401C521E83070BD00B78491C03704E
:1003B000401C521E830704D00B78491C0370401C5C
:1003C000521E8B079B0F05D0C91ADF002023DE1BAE
:1003D00008C90AE0FFF7E2FEF8BD1D4608C9FD4066
:1003E0001C46B4402C4310C0121F042AF5D2F30857
:1003F000C91A521EF0D40B78491C0370401C521EBF
:10040000EAD40B78491C0370401C012AE4D4097813
:100410000170F8BD01E004C0091F0429FBD28B075D
:1004200001D50280801CC90700D0027070470029E6
:100430000BD0C30702D00270401C491E022904D30E
:10044000830702D50280801C891EE3E70022EEE7C5
:100450000022DFE7002203098B4273D3030A8B4299
:1004600058D3030B8B423CD3030C8B4221D312E0B5
:1004700003460B437FD4002243088B4274D3030905
:100480008B425FD3030A8B4244D3030B8B4228D3A6
:10049000030C8B420DD30902FF2212BA030C8B42CC
:1004A00002D31212090265D0030B8B4219D300E06C
:1004B000090AC30B8B4201D3CB03C01A5241830BF1
:1004C0008B4201D38B03C01A5241430B8B4201D3A1
:1004D0004B03C01A5241030B8B4201D30B03C01ACA
:1004E0005241C30A8B4201D3CB02C01A5241830A44
:1004F0008B4201D38B02C01A5241430A8B4201D373
:100500004B02C01A5241030A8B4201D30B02C01A9C
:100510005241CDD2C3098B4201D3CB01C01A524103
:1005200083098B4201D38B01C01A524143098B428C
:1005300001D34B01C01A524103098B4201D30B0175
:10054000C01A5241C3088B4201D3CB00C01A52419A
:1005500083088B4201D38B00C01A524143088B425F
:1005600001D34B00C01A5241411A00D201465241F8
:10057000104670475DE0CA0F00D04942031000D317
:10058000404253409C46002203098B422DD3030A6C
:100590008B4212D38901FC2212BA030A8B420CD37C
:1005A000890192118B4208D3890192118B4204D3A5
:1005B00089013AD0921100E08909C3098B4201D325
:1005C000CB01C01A524183098B4201D38B01C01A5F
:1005D000524143098B4201D34B01C01A52410309D6
:1005E0008B4201D30B01C01A5241C3088B4201D385
:1005F000CB00C01A524183088B4201D38B00C01A32
:100600005241D9D243088B4201D34B00C01A524108
:10061000411A00D201465241104663465B1001D395
:100620004042002B00D54942704763465B1000D31F
:10063000404201B50449002802DC491C084000E0A2
:100640000846C046C04602BDFFFFFF7F70477047A7
:10065000704700000246C80FC00781434B0030B509
:100660004B405B009B0D20D01923DB06C9180123EA
:100670001B05994220DB0324A40704251346AB4045
:100680000BD3002B04D1EB0613409B00E34204D4B0
:1006900001246407002312195941FF231B059942C5
:1006A0000BD2C9000143500F09E0CB0204D501432E
:1006B0000803024305D0054830BDFF21C9050843A2
:1006C00030BD084607210905884330BD0000C07FC2
:1006D000F0B50C46871A9C410D46861A9D4103D2FF
:1006E000C01BA141D21963410D0D1F0DC94EEC1B5A
:1006F000AE435CD07F057F0D0026002F51D02D0525
:10070000AC46A943DD020123ED0A1B051D4320234E
:100710001B1B24D41746E740381871412F46E74089
:10072000CC199D402818314661410C0D27D16144F8
:100730009A4013D50023401C594152000ED1400865
:10074000400001224B005205D34207D30520400749
:10075000C14201D5B04900E0B0493046F0BD6B0060
:10076000002A00D001229A181F23203C1B1B01D510
:10077000002302E0E540281871410C0DD7D0012478
:1007800024050919C407CD0740084908E40F284388
:100790006144002CD5D00024401C61419A40D0D146
:1007A000CDE76A05520DD9D1C90FC907D5E79C4DD0
:1007B0004E00002801D0012400E0002434195F001D
:1007C000002A01D0012600E00026BE19954FAC4258
:1007D0000CD8AE420AD8B44206D001256D05EC42D1
:1007E000BCD010461946F0BD9942FCD000203946D5
:1007F000F0BDF0B51FB40C460F46811A9F41254647
:10080000861A9D4106D20125ED076F40401ABC4172
:1008100052187B41210D1E0D8D1BAC467D4D8D4325
:100820007ED075056D0D7CD00D05AE46AC431B0327
:100830001B0B794D52429D41202366469B1B14D3CE
:100840001746F740381800260090744160462F463E
:100850000741E41900989D402818664116D4714656
:1008600071189A4025D5012320E093182A466A4141
:100870005200002B00D0521C1E23203E9B1B002B3D
:1008800061DD3541EE1728186641E8D5001876413C
:100890005B1C9A4000D3401C4B05F3181524E34021
:1008A00010D3002B52D071467118D30FC01802D349
:1008B000491C05B0F0BD0123DB079A42F9D140087D
:1008C0004000F6E701225205B21801D1002853D0AA
:1008D0000123CC0ADB029943891E002A08D1020CAD
:1008E00003D0020C0004103902E002460020203937
:1008F0000023550B05D112020823550B01D15201DB
:100900000D23550C01D112011B1DD50C01D19200F4
:100910009B1C150D01D152005B1C2025EE1A01E035
:100920002CE022E00546F54015439840CA1AE1073D
:1009300069181305C918002ABBDA032040070818F4
:10094000C10FC9070FE071466118B2E7F10740080F
:100950000843711071444A000CD001235B059A4290
:10096000A7D2C90FC9070020A3E74905490D26D121
:10097000002001E00028F4D100219AE7284D66000C
:10098000002801D0012100E0002171185F00002A39
:1009900001D0012600E00026BE19224FA94210D83E
:1009A000AE420ED8B14208D001256D05E94206D00D
:1009B0001946A802414010467BE79C4201D02146DF
:1009C00077E70020394674E710B50C465C4005D542
:1009D0000124E4076340FFF70CFF10BDFFF778FE2A
:1009E00010BD30B40C465C4004D50124E4076340DC
:1009F00030BC6DE630BCFCE670B50124E407614014
:100A00000D465D4002D4FFF763FE70BD6340FFF703
:100A1000F0FE70BDFF0700000000F0FF0000F07F57
:100A20000000E0FF0000F87FF0B5F94D0C091E0949
:100A30002C402E402F468BB0A7437DD0B543FCD031
:100A4000002E7AD0002CFCD00D465D40ED0F2543E2
:100A5000AC1BFF25AD0464190894C502440DC902FE
:100A60002143500DDC0204430120C007014304432D
:100A7000D2020191200C110C00958C4601042346F2
:100A80008B430A9161460904E24D8A430991010AA8
:100A90007D4449198039097805464D4301266D1872
:100AA000F605751B6943C90C640B891C4C4364181B
:100AB000B5012C1B250C2E04B4434C434D43210C93
:100AC000691889090591009DE90701D00121C9072D
:100AD00004912C4601996708CD072F434C08059DCA
:100AE000E10B4D432D0C29466646754302950D4694
:100AF00045432E46029D7D1BB44100950D465D4346
:100B000001942C0C2F040D465543AE462D0C3D434D
:100B1000029503947546049C2D04641B049406D22C
:100B2000029C039D641C002675410395029401AC50
:100B300070CC009F7D1B01E03EE162E1B4410904FD
:100B40000095079101940599A4086143090C0C468E
:100B50004443650BE7040C4666467443A646640BA3
:100B60003C43039502947446049DE4042C1B0494B6
:100B700006D2029C039D641C0026754103950294D5
:100B800001AC70CC009F7D1BB44101940C465C43CA
:100B90000095650FE7000C465443A646640F3C439E
:100BA000039502947446049DE4002C1B049406D221
:100BB000029C039D641C002675410395029401ACC0
:100BC00070CC009F7D1BB441AE09AF06049DC900E7
:100BD000AD092F43049DA406AD060495079D34433B
:100BE00069180791059DE10B4D432D0C294666467A
:100BF000754302950D4645432E46029D7D1BB4412B
:100C000000950D465D4301942C0C2F040D46554371
:100C1000AE462D0C3D43029503947546049C2D046D
:100C2000641B049406D2029C039D641C002675413B
:100C30000395029401AC70CC009F7D1BB4410194DC
:100C40008C050694079C890A611800950791019C00
:100C50000599A4086143090C0D464543680BEF0450
:100C60000D46644665436C0B3C43049FED047D1BBD
:100C7000AC4602D20025641C6841009E019D371BD2
:100C800085410846584301950C46460FC50054431C
:100C9000600F28436546E4002C1B02D20025401C4F
:100CA0006E41019D3F1AB5412846BD098006284383
:100CB0008446A009BF064E020699A406761807438B
:100CC000079D002068410A99079019430020099B5D
:100CD00000906046FF1913434041E20F64003A431D
:100CE000A4460446D71A8C41A04203D901200090A3
:100CF00020463A46C70F941840416246D20F22431D
:100D0000644664000494009CBE466400D71AA4465E
:100D1000044602978C417746002F01D1A04204D9A6
:100D20006046401C8446029A2046C40FA64694188A
:100D30004041049A0546D20F224364466400D31A08
:100D40008D417146002901D1A84202D928461A4690
:100D5000641C10430122002800D0164361020020C9
:100D6000079B891904465C410223002C02DB4918C9
:100D700013466441089DCE0A2D145D194B05670585
:100D8000E10A2C050D1908993E43C9076940002B5B
:100D900008D0934006D30022761C5141002B01D18C
:100DA000760876001C4A002D43DB154241D0AA4349
:100DB0003FD030460BB0F0BD06180D464D41174CE4
:100DC0007642AC411AD395181C465C41134A6D42D9
:100DD000A24113D3012252054C00D4420AD15C0037
:100DE000D4420BD04B4002D592021143E2E74900B6
:100DF0004908DFE75940C90FC90718E00020084932
:100E0000D8E7054801420DD10342F7D0F2E70000D0
:100E10000000FF07F07A00000000F07F0000E0FF14
:100E20000000F87F114859400143C01241400020A2
:100E3000C0E70123089A9B069A4205DC0322520769
:100E40008918C90FC907B5E7052252078918074A4B
:100E50001143D2125140ADE770B515461C4602460B
:100E60000B4628462146FFF7DFFD70BDFFFFFF7FE1
:100E70000346CA02400D10B510430A1504D00124E0
:100E8000E4072043002A05DB0A4CA21A04D4D04010
:100E9000FF2A00DD002010BD4A00002B01D00120F8
:100EA00000E00020101801225205D042F2D8C817E5
:100EB000C04310BD1E0400001F22030C02D10F22EC
:100EC000000402D0030E03D004E000200146704766
:100ED0000002083A030F01D10001121F830F01D154
:100EE0008000921E002801DB4000521E120551189E
:100EF0004205C012411810467047C10FC90700D003
:100F00004042012292071143D6E701218907D3E726
:100F1000F0B58B4C0F09254689B0BD437BD01D0928
:100F20002646AE43FAD00E465E402740F60F3E43BB
:100F3000254071D024012142FBD0FF24AD19A40427
:100F40002D1B039501252D05DB02DB0AC9022B436E
:100F5000C90A29431E010901040F130F050121438A
:100F60001701880B820391432D098C46A90B1E4360
:100F70008A039543B30B9A0396433F09BA0B940334
:100F8000A74302962E467E430497B6464E19D719BC
:100F90000C460196544305977E43371B7646BF1B8C
:100FA0003601B646BE0B361900967646BC04371994
:100FB000009C01D3641C00946400002F01D0012622
:100FC0003443029E049F754366467E430496760032
:100FD00034196E0034190094029C019E1C1966435A
:100FE000751BAE46069465464519059C05956C43F0
:100FF000594375460891691A0191049E014651436F
:10100000A41B0491611A009C0791E10605D06109B7
:101010000122114302E072E06EE06109089D0027A1
:101020002C0A2D066918049D7C412A0A2D06691890
:10103000019D6241AC0DAD026D185441079A910DAE
:10104000920255196141029A644658435443069BE3
:10105000059A5A43121A131B9A0E9B015B187A4188
:10106000010B0005C3185141220A200644195A41B8
:101070009A4200D2491C01204002814203D3152329
:101080000226F64302E014230326F6432020C51A65
:10109000A9401746AF40DA400A4320460399D8409A
:1010A0000914731819055118039A3843D20751408F
:1010B000AC4009D00122944006D30022401C51418B
:1010C000002C01D1400840001E4A934212D3012255
:1010D00003989206904207DB0520400709181A483A
:1010E0000143C012414004E0032040070818C10F2B
:1010F000C907002009B0F0BD0020F107FAE7051884
:101100000C464C4111486D42A04115D394181A4623
:101110005A410E48644290410ED301204A004005D6
:10112000824209D35A00824206D35940C90F084A65
:10113000C90700201143DDE700200649DAE7000077
:101140000000FF07FE070000FFFFFF7F0000E0FF39
:101150000000F07F0000F87F0121C905012341183C
:1011600042001B06D3185B0E0AD0C1100722D2061C
:10117000891840075242D14201D552008918704760
:10118000090208D50146002A03D0C10FC907002073
:10119000704710467047420202D000200249704753
:1011A000072109050143F4E70000F87FF0B5FF25AA
:1011B0002D04C609C209FF2704462E400137CB097A
:1011C0003E4348402A402B400746002A6BD0002B64
:1011D00069D0AA4267D0AB4265D0002800DA324617
:1011E0000125ED0529432C4309022002090AD21AE0
:1011F0004B0C7F24E31A434C000A7C44E35C7D24BF
:101200002404121914145B00A218884201D3521C42
:1012100000E0400049420C465C4324115C43DB0182
:101220006415E318040A5C43C502200D0C464443D0
:101230006419250A5D432303EC0C0D466543000346
:101240000019EB184C42A34201D35B18401CD40593
:101250002018002B07D05B00C91804D3401C0029BC
:1012600001D1400840003F2189048A4209D3002A65
:1012700008DC1106090F04D0032149074018C00FEC
:10128000C007F0BD01224100120689187F225206D4
:101290009142F6D205214907C84201D59010F0BD10
:1012A000FF20C005F0BD002F00DA32461648AA42E2
:1012B00007D2AB4205D21902090E17D0F80FC007AA
:1012C000F0BDFF2563002D06AB42F9D84900A942C5
:1012D000F6D8AB4201D1A942F2D0A94201D10021F6
:1012E00001E061004908D0050843F0BD1102090E74
:1012F000FBD0FF200243D005F0BD0A460146104650
:1013000054E70000067400000000C07F1F22030C99
:1013100002D10F2200041CD0030E01D10002083AB2
:10132000030F01D10001121F830F01D18000921E13
:10133000002801DB4000521ED2055118021251183C
:101340001922904004D3491C002801D149084900C2
:1013500008467047C10FC90700D0404201229207DA
:101360001143D3E701218907D0E710B54369002B6A
:1013700002D0C046C04601E0FEF7E2FF012010BDEA
:101380001278014624310A7000224A700122ECE7EB
:1013900011680022D243E8E7F8B5264C4E00069DBE
:1013A000A6420AD8A64201D1002806D15E00A64274
:1013B00003D8A6420AD1002A08D00D2424042542CD
:1013C00033D02946002000F094F8F8BD0C461C43A9
:1013D00011D4994207D0C81A02D3EFF30080F8BDA8
:1013E000EFF30080F8BD801A02D3EFF30080F8BD60
:1013F000EFF30080F8BD09242407E5008B4207D0F5
:10140000581A02D3EFF3008006E0EFF3008007E004
:10141000101A03D3EFF30080A04303E0EFF3008042
:10142000A043284380F30088F8BD009500F078F8C9
:10143000F8BD00000000E0FF10B5FF231B064400CC
:101440009C421DD84C009C421AD80346124A0B43BA
:1014500007D4401A02D3EFF3008010BDEFF30080F1
:1014600010BD081A03D3EFF30080904305E0EFF3BB
:10147000008001219043C907084380F3008810BD14
:101480000D231B041A4204D01146002000F031F84D
:1014900010BD00F04FF810BD0000009000487047EC
:1014A000300020207546FFF7F9FFAE46050069467B
:1014B0005346C008C000854618B020B5FEF792FE1E
:1014C00060BCB64600260027C0C5C0C5C0C5C0C5A3
:1014D000C0C5C0C5C0C5C0C5403D490849008D460E
:1014E000704710B50446C046C0462046FEF74FFE82
:1014F00010BDC80212D54803400F002804D0C8030D
:10150000C043012188407047EFF3008000010009CB
:1015100003210907084380F30088704700207047C3
:1015200010B500200249029A00F00CF810BD00002E
:101530000000F87F10B5024800F004F810BD00006C
:101540000000C07F10B50C461107090F092904D00F
:101550000A290AD008290CD104E011460820FFF717
:10156000C8FF06E0510606D501E0510601D501206D
:10157000C007214610BDD10607D501010909CC08D5
:101580004907000E0006044309E0410F2002490705
:10159000000A0143200E00061D22D14101430846E6
:1015A000E7E7000010B5BB4C21780220002913D0DA
:1015B000B549097801290FD1B2482021022203F050
:1015C00033FC0146022803D00320002903D003E0A6
:1015D0000620002900D108463421605410BDC046C1
:1015E00080B582B06B46598018800120C003988076
:1015F0001846114600F002F802B080BD70B582B006
:1016000022222C4DAA5C002A18D0002919D00C46A1
:1016100000262E8400F096FA002815D0072818D04E
:10162000002805D101200103124801AA00F0D4F9D5
:10163000002811D10198288430460DE0022002B024
:1016400070BD012002B070BD204601F02BFC0728C0
:10165000E6D1FFF7A7FF0720291D0446084600F042
:1016600037F820462C7002B070BDC0461148704754
:1016700000487047CD01202070B50E4C2421204633
:10168000FEF7E6FE0C4800210C4A0D4B0D4D0E4EA8
:1016900042C0026045608360C26001610121017443
:1016A0000A4800F0F9F8414241412222A154207039
:1016B00070BDC0461C012020400120200000A0C0B9
:1016C0000000203D00C09E4000007F430800202015
:1016D000F0B587B0BA4E317800290BD000280BD076
:1016E0000746B94803F09CF8002807D0022815D017
:1016F0000320ACE00220AAE00120A8E0B148007875
:10170000022501284CD1B048212106AA03F0FEF899
:10171000022805D00324002843D104E0062096E0E7
:10172000062400283DD1A7480078012838D1A648D2
:10173000272105AA03F0EAF8022801D0032400E0DB
:10174000062400282DD1FD480078012828D1FA4828
:10175000282104AA03F0DAF8022801D0032400E0CB
:10176000062400281DD1F5480078012818D1F24838
:101770002C2103AA03F0CAF8022801D0032400E0B8
:10178000062400280DD1ED480078012808D1EA4848
:101790002D2102AA03F0BAF802285DD003245CE0F0
:1017A0002C46E54803F062F821460143090642D180
:1017B0000398F880049A0298FA603861019A3A72A4
:1017C00006AA1278012313403B7005AB1B882F4CEF
:1017D0001C407C81D306DB0F7B711307DB0FFB7092
:1017E0005307DB0FBB709307DB0F7B709206D20FA2
:1017F0003A71FFF7B7FD05462046FFF7B3FD0146F6
:101800002846FFF7D3FC002C00D120467861F06811
:10181000FFF7A8FD0446708AFFF7A4FD01462046A5
:10182000FFF7C4FCB861304618300ECF0EC01ECF93
:101830001EC000200BE0C1B2022901D0032000E04D
:101840000620002900D10846210600D02046342178
:101850007054C0B207B0F0BD06240028A1D1B7482B
:10186000007801282C469CD1B3482E2101AA03F010
:101870004DF8022801D0032400E00624002890D16E
:1018800004468EE794012020CC012020FF1F000099
:10189000FD4870475C012020F0B585B00546FA4C44
:1018A00038212046FEF7D4FD80206075412080025B
:1018B0002061FB4800270770002D0ED001AE304696
:1018C00002F0E6FF0195F248314602F0EFFF0028F2
:1018D00005D0022817D0032068E0012066E001252A
:1018E000EF4E3570221DEA482A2103F00FF8014619
:1018F0006068364A42400A4307D002291FD00320BD
:10190000002952D052E0062050E03078022601280B
:1019100046D122460832DE482B2102F0F7FFA168AB
:101920002B4A891A4A1E914102062A4600D10A46CC
:10193000012A08D1C1B2022934D0032033E00620A5
:10194000002933D131E0D6480078012828D1224639
:101950000C32CF48292102F0D9FFE1681D4A891ACB
:101960004A1E9141020600D10D46012DE2D004F03D
:10197000B3F80546CA480078012811D121216A46EA
:10198000C34802F0C3FF0028A3D168460078C0070F
:1019900010D104F0A1F8411B05206429EAD305E029
:1019A000304603E00620002900D104203421605491
:1019B00005B0F0BD0120207620703846F6E7C0461D
:1019C0005C012020CC01202094012020018092ADD8
:1019D000010001000048E801F0B58BB00446AA4FB1
:1019E000387800281ED00120002C1CD0002A1AD0E4
:1019F0000E460025158004A80292FFF769FE002814
:101A000011D104A9887842424241488980B24342B8
:101A1000434113434978C9B24A1E9141194306D044
:101A2000082000E00220342178540BB0F0BD86423B
:101A300001D20120F7E7964802F0F2FE002803D019
:101A4000022813D00320EEE79548007802260128EB
:101A500057D100968E4825210022019203F0E4F927
:101A600045424541022803D0032602E00620DAE77A
:101A70000626002800D1064604A94989002940D03D
:101A800000283ED10125019E85480078012830D1EB
:101A9000262103AA7E4802F039FF00282BD10398A3
:101AA000010A274A11408E4219D07D48007801284A
:101AB0001FD125217648324603F0B6F900281AD105
:101AC00077480078012814D1262103AA704802F033
:101AD0001DFF00280FD10398010A194A11408E42B8
:101AE0000BD1A055761C04A840898642CCD3002691
:101AF00007E0009E04E0022801D0032600E006264D
:101B0000019D634802F0B2FE0146022801D0032085
:101B100000E00620029A002900D1084601231D405A
:101B200000D13046002D00D17DE7002900D07AE7B2
:101B300004A94989118076E794012020CC01202056
:101B4000FF0F0000F0B589B001464F4D28780028FE
:101B50001FD0012000291DD00A884C4BD21892B208
:101B6000120B0F2A16D34A88002A13D00A79032AA7
:101B700010D802A80E46FFF7ABFD00280AD102A834
:101B8000007800280BD002A84078002809D0062051
:101B900000E0022034216854C0B209B0F0BD052035
:101BA000F8E7B7883A4802F03BFE002803D0022845
:101BB000EDD00320EEE731882220364A01F0A6F965
:101BC000002821D171882320334A01F09FF9002891
:101BD0001AD179BA2420314A01F098F9002813D19A
:101BE0002F480078012808D129482021012203F03C
:101BF0001BF9022803D0032102E0022004E00621A1
:101C0000002800D1014608460190C4B267426741EE
:101C10001F4802F02BFE014642424241022801D0F9
:101C2000032000E00620002900D108461740002CC0
:101C300000D00198012FADD131887288B38800247B
:101C4000AC61EC612C626C62AC62EC622C63AB82C6
:101C50006A822982FF210231298331794A1E91410A
:101C60002977E968374606460846FFF77BFB0446B6
:101C70007888FFF777FB01462046FFF797FA014681
:101C80003046296386E7C0465C012020FFEFFFFF56
:101C900094012020FF1F0000FFFF0000FF03000051
:101CA000CC012020F0B589B0FFF7E0FC2221405C98
:101CB000002807D0CB4819300121C822FFF790FC3B
:101CC000054604E000F0BCFE05460028F2D0C64CF4
:101CD0005B21204602F098FD41262046314602F065
:101CE00093FD4421204602F08FFD3921204602F069
:101CF0008BFD3221204602F087FD3821204602F07C
:101D000083FD30212046059102F07EFD5D212046B5
:101D100002F07AFD20272046394602F075FD432166
:101D2000204602F071FD2046314602F06DFD502143
:101D3000204602F069FD5421204602F065FD552140
:101D4000204602F061FD5221204602F05DFD452152
:101D5000204602F059FD2046394602F055FD082D77
:101D600003D8A800A149095800E0A1490878002833
:101D70009D4F09D04C1CC1B2384602F045FD611C94
:101D8000207800280C46F6D10D21384602F03CFDA3
:101D90000A243846214602F037FD002D01D009B053
:101DA000F0BD0394FFF762FC0646FFF761FC00906C
:101DB000318C002907D0706964224243480810180A
:101DC00006F0FEF900E000200290059C039D5B21D7
:101DD000384602F019FD4121384602F015FD442134
:101DE000384602F011FD3921384602F00DFD32214E
:101DF000384602F009FD3821384602F005FD384624
:101E0000214602F001FD5D21384602F0FDFC202153
:101E1000384602F0F9FC4321384602F0F5FC4F2128
:101E2000384602F0F1FC5521384602F0EDFC4E2117
:101E3000384602F0E9FC5421384602F0E5FC3D2129
:101E4000384602F0E1FC308C81B26A4A4A43D20C37
:101E500029465143411A214306AB19700A282FD352
:101E600065490B4653431B0C6B43D21A224306AB06
:101E70005A70642826D38208604B53435A0C0B4691
:101E800053431B0C6B43D21A224306AB9A70C20811
:101E90007D2A19D35A4B53431A0D5143090C6943F8
:101EA000511A214306AAD170564988420ED300091F
:101EB00055494143C80C303006A90871052506E094
:101EC000012504E0022502E0032500E004256C1E44
:101ED00006A8015D384602F097FC002C49D0AC1EE4
:101EE00006A8015D384602F08FFC002C41D0EC1EA4
:101EF00006A8015D384602F087FC002C39D02C1F63
:101F000006A8015D384602F07FFC002C31D06C1F22
:101F100006A8015D384602F077FC002C29D0AC1FE2
:101F200006A8015D384602F06FFC002C21D0EC1FA2
:101F300006A8015D384602F067FC002C19D0072086
:101F4000C0432C1806A8015D384602F05DFC002C49
:101F50000FD02C46093C06A8015D384602F054FC1F
:101F6000002C06D006A828180A380178384602F056
:101F70004BFC2021384602F047FC4D21384602F048
:101F800043FC4921384602F03FFC4E21384602F01E
:101F90003BFC3D21384602F037FCB07AC1B2CD257A
:101FA0006943C90A039F3A464A43821A059C224361
:101FB00006AB1A700A28049611D31A224A43120A51
:101FC0007A43891A214306AA517064281ED3292115
:101FD0004143080B303006A98870032617E001261C
:101FE00015E0C046E7030000008010404486000072
:101FF000C5880000CDCC00009A1900007B140000B9
:10200000C520000010270000470300000226741EB0
:1020100006A8015DF24F384602F0F6FB002C4BD0CB
:10202000B41E06A8015D384602F0EEFB002C43D03A
:10203000F41E06A8015D384602F0E6FB002C3BD0FA
:102040000320C043341806A8015D384602F0DCFBCB
:10205000002C31D0741F06A8015D384602F0D4FB75
:10206000002C29D0B41F06A8015D384602F0CCFB35
:10207000002C21D0F41F06A8015D384602F0C4FBF5
:10208000002C19D00720C043341806A8015D38463B
:1020900002F0BAFB002C0FD03446093C06A8015DC3
:1020A000384602F0B1FB002C06D006A830180A38DA
:1020B0000178384602F0A8FB2021384602F0A4FB44
:1020C0004D21384602F0A0FB4121384602F09CFB2E
:1020D0005821384602F098FB3D21384602F094FB27
:1020E0000498C07AC1B24D43E90A039D2A464A4387
:1020F000821A059C224306AB1A700A2812D31A22B0
:102100004A43120A5543491B214306AA51706428C9
:10211000029E0AD329214143080B303006A988705A
:10212000032503E00125029E00E002256C1E06A89F
:10213000015D384602F068FB002C4BD0AC1E06A8AF
:10214000015D384602F060FB002C43D0EC1E06A86F
:10215000015D384602F058FB002C3BD00320C04301
:102160002C1806A8015D384602F04EFB002C31D039
:102170006C1F06A8015D384602F046FB002C29D0F2
:10218000AC1F06A8015D384602F03EFB002C21D0B2
:10219000EC1F06A8015D384602F036FB002C19D072
:1021A0000720C0432C1806A8015D384602F02CFB1E
:1021B000002C0FD02C46093C06A8015D384602F0E1
:1021C00023FB002C06D006A828180A3801783846C8
:1021D00002F01AFB2021384602F016FB4D2138464A
:1021E00002F012FB4521384602F00EFB4121384631
:1021F00002F00AFB4E21384602F006FB3D2138462C
:1022000002F002FB64253046294605F0D9FF074657
:102210000A210391FEF71EF9059C214306A80170CF
:10222000F0087D28019757D37D20C100304605F086
:10223000C7FF0A21FEF70EF9214306A8417069483D
:1022400086424BD96849304605F0BAFF0A21FEF7AD
:1022500001F9214306A881706448864240D9644947
:10226000304605F0ADFF0A21FEF7F4F8214306A839
:10227000C1706048864235D95F49304605F0A0FFFD
:102280000A21FEF7E7F8214306A801715B48864260
:102290002AD95B49304605F093FF0A21FEF7DAF8A8
:1022A000214306A84171574886421FD956493046F6
:1022B00005F086FF0A21FEF7CDF8214306A88171BB
:1022C0005248864214D95249304605F079FF2043DE
:1022D00006A9C87108270CE001270AE0022708E0D8
:1022E000032706E0042704E0052702E0062700E0B4
:1022F00007277C1E06A8015D394E304602F084FA9D
:10230000002C48D0BC1E06A8015D304602F07CFAC5
:10231000002C40D0FC1E06A8015D304602F074FA85
:10232000002C38D03C1F06A8015D304602F06CFA44
:10233000002C30D07C1F06A8015D304602F064FA04
:10234000002C28D0BC1F06A8015D304602F05CFAC4
:10235000002C20D0FC1F06A8015D304602F054FA84
:10236000002C18D03C46083C06A8015D304602F01F
:102370004BFA002C0FD03C46093C06A8015D3046C4
:1023800002F042FA002C06D006A838180A38017864
:10239000304602F039FA2E21304602F035FA019823
:1023A00045430298451B092D3746059C03D830212B
:1023B000384602F029FA2846039E314605F000FF10
:1023C0004643A91B214306AA11700A2D049E21D35E
:1023D0000A21FEF73FF8214306A8417002251AE0C2
:1023E000008010400F270000102700009F8601008A
:1023F000A08601003F420F0040420F007F969800E8
:1024000080969800FFE0F50500E1F505FFC99A3BCD
:1024100000CA9A3B01256C1E06A8015D384602F0F1
:10242000F3F9002C4BD0AC1E06A8015D384602F033
:10243000EBF9002C43D0EC1E06A8015D384602F0F3
:10244000E3F9002C3BD00320C0432C1806A8015D03
:10245000384602F0D9F9002C31D06C1F06A8015D76
:10246000384602F0D1F9002C29D0AC1F06A8015D36
:10247000384602F0C9F9002C21D0EC1F06A8015DF6
:10248000384602F0C1F9002C19D00720C0432C189F
:1024900006A8015D384602F0B7F9002C0FD02C4693
:1024A000093C06A8015D384602F0AEF9002C06D0C2
:1024B00006A828180A380178384602F0A5F9202124
:1024C000384602F0A1F95321384602F09DF9552112
:1024D000384602F099F94D21384602F095F93D2130
:1024E000384602F091F975692846039C214605F0AB
:1024F00067FE4443291B059C214306AA11700A2D3F
:102500006CD30A21FDF7A6FF214306A84170642D74
:1025100066D36421284605F053FE0A21FDF79AFF91
:10252000214306A88170AF4885425BD97D20C10058
:10253000284605F045FE0A21FDF78CFF214306A839
:10254000C170A94885424FD9A849284605F038FEF0
:102550000A21FDF77FFF214306A80171A4488542A7
:1025600044D9A449284605F02BFE0A21FDF772FF45
:10257000214306A84171A048854239D99F49284680
:1025800005F01EFE0A21FDF765FF214306A88171B3
:102590009B4885422ED99B49284605F011FE0A2109
:1025A000FDF758FF214306A8C1719748854223D9FA
:1025B0009649284605F004FE0A263146FDF74AFFF3
:1025C000214306A801729248854217D991492846AD
:1025D00005F0F6FD204306A9487210E001260EE042
:1025E00002260CE003260AE0042608E0052606E0A1
:1025F000062604E0072602E0082600E00926741EED
:1026000006A8015D844F384602F0FEF8002C48D041
:10261000B41E06A8015D384602F0F6F8002C40D042
:10262000F41E06A8015D384602F0EEF8002C38D002
:10263000341F06A8015D384602F0E6F8002C30D0C1
:10264000741F06A8015D384602F0DEF8002C28D081
:10265000B41F06A8015D384602F0D6F8002C20D041
:10266000F41F06A8015D384602F0CEF8002C18D001
:102670003446083C06A8015D384602F0C5F8002C37
:102680000FD03446093C06A8015D384602F0BCF87C
:10269000002C06D006A830180A380178384602F017
:1026A000B3F82021384602F0AFF84F21384602F047
:1026B000ABF85421384602F0A7F85221384602F010
:1026C000A3F83D21384602F09FF804980569284692
:1026D000039C214605F074FD4443291B059C2143BE
:1026E00006AA11700A2D6CD30A21FDF7B3FE21430F
:1026F00006A84170642D66D36421284605F060FD6C
:102700000A21FDF7A7FE214306A88170BE48854235
:102710005BD97D20C100284605F052FD0A21FDF756
:1027200099FE214306A8C170BA4885424FD9B849DD
:10273000284605F045FD0A21FDF78CFE214306A839
:102740000171B548854244D9B449284605F038FDA1
:102750000A21FDF77FFE214306A84171B04885425A
:1027600039D9B049284605F02BFD0A21FDF772FE44
:10277000214306A88171AC4885422ED9AB49284631
:1027800005F01EFD0A21FDF765FE214306A8C17173
:10279000A748854223D9A749284605F011FD0A26F6
:1027A0003146FDF757FE214306A80172A248854233
:1027B00034D9A249284605F003FD204306A94872F2
:1027C0002DE001262BE0022629E0032627E004263F
:1027D00025E0052623E0062621E007261FE008263F
:1027E0001DE0C046E70300000F270000102700008F
:1027F0009F860100A08601003F420F0040420F006B
:102800007F96980080969800FFE0F50500E1F505B9
:10281000FFC99A3B00CA9A3B008010400926741EEB
:1028200006A8015D384601F0EFFF002C48D0B41E29
:1028300006A8015D384601F0E7FF002C40D0F41EE9
:1028400006A8015D384601F0DFFF002C38D0341FA8
:1028500006A8015D384601F0D7FF002C30D0741F68
:1028600006A8015D384601F0CFFF002C28D0B41F28
:1028700006A8015D384601F0C7FF002C20D0F41FE8
:1028800006A8015D384601F0BFFF002C18D0344681
:10289000083C06A8015D384601F0B6FF002C0FD0B9
:1028A0003446093C06A8015D384601F0ADFF002C16
:1028B00006D006A830180A380178384601F0A4FF7F
:1028C0000D21384601F0A0FF0A21384601F09CFF97
:1028D0005B21384601F098FF4121384601F094FF12
:1028E0004421384601F090FF3921384601F08CFF31
:1028F0003221384601F088FF3821384601F084FF44
:102900003021384601F080FF5D21384601F07CFF20
:1029100020253846294601F077FF4621384601F048
:1029200073FF4921384601F06FFF5221384601F00C
:102930006BFF5321384601F067FF5421384601F000
:1029400063FF5F21384601F05FFF4821384601F000
:102950005BFF4521384601F057FF5821384601F00A
:1029600053FF3D21384601F04FFF0498048C002CA2
:102970001ED00098067870093109052801D3373137
:1029800000E03031214801F03FFF0F200590064064
:102990000A2E01D3373600E030361C48314601F0AC
:1029A00033FF202C204600D32846012C174F09D195
:1029B0000D21384601F028FF0A21384601F024FF96
:1029C00009B0F0BD00994E1C441E08E037350F4F8A
:1029D0003846294601F018FF761C641EE8D02C21E9
:1029E000384601F011FF357868092909052801D317
:1029F000373100E03031054801F006FF0598054009
:102A00000A2DE3D23035E2E7E703000000801040F2
:102A1000102700000F2700009F860100A0860100FC
:102A20003F420F0040420F007F969800809698002A
:102A3000FFE0F50500E1F505FFC99A3B00CA9A3BA6
:102A4000F0B589B0FEF718FE0446FEF721FF0590A9
:102A5000D94D5B21284601F0D7FE4121284601F0DF
:102A6000D3FE4421284601F0CFFE3921284601F04B
:102A7000CBFE3221284601F0C7FE3821284601F05E
:102A8000C3FE30272846394601F0BEFE5D212846A8
:102A900001F0BAFE2021284601F0B6FE082C03946E
:102AA00003D8A000F849095800E0F6490878002842
:102AB00009D04C1CC1B2284601F0A6FE611C20784A
:102AC00000280C46F6D120210191284601F09CFEF9
:102AD0004921284601F098FE4421284601F094FE41
:102AE0003D2428462146029401F08EFE28463946B0
:102AF00001F08AFE049778262846314601F084FECC
:102B00000598406803F0F4FB2846019F394601F020
:102B10007BFE4621284601F077FE5721284601F02A
:102B200073FE2846214601F06FFE2846049901F005
:102B30006BFE2846314601F067FE059CA06803F055
:102B4000D7FB2846394601F05FFE4321284601F0B5
:102B50005BFE4C21284601F057FE4B21284601F030
:102B600053FE2846049D029901F04EFEE6680A24B1
:102B70003046214605F024FB21464143711A294382
:102B800006AA11700A2E02946CD30A21FDF762FC8A
:102B9000294306A84170642E66D36421304605F0AF
:102BA0000FFB0A21FDF756FC294306A88170F008A7
:102BB0007D285BD37D20C100304605F001FB0A2152
:102BC000FDF748FC294306A8C170B04886424FD3A0
:102BD000AE49304605F0F4FA0A21FDF73BFC2943E3
:102BE00006A80171AA48864244D3A949304605F097
:102BF000E7FA0A21FDF72EFC294306A84171A548F2
:102C0000864239D3A349304605F0DAFA0A21FDF7A6
:102C100021FC294306A881719F4886422ED39E49F4
:102C2000304605F0CDFA0A21FDF714FC294306A829
:102C3000C1719A48864223D39849304605F0C0FABC
:102C40000A242146FDF706FC294306A80172944890
:102C5000864217D39249304605F0B2FA284306A9B6
:102C6000487210E001240EE002240CE003240AE084
:102C7000042408E0052406E0062404E0072402E01A
:102C8000082400E00924661E06A8815D7C4F3846B2
:102C900001F0BAFD002E48D0A61E06A8815D384678
:102CA00001F0B2FD002E40D0E61E06A8815D384638
:102CB00001F0AAFD002E38D0261F06A8815D3846F7
:102CC00001F0A2FD002E30D0661F06A8815D3846B7
:102CD00001F09AFD002E28D0A61F06A8815D384677
:102CE00001F092FD002E20D0E61F06A8815D384637
:102CF00001F08AFD002E18D02646083E06A8815D08
:102D0000384601F081FD002E0FD02646093E06A868
:102D1000815D384601F078FD002E06D006A8201807
:102D20000A380178384601F06FFD4821384601F035
:102D30006BFD7A21384601F067FD2021384601F00D
:102D400063FD5221384601F05FFD4521384601F010
:102D50005BFD4121384601F057FD4421384601F022
:102D600053FD5921384601F04FFD3D21384601F011
:102D70004BFD0598007EC1B2CD224A43D10A029C88
:102D800022464A43821A2A4306AB1A700A2811D3F4
:102D90001A224A43120A5443091B294306AA5170B6
:102DA00064280BD329214143080B303006A98870D1
:102DB000032404E0012402E0008010400224304D8E
:102DC000661E06A8815D284601F01EFD002E4BD030
:102DD000A61E06A8815D284601F016FD002E43D0F0
:102DE000E61E06A8815D284601F00EFD002E3BD0B0
:102DF0000320C043261806A8815D284601F004FD83
:102E0000002E31D0661F06A8815D284601F0FCFC2B
:102E1000002E29D0A61F06A8815D284601F0F4FCEB
:102E2000002E21D0E61F06A8815D284601F0ECFCAB
:102E3000002E19D00720C043261806A8815D284619
:102E400001F0E2FC002E0FD02646093E06A8815D67
:102E5000284601F0D9FC002E06D006A820180A3812
:102E60000178284601F0D0FC0D21284601F0CCFC69
:102E70000A21284601F0C8FC039809B0F0BDC046FD
:102E800000801040C5880000448600001027000024
:102E9000A086010040420F008096980000E1F505F1
:102EA00000CA9A3B70B588B00446174E30780028A7
:102EB0001CD0002C1CD002F00FFE054601A8FEF726
:102EC00007FC00281BD101A80078002812D001A817
:102ED0008078002810D101A8407800280ED002F098
:102EE000FBFD401BA042E9D3072008E0022006E0DA
:102EF000012004E0052002E0002000E00820342149
:102F0000705408B070BDC0465C012020F0B583B09D
:102F10000546194E3078022701280CD10C46019243
:102F200016482946224601F07FFF022805D00321DA
:102F300000281DD104E039461AE00621002817D1E7
:102F400030780128394613D10C4802AA294601F0ED
:102F5000DDFC022803D00321002809D102E006216C
:102F6000002805D1029961400198014000D0032159
:102F7000C8B203B0F0BDC046CC012020940120208F
:102F800080B500F029F880BD80B5024800F026F831
:102F900080BDC0460800202080B500F035FB80BD14
:102FA00010B582B0044600201202009201900B027C
:102FB00003482021224600F093F802B010BDC0461D
:102FC000A886000080B500F0D9FE002800D080BDA2
:102FD000002000F09FFD80BD74487047F0B585B0BB
:102FE0000546724E44213046FDF732FA0120B07496
:102FF000002777748102F1818021F1723249318199
:10300000324C2770002D0ED001AE304601F040FC4E
:1030100001952F48314601F049FC002807D00128CE
:1030200000D00320614E4021705405B0F0BD012551
:10303000257027480A216A4601F068FC002804D060
:1030400001285A4EEFD00320EDE70099574EB163A7
:103050000420204A9142E6D104461D4814216A46C4
:1030600001F054FC002802D00128DCD0EBE70098E6
:10307000F063194988422046D5D1F54809216A46AE
:1030800001F044FC01461548009A101A421E904176
:10309000002900D10546012D03D101290ED1084692
:1030A0000DE0642001F03CFA0028BCD10120307012
:1030B00000F0D2FB0028B6D03770B4E70320002917
:1030C000B1D10420AFE7C046808000004C12202020
:1030D00014122020020897AD030002004059730724
:1030E000F0B587B01446D94A1278002A46D0012597
:1030F000002844D004AA0BC20021204605F07CF928
:1031000000283CD1CB49204605F06BF9002836D188
:1031100002942046FEF720F80027C74B3A46FDF7F9
:10312000F7FEC64B3A46FDF77FFC06460C46C44AFE
:10313000C44B05F040F90390C34B304621463A4654
:10314000FDF742FCFDF794FE0399002901D1002808
:1031500015D00125E9030698884210D8411E89B28E
:103160007F290CD30C9C00280CD0844207D3012566
:1031700029040698081AA04201D306E00225284631
:1031800007B0F0BDAA488442F9D20498059900F02E
:1031900061F905460028F2D10D98009001200299AE
:1031A000069A234600F004F80546E8E7D0112020EF
:1031B000F0B587B004460120C503AA424BD8551E7E
:1031C000ADB27F2D47D3002A07D0934243D30120CD
:1031D0000504AD1A9D4203D23DE0954DAB423AD273
:1031E0000025059408460C4629460493039205F0F1
:1031F00003F905468F49204605F0F3F828430122DC
:103200000028104627D102922046FDF7A5FF002492
:10321000894B2246FDF77CFE884B2246FDF704FCD5
:1032200006460F46864A874B05F0C5F80546864B8D
:10323000304639462246FDF7C7FBFDF719FE044626
:10324000002D04D1002C02D1012007B0F0BD00F008
:1032500095FD002801D007B0F0BDE54A10780225A1
:10326000002809D0E54800210A4601F0DDFD0146AD
:10327000012803D1084602E02846AFE003200029D8
:1032800000D0AAE0DD48002106AA019101F03EFB32
:103290000146012801D1084600E003200029059AD3
:1032A00000D09AE00698C00701D0062095E04021A2
:1032B000CF48019B435483700078002800D18BE0F5
:1032C000042A01D9012088E00091CC48012101F0B5
:1032D000ABFD0146012801D1084600E0032000298A
:1032E000C34A7BD1C548012106AA01F00FFB014664
:1032F000012801D1084600E003200029BC4A6DD115
:103300000720069901400598814224D1B8490098C8
:10331000019A0A54059808740398049900F09CFCDB
:10332000002816D1464A474B3046394605F04EF83C
:10333000002801D10198C443204600F039FCAC4973
:10334000009A8854002804D10C9800F0D1FC002881
:1033500003D007B0F0BD062040E0A54A1078002851
:1033600028463BD090780325002801D02C4600E069
:103370000224A2480021224601F056FD012800D176
:103380000546002828D1FD48002606AA314601F04E
:10339000BDFA012801D1054600E0032500281BD114
:1033A00006986040C00716D1F3480099465400784B
:1033B000002817D000F0E4F90028EF4A0ED1D178A8
:1033C000484248415178002900D0029002980028D4
:1033D0000AD0052002E006252846E74A402150543D
:1033E00007B0F0BD0220F8E7E4480021012422469E
:1033F00001F01AFD012801D1014600E00321002857
:1034000014D1DE48002606AA314601F07FFA0128D1
:1034100001D1014600E00321002807D10698C0072A
:1034200003D0D54A94703046D8E706210846D4E741
:1034300001FF000020BC3E4C0000F04165CD9D41E5
:103440000000E0FFFFFFEF410000E03FD01120202F
:1034500014122020F0B585B00646FE4F38780225BC
:1034600000281ED00120002E1CD0624A0C4689186C
:10347000891E614A89B2914214D300F07FFC002872
:1034800010D13878002828460CD0F14800210A468F
:1034900001F0CAFC0146012809D10846002901D1E2
:1034A00008E0284640217854C0B205B0F0BD0320A2
:1034B0000029F7D1E648002503AA294601F026FA9B
:1034C0000146012801D1084600E003200029E9D186
:1034D0000398C00701D00620E4E740203D54BD70AA
:1034E000DB4801F09DF9002803D00128DAD0032041
:1034F000D8E7D748062100252A4601F095FC012887
:1035000001D1014600E00321002856D1D048062110
:1035100004AA019101F0FAF9012801D1014600E065
:103520000321002849D104988005019945D10195CE
:1035300001257019401E02780721C54801F074FC6E
:10354000A54202D26D1C0028F3D0012801D101460A
:1035500000E00321002830D10B202A4A214601F047
:103560000BF80146002828D1B948062502AA2946A9
:1035700001F0CCF9012801D1014600E00321002827
:103580001BD1029860401E490842294615D1B04817
:10359000072102AA01F0BAF9012801D1014600E091
:1035A0000321002809D13019401E007802A90978AA
:1035B000884201D00620019001990191CDB26E425E
:1035C0006E41A34801F052F90146424242410128AE
:1035D00001D1084600E00320002900D1084616402A
:1035E000002D00D00198012E00D05BE7FC8159E747
:1035F000D011202001FCFFFF01FC0000141220204C
:10360000FF030000FF070000F0B583B0044600F0A0
:10361000B5FB002804D040218E4A505403B0F0BDC1
:103620008C4E30780227002835D0894800210A4680
:1036300001F0FAFB0146012803D108460029EAD12E
:1036400002E003200029E6D18148002502AA29468C
:1036500001F05CF90146012803D108460029DAD1BE
:1036600002E003200029D6D10298C00701D006202D
:10367000D1E740217554B570307800280BD0019106
:103680007348012100252A4601F0CEFB014601289E
:1036900003D1084602E03846BDE703200029BAD12D
:1036A0006B48012102AA01F031F90146012801D13C
:1036B000084600E003200029ADD102A800784007A9
:1036C000D5D10198355435746148032101912246C2
:1036D00001F0AAFB012800D10190002830D15C48FC
:1036E000032102AA019101F011F9012800D10190F2
:1036F000002825D102A8007884421FD13563756166
:10370000B561347230780028384684D000F038F83B
:10371000002800D07FE771780520002900D17AE7E2
:10372000F178002900D176E7F648002101242246ED
:1037300001F07AFB012805D1014604E00620019042
:10374000019868E70321002813D1EE48002502AA5A
:10375000294601F0DBF8012801D1014600E00321F0
:10376000002806D10298C00702D0B470284652E75C
:10377000062108464FE7C046D01120201412202011
:1037800010B582B031480078012808D1DD4801F039
:1037900047F800280AD0012802D0032000E00220C8
:1037A0004021D74A5054C0B202B010BDD5480421C0
:1037B00001AA01F0ABF8012803D10446002810D17A
:1037C00002E0032400280CD1F84812216A4601F0D7
:1037D0009DF8012801D1044600E00324002800D10F
:1037E0000446F24801F042F80146204608431ED143
:1037F00001A80278012311461940EB48417069463F
:1038000009780B4043719306DB0F03715307DB0FFD
:10381000C3709207D20F82700A07D20F82744A07D0
:10382000D20FC2718907C90F81710020B8E7012941
:1038300003D10846002903D003E00320002900D16A
:103840000846002CACD02046AAE7C0464C122020E7
:1038500014122020D0112020F0B583B0FB4F38780F
:10386000002808D0FB4800F0DBFF002805D0012825
:1038700068D0032066E0022064E0F64811210024AD
:10388000224601F0D1FA012803D10646002830D1A2
:1038900002E0032600282CD1EE48112102AA01F0F3
:1038A00035F8012803D10646002822D102E003267C
:1038B00000281ED102A800782F21084201D0062638
:1038C00017E0E44800210A4601F0AEFA012801D1D0
:1038D000064600E0032600280BD1DE48002102AA9C
:1038E00001F014F8012801D1064600E00326002863
:1038F0002CD075427541D74800F0B8FF01464242CE
:103900004241012803D10846002903D003E00320E7
:10391000002900D108461540002E00D03046012D68
:1039200010D13C743C737A497C60B960BC70012151
:103930008902F9813A461432242104461046FCF7E4
:1039400087FD20464021785403B0F0BD02A80078DE
:10395000C007B4D1E5480121002201F065FA012831
:1039600001D1064600E003260028C2D1DF48012528
:1039700002AA294600F0CAFF012801D1064600E04C
:1039800003260028B5D102A80078400797D1F9484E
:103990000221002201F048FA012801D1064600E088
:1039A00003260028A5D1F348022102AA00F0AEFFA9
:1039B000012801D1064600E00326002899D102988B
:1039C000002800D07BE7EB4803268022314601F037
:1039D0002BFA012800D1064600288AD1E5480326A3
:1039E00002AA314600F092FF012800D106460028C5
:1039F00000D07EE702A80078802800D05FE7DD488D
:103A00000521002201F010FA012801D1064600E04C
:103A10000326002800D06CE7D648052102AA00F052
:103A200075FF012801D1064600E00326002800D0DA
:103A30005FE70298002800D041E7AA02CD480B2199
:103A4000019201F0F1F9012801D1064600E00326B8
:103A5000002800D04DE7C7480B2102AA00F056FF0E
:103A6000012801D1064600E00326002800D040E7E7
:103A70002548029901400198814200D01FE7BD48C6
:103A80000C21224A01F0D0F9012801D1064600E0BC
:103A90000326002800D02CE7B6480C2102AA00F02B
:103AA00035FF012801D1064600E00326002800D09A
:103AB0001FE702981549884200D000E7AD48002171
:103AC000022201F0B1F9012801D1064600E00326E7
:103AD000002800D00DE7A748002102AA00F016FF39
:103AE000012801D1064600E00326002800D000E7A7
:103AF00002A800782840404206260640F9E6C04663
:103B0000D011202014122020FF0700008080000028
:103B10008080008070B582B00446EA4E307800287C
:103B20001AD0002C0AD0FFF72BFE002837D171786D
:103B30000520002933D0F178002930D0601E2246BC
:103B40008241E148002101F06FF90146012805D1C9
:103B50000846002923D104E0022020E003200029A8
:103B60001DD1D948002501AA294600F0CFFE014603
:103B7000012803D10846002911D102E003200029C1
:103B80000DD1601E214681410120019A02409142DF
:103B900001D0062003E0601E8441B4702846402115
:103BA000705402B070BDC046D011202014122020E5
:103BB00070B582B00446C34D2878002806D024484A
:103BC0002118491E814203D201203AE0022038E048
:103BD000BD480221224601F027F90146012803D100
:103BE000084600292DD102E00320002929D1B6483A
:103BF000022101AA00F08AFE0146012803D10846ED
:103C000000291ED102E0032000291AD10198A04208
:103C100016D12C632046FDF778F90024AB4B2246E1
:103C2000FDF776F9AA4B26462246FDF771F9FCF717
:103C300011FD68616979002900D1A861304600E072
:103C400006204021685402B070BDC046D01120202B
:103C50009A99999914122020F0B583B00246994D93
:103C6000287800281ED00120C3039A423AD8531E58
:103C70007F2B37D3FF201346834301921006CAB22D
:103C800012041018C0180E460F0AC4198E480C21D1
:103C9000224601F0C9F80146012805D1084600294D
:103CA00020D104E002201DE0032000291AD186481B
:103CB0000C2102AA00F02AFE0146012803D1084681
:103CC00000290FD102E0032000290BD10298A04265
:103CD00007D12E73EF720198A872000A6872002053
:103CE00000E006204021685403B0F0BD14122020EB
:103CF000B0B582B00446734D287800280BD07248C6
:103D00000521224601F090F80146012805D1084618
:103D100000292BD104E0022028E00320002925D12E
:103D20006948052101AA00F0F1FD0146012803D1EF
:103D3000084600291AD102E00320002916D1019873
:103D4000A04212D16C632046FDF7DFF800240A4B35
:103D50002246FDF7DDF85E4B2246FDF7D9F8FCF769
:103D600079FC01462046E96100E0062040216854C4
:103D700002B0B0BD1412202000807640B0B582B0F1
:103D8000504D2878002807D0287900286ED0A87CCC
:103D9000012803D0092002E002208CE02920697C60
:103DA0004C00044348481121224601F03DF80146E9
:103DB000012803D1084600297DD102E00320002913
:103DC00079D14148112101AA00F0A0FD0146012846
:103DD00003D1084600296ED102E0032000296AD1F0
:103DE000019860402F21084264D1402000212954CD
:103DF0000120A871344813216A4600F087FD01466E
:103E0000012801D1084600E00320002953D1009C7D
:103E10002D480221224601F007F80146012801D170
:103E2000084600E00320002945D12748022101AAC5
:103E300000F06CFD0146012801D1084600E0032096
:103E4000002938D10198A04234D100982863FDF7A9
:103E50005CF800241D4B2246FDF75AF81C4B224605
:103E6000FDF756F8FCF7F6FB6861A86116481121CA
:103E70000024224600F0D8FF0146012803D108465D
:103E8000002918D102E00320002914D10E48112185
:103E900001AA00F03BFD0146012803D10846002994
:103EA00009D102E00320002905D101A800782F21C3
:103EB000084204D006204021685402B0B0BD6C60B6
:103EC0002046F8E7D01120201412202065CD9D4116
:103ED0000000F03DF0B58BB00546FFF751F80078D3
:103EE000002803D02846FFF757F803E000F006F952
:103EF0000028F7D00790804C5B21204600F084FC1E
:103F000041210491204600F07FFC44210591204688
:103F100000F07AFC3921204600F076FC372120465B
:103F200000F072FC30210391204600F06DFC382136
:103F3000204600F069FC5D21204600F065FC202150
:103F40000291204600F060FC43210191204600F0E0
:103F50005BFC06954F252046294600F055FC4E2770
:103F60002046394600F050FC5321204600F04CFC1E
:103F700054262046314600F047FC2046049900F0C4
:103F800043FC2046394600F03FFC20463146039E64
:103F900000F03AFC2046029900F036FC20460199D8
:103FA00000F032FC20462946069D00F02DFC2046FC
:103FB000059900F029FC4521204600F025FC3D2113
:103FC000204600F021FCCD206843C00A0A210A46A1
:103FD0004243AA1A324308AB1A700A2D11D31A228F
:103FE0004243120A5143401A304308A94870642DD5
:103FF00009D329206843000B303008A988700325B5
:1040000002E0012500E00225079F6E1E08A8815DE1
:10401000204600F0F9FB002E4BD0AE1E08A8815DB3
:10402000204600F0F1FB002E43D0EE1E08A8815D73
:10403000204600F0E9FB002E3BD00320C0432E18A1
:1040400008A8815D204600F0DFFB002E31D06E1FF6
:1040500008A8815D204600F0D7FB002E29D0AE1FB6
:1040600008A8815D204600F0CFFB002E21D0EE1F76
:1040700008A8815D204600F0C7FB002E19D007205C
:10408000C0432E1808A8815D204600F0BDFB002E1D
:104090000FD02E46093E08A8815D204600F0B4FBF3
:1040A000002E06D008A828180A380178204600F00B
:1040B000ABFB2021204600F0A7FB072F03D8B80058
:1040C000E749095800E0E5490878002809D04D1C67
:1040D000C1B2204600F098FB691C287800280D46E4
:1040E000F6D10D21204600F08FFB0A21204600F07A
:1040F0008BFB0BB0F0BDC04600801040F0B589B01E
:10410000FEF742FF0446FEF73BFF0590F54D5B21AD
:10411000284600F079FB4121284600F075FB442138
:10412000284600F071FB3921284600F06DFB37214D
:10413000284600F069FB30272846394600F064FB2A
:104140003821284600F060FB5D21284600F05CFB2A
:104150002021284600F058FB072C039403D8A00028
:10416000EE49095800E0EC490878002809D04C1CB9
:10417000C1B2284600F048FB611C207800280C469C
:10418000F6D1202428462146019400F03DFB492128
:10419000284600F039FB4421284600F035FB3D2637
:1041A00028463146029600F02FFB2846394600F09B
:1041B0002BFB049778272846394600F025FB059805
:1041C000806B02F095F82846214600F01DFB462141
:1041D000284600F019FB5721284600F015FB284619
:1041E000314600F011FB2846049900F00DFB2846EB
:1041F0003946049C00F008FB059FF86B02F078F844
:104200002846019900F000FB5021284600F0FCFAF6
:104210004C262846314600F0F7FA2846314600F091
:10422000F3FA2846029900F0EFFAF8782746C1B26F
:10423000CD267143C90A0A2422464A43821A3A43C8
:1042400006AB1A700A28029411D31A224A43120AA2
:104250006243891A394306AA5170642809D3292177
:104260004143080B303006A98870032702E001277C
:1042700000E002277C1E06A8015D284600F0C4FA73
:10428000002C4BD0BC1E06A8015D284600F0BCFAED
:10429000002C43D0FC1E06A8015D284600F0B4FAAD
:1042A000002C3BD00320C0433C1806A8015D2846E3
:1042B00000F0AAFA002C31D07C1F06A8015D284628
:1042C00000F0A2FA002C29D0BC1F06A8015D2846E8
:1042D00000F09AFA002C21D0FC1F06A8015D2846A8
:1042E00000F092FA002C19D00720C0433C1806A811
:1042F000015D284600F088FA002C0FD03C46093CAE
:1043000006A8015D284600F07FFA002C06D006A81A
:1043100038180A380178284600F076FA2021284615
:1043200000F072FA5221284600F06EFA4521284624
:1043300000F06AFA4121284600F066FA4421284636
:1043400000F062FA5921284600F05EFA3D21284625
:1043500000F05AFA05984078C1B24E43F10A029E25
:1043600032464A43821A049C224306AB1A700A283A
:1043700011D31A224A43120A5643891B214306AA23
:104380005170642809D329214143080B303006A914
:104390008870032402E0012400E00224661E06A8BF
:1043A000815D284600F030FA002E4BD0A61E06A8EC
:1043B000815D284600F028FA002E43D0E61E06A8AC
:1043C000815D284600F020FA002E3BD00320C04338
:1043D000261806A8815D284600F016FA002E31D076
:1043E000661F06A8815D284600F00EFA002E29D02F
:1043F000A61F06A8815D284600F006FA002E21D0EF
:10440000E61F06A8815D284600F0FEF9002E19D0AF
:104410000720C043261806A8815D284600F0F4F95D
:10442000002E0FD02646093E06A8815D284600F0E2
:10443000EBF9002E06D006A820180A380178284685
:1044400000F0E2F90D21284600F0DEF90A212846A5
:1044500000F0DAF9039809B0F0BDC046C588000045
:1044600068860000F0B581B0FEF78AFD007800286C
:1044700006D01B4864218022FEF792FD044604E02A
:10448000FFF73CFE04460028F3D05B200126154DC3
:1044900015A7C1B2284600F0B7F9B85D761C2E2EDC
:1044A000F7D1072C03D8A0001C49095800E01A498D
:1044B0000878002809D04E1CC1B2284600F0A4F9A3
:1044C000711C307800280E46F6D10D21284600F0E8
:1044D0009BF90A21284600F097F9204601B0F0BD6B
:1044E0000050C347008010405B4144393730385D8D
:1044F0002053494E45203130306B487A20414D5091
:104500005F434F44453D313030204F46465345547C
:104510003D31323820000000C58800006886000068
:1045200070B504460120002C1DD0114909780029DE
:1045300019D001F0D1FA05460E4E07E0012001F036
:104540007FFA01F0C9FA401BA0420BD2FFF718F91D
:10455000002808D170780028F0D0F0780028EDD03D
:10456000002000E005204021024A505470BDC046A2
:104570004C122020D011202070B582B014460D4678
:104580000646124831462A4600F04EFC012803D167
:104590000146002816D102E00321002812D10B4861
:1045A00001AA314600F0B2F9012803D101460028E2
:1045B00008D102E00321002804D10199694021407B
:1045C00000D00621C8B202B070BDC046141220202F
:1045D000F0B581B00C46054615480078154F39787E
:1045E000081A8030420E821880231340181A80382F
:1045F000C0B2A04201D2002417E00E190E487F2E4F
:1046000003D84018294622460CE040187F22D243A6
:10461000511ACEB229463246FBF7BBFEA919A61B9A
:1046200005483246FBF7B5FE3E70204601B0F0BDAE
:1046300018012020E812202098002020B0B50A7828
:10464000032313400B4A84580B4D2540EB18A92433
:1046500024061B198350072212064B6813401124AD
:10466000240205599543EA1802510019497801615D
:10467000B0BDC04608080000FCFFFF00811E091FF6
:1046800000BFFCD27047000010B5002A0CD0074BC9
:10469000C31800201C68640705D41C6A0C54401C15
:1046A0008242F7D1104610BD002010BD101100004D
:1046B000B0B51122120283580C4C1C400B894D8856
:1046C0001D438B792B430A4D1D402B1983508B883A
:1046D000CC791C43097821435D239B001940801845
:1046E00042689A4389184160B0BDC04680CCFFFF44
:1046F0007F33000010B50122120383180C785C6030
:104700004978815010BD000010B511231B02C41858
:10471000D0001E4B81420CD22068184001231B049C
:1047200003432360032353438801194603F048FDE4
:1047300016E020681840130199420AD20123DB03D6
:1047400018432060C800510803F03AFD401C40089F
:1047500006E02060C800114603F032FD401C40080E
:1047600021690B4A0A40810989B2511821613F2110
:10477000084062698A43101860616068012108403E
:1047800062688A431018606010BDC046FF7FFEFF5C
:104790000000FFFFB0B51122120283580124A34389
:1047A00083500B888C781C438B882343094C1C4016
:1047B0008358094D1D40631983508B79CC791C4374
:1047C000097A21437E231940801842689A43511880
:1047D0004160B0BD18670000E798FDFF0F4A83589D
:1047E0005B0704D48018C06908700120704700205E
:1047F0007047C04610B50122120383180C789C60E4
:104800004978815010BD0000044A801802681206E1
:10481000FCD481610168C907FCD170470811000010
:1048200010B50146012000291ED00A4634325378C3
:10483000002B02D00220107010BD0B68324CA34236
:1048400002D00120107010BD4B68002BF9D00B89ED
:10485000002BF6D0C9684B424B411370002903D09E
:10486000012000021080002010BDC04610B5024695
:104870000120002A0BD0144634346178002906D078
:1048800011895068012201F0F3F80020208010BD4A
:10489000002808D00A21C16003491B4A0260416018
:1048A0000121C903018170470000202070B5034633
:1048B0000120002B26D0002924D01A463432CC689F
:1048C000DC608C689C604C685C600968196000253D
:1048D0001D63957055700C4CA14202D001201070E0
:1048E00070BD5C68002CF9D019890029F6D0DB680E
:1048F0005E425E411670002B04D00122204601F07A
:10490000B7F8284670BDC04608002020F0B583B037
:1049100016460546009200220291134600F0E8F880
:10492000411F0122D443A14200D2DEE07F20C743D1
:10493000384600BF00BF00BF00BF00BF00BF00BFC0
:1049400000BF00BF00BF00BF00BF00BF00BF00BF6F
:1049500000BF00BF00BF00BF00BF00BF00BF00BF5F
:1049600000BF00BF00BF00BF00BF00BF00BF00BF4F
:1049700000BF00BF00BF00BF00BF00BF00BF00BF3F
:1049800000BF00BF00BF00BF00BF00BF00BF00BF2F
:1049900000BF00BF00BF00BF00BF00BF00BF00BF1F
:1049A00000BF00BF00BF00BF00BF00BF00BF00BF0F
:1049B00000BF4030BDD10096002228460299134620
:1049C00000F096F8411FA14200D28EE0384600BFA9
:1049D00000BF00BF00BF00BF00BF00BF00BF00BFDF
:1049E00000BF00BF00BF00BF00BF00BF00BF00BFCF
:1049F00000BF00BF00BF00BF00BF00BF00BF00BFBF
:104A000000BF00BF00BF00BF00BF00BF00BF00BFAE
:104A100000BF00BF00BF00BF00BF00BF00BF00BF9E
:104A200000BF00BF00BF00BF00BF00BF00BF00BF8E
:104A300000BF00BF00BF00BF00BF00BF00BF00BF7E
:104A400000BF00BF00BF00BF00BF00BF00BF4030BD
:104A5000BDD10096002228460299134600F048F87E
:104A6000411FA14241D300BF00BF00BF00BF00BF34
:104A700000BF00BF00BF00BF00BF00BF00BF00BF3E
:104A800000BF00BF00BF00BF00BF00BF00BF00BF2E
:104A900000BF00BF00BF00BF00BF00BF00BF00BF1E
:104AA00000BF00BF00BF00BF00BF00BF00BF00BF0E
:104AB00000BF00BF00BF00BF00BF00BF00BF00BFFE
:104AC00000BF00BF00BF00BF00BF00BF00BF00BFEE
:104AD00000BF00BF00BF00BF00BF00BF00BF00BFDE
:104AE00000BF00BF00BF4037BDD103B0F0BD000024
:104AF000F0B58DB007460120002F07D04DB2002D34
:104B000004D4129C002A03D1002C01D10DB0F0BDB9
:104B100003943C46343460780690002800D13AE192
:104B20000AA800254571037108AEB5801E0AC6703B
:104B30001E0C86701B0E4370531E9A41D2010A430D
:104B4000027008957F20C543284600BF00BF00BF04
:104B500000BF00BF00BF00BF00BF00BF00BF00BF5D
:104B600000BF00BF00BF00BF00BF00BF00BF00BF4D
:104B700000BF00BF00BF00BF00BF00BF00BF00BF3D
:104B800000BF00BF00BF00BF00BF00BF00BF00BF2D
:104B900000BF00BF00BF00BF00BF00BF00BF00BF1D
:104BA00000BF00BF00BF00BF00BF00BF00BF00BF0D
:104BB00000BF00BF00BF00BF00BF00BF00BF00BFFD
:104BC00000BF00BF00BF00BF00BF4030BDD1049494
:104BD0003989079778680022059200F049FF284636
:104BE00000BF00BF00BF00BF00BF00BF00BF00BFCD
:104BF00000BF00BF00BF00BF00BF00BF00BF00BFBD
:104C000000BF00BF00BF00BF00BF00BF00BF00BFAC
:104C100000BF00BF00BF00BF00BF00BF00BF00BF9C
:104C200000BF00BF00BF00BF00BF00BF00BF00BF8C
:104C300000BF00BF00BF00BF00BF00BF00BF00BF7C
:104C400000BF00BF00BF00BF00BF00BF00BF00BF6C
:104C500000BF00BF00BF00BF00BF00BF00BF00BF5C
:104C60004030BDD16E480CA904220292FFF70CFD22
:104C70006C4E00F031FF07463068800707D4079874
:104C8000C46800F029FFC01BA042F5D317E00AA8B2
:104C90000599405C30633068400707D50798C468C1
:104CA00000F01AFFC01BA042F5D308E0306A08A943
:104CB000059A8854521C0592062ADDD18CE0032007
:104CC000059000240798018940680122174600F0EA
:104CD000CFFE00BF00BF00BF00BF00BF00BF00BFCE
:104CE00000BF00BF00BF00BF00BF00BF00BF00BFCC
:104CF00000BF00BF00BF00BF00BF00BF00BF00BFBC
:104D000000BF00BF00BF00BF00BF00BF00BF00BFAB
:104D100000BF00BF00BF00BF00BF00BF00BF00BF9B
:104D200000BF00BF00BF00BF00BF00BF00BF00BF8B
:104D300000BF00BF00BF00BF00BF00BF00BF00BF7B
:104D400000BF00BF00BF00BF00BF00BF00BF00BF6B
:104D500000BF4035BDD1002C3846049C079D059E00
:104D600045D008A90A78A52A40D149785A29029E37
:104D70003DD108A98A781206CB781B049A180B79C2
:104D80001B02D2184979511829630026039A002A78
:104D90002DD011602BE03D680120204EB54236D168
:104DA0007D68002D33D03D89002D30D0F868454214
:104DB0004541257000282DD0012000022080AFE65B
:104DC00007980194C46800F087FEC01B0321059179
:104DD000A042019C00D375E73068102101404C428D
:104DE0004C410029ECD1002005906BE7029E06990A
:104DF00000290BD16178002906D029896868012231
:104E000000F036FE00206070002E00D0304620708A
:104E10000DB0F0BD01200DB0F0BDC046080020204F
:104E2000008046401091464080B582B01346002273
:104E300000920122FFF75CFE02B080BD80B50846FB
:104E400000F0FEFD80BD80B500F046FE80BD000094
:104E5000F0B58BB00124E543681C002900D1D7E0F0
:104E6000002A00D1D4E0002B00D1D1E09B4B1B786D
:104E7000002B00D1CCE00B78A52B00D0C8E0984BDC
:104E80001878012816D15A2010704878052393709D
:104E90005070C8780024D471947154711471D0701A
:104EA00008211046154600F046F9014620462972B1
:104EB0000BB0F0BD1C700027099708260846089122
:104EC0003146079200F037F90899079A0B7A984211
:104ED00000D084E08B78581E022811D20024099457
:104EE000087901904879029088790390C8790490F4
:104EF000C87805280590069314D8302606432AE082
:104F0000002B1AD1002009907348302109AAFFF71D
:104F1000FDFC0446002860D0022C079A089974D141
:104F200005245CE00346F8201840202807D010280C
:104F300009D12826059806430CE002244FE0059885
:104F40000646203606E0FE20059B184040286DD11D
:104F50001E431846069B022B27D1032802D0034686
:104F6000052857D1019800060299090408180399E9
:104F70000902401804994218F6B257483146049283
:104F8000FFF752FF002815D153480AAA3146FFF710
:104F9000BDFC002839D10A9A0598049900F050F810
:104FA0000899079A00281AD12FE0F1B24A4809AAB5
:104FB000FFF7ACFC02280FD00028079A089924D1EB
:104FC000069801280BD10598022808D10B2040062D
:104FD000099B8343099302E00524079A08995A2004
:104FE0001070487894705070C8780999D1710B0A84
:104FF00093710B0C5371090E1171D070082110467A
:10500000144600F098F820723D463548077028464F
:105010000BB0F0BDFE2018404028A3D0F820184067
:1050200010289FD020289DD00424D8E71846503857
:1050300017281E461846069B8DD90324CFE7C04685
:10504000B0B50123032812D0052810D0F82505405B
:1050500000231C46DB43102D09D0202D07D040280B
:1050600004D04128204606D1EB4B00E0024B4A40D9
:105070001A4050425041B0BD1F030000B0B584B08B
:1050800000280FD004466D462846FFF701FC124861
:105090002946FFF70BFC002806D0104800210170BC
:1050A000FE2016E0FF2014E00D48002505700B4897
:1050B00001210170039B0B4920462A4600F0EEF8BF
:1050C000002806D10849094A20462B4600F050FB2B
:1050D000284640B204B0B0BDA0122020D912202032
:1050E000D8122020514E0000474E00003D4E0000D7
:1050F00070B582B000281AD0044601A8009001269D
:1051000003220025204631462B4600F036FB0028BE
:105110000ED1019800953040831C022103222046C5
:1051200000F02BFB002803D12577284600E0FF2064
:1051300040B202B070BDF0B50025002835D000297E
:1051400033D001230A461A40012930D100231D46DD
:10515000002A2AD0C25C6A405100072052B2002ABD
:1051600000D541404A0049B2002900D542405100D3
:1051700052B2002A00D541404A0049B2002900D568
:105180004240510052B2002A00D541404A0049B283
:10519000002900D54240510052B2002A00D54140BA
:1051A0004D0049B2002900D54540E8B2F0BD994311
:1051B00000231D4602E09B1C9942C9D0C65C6E408C
:1051C0007500072476B2002E00D565406E006DB2E2
:1051D000002D00D56640750076B2002E00D56540E2
:1051E0006E006DB2002D00D56640750076B2002EBF
:1051F00000D565406E006DB2002D00D56640770089
:1052000075B2002D00D567407D007EB2002E00D51E
:105210006540C61876786E40750076B2002E00D5CF
:1052200065406E006DB2002D00D56640750076B207
:10523000002E00D565406E006DB2002D00D5664091
:10524000750076B2002E00D565406E006DB2002D5F
:1052500000D56640770075B2002D00D567407D000F
:105260007EB2002EA7D56540A5E780B582B00029A3
:1052700006D0009101210422002300F07EFA00E014
:10528000FF2040B202B080BD002804D0C07E0821BB
:105290000140C8087047002070470000B0B582B0D8
:1052A0000446FF20002C37D00D46002934D0002BB7
:1052B00032D0002121626162A16225606260A36038
:1052C000E16021616161A161E1611548A081019105
:1052D00001A80090254620460A460B4600F04DFAEC
:1052E000002819D10F480199814214D12846294636
:1052F00014310091012100230A4600F03EFA0028F3
:105300000AD12846294618310091012102220023A2
:1053100000F033FA00E0F92040B202B0B0BDC04660
:1053200001FF00004D505842F0B589B00893FF27A7
:10533000032969D8002867D0002A65D00690059215
:10534000089821381F22D24390425DD30698C07E30
:10535000000701D4F62757E00E98029000202C4A4F
:105360002C4B059C2568ED18F82795424CD3089DD9
:105370002D18012D15D06668F618964244D3022DDB
:105380000FD0A668F61896423ED3032D09D0E568E3
:10539000ED18954238D3001F089D2D181034002DAC
:1053A000E0D10898421E0802049000263446039675
:1053B00008988442354607D202980028204600D03B
:1053C0001046800005990D5807920498031900961D
:1053D00002214022069E304600F0CFF9002812D16B
:1053E000002700970C4805400221412230462B46F9
:1053F00000F0C3F9002806D1079A521E641C202C25
:10540000039ED5D100E0074678B209B0F0BDC04692
:105410000000FCFF0000FEFFFFFF0300F0B58BB0B3
:105420000446FF20002C00D10DE1002900D10AE143
:10543000002A00D107E1E07E000701D4F62002E156
:1054400005910621204600F0ADFA002800D0FAE0D0
:10545000277F002F75D007A8009001210522002387
:105460002046069300F089F9002800D0D3E0049785
:10547000059F3846603007990A0C4270090A01708E
:105480000025069509A8009050202843C2B20121AA
:105490002046069B00F071F9002800D0BAE00AA867
:1054A000009058202843C2B20121002620463346EE
:1054B00000F063F9002800D0ABE009981F210A9A98
:1054C0000A4005C70037681C072D0546DAD308A82F
:1054D000009001266022002320463146069300F00A
:1054E0004CF90028049F00D095E005980146503102
:1054F000089AFF231D0613020693624B1A40069B6F
:10550000DB1702952B409A18026400916422002355
:1055100020463146039300F030F941424141069163
:10552000002878D15748019008A8009001216122F5
:105530002046039D2B4600F020F900281FD0069539
:1055400069E0002500950221052201262046334608
:1055500000F013F9002810D00690667B27690095AB
:105560000221052220462B4600F007F9002800D131
:10557000257766732761069865E026776BE7F20565
:10558000089908463F4D284003921140029A00D1E5
:105590000A46024305984264543000900121652276
:1055A00000262046334600F0E8F84142414106918A
:1055B000002830D108A800900121622220463346FD
:1055C00000F0DBF8002801D0069624E00899084690
:1055D0002840039A1140029A00D10A4602430598D6
:1055E000826458300090012166220026204633460E
:1055F00000F0C3F841424141069100280AD108A8B1
:105600000090012163222046334600F0B6F80028BE
:105610001CD00696049F002F15D10546677B206994
:10562000059000260096022105222046334600F010
:10563000A4F8002800D126770699002903D16773C2
:1056400005982061284640B20BB0F0BD089801993A
:105650000140019103990140039101D10398029007
:105660000299019801430598C1645C3000900121C2
:1056700067220023204600F080F841424141069114
:10568000C8E7C046FFFFFF000A30C0B20A2803D8AF
:10569000800006A10858704700A07047756E6B6EB9
:1056A0006F776E206572726F720000005C89000077
:1056B0001A8A00003E890000DC8900001889000079
:1056C000BE890000938900007B890000368A0000B3
:1056D0000D8A0000D9890000F0B583B0002814D0ED
:1056E000F824002B12D05F08BA420FD8029100258F
:1056F0000646384611461A462B46FAF799FD0346E8
:10570000F07E000705D4F62400E0FF2460B203B069
:10571000F0BD02980728F9D8009510220243022113
:10572000304600F02AF8029A04460028EED100958F
:1057300020210A43022130462B4600F01EF8044681
:10574000E4E780B582B0002805D00B46C17E09078A
:1057500003D4F62009E0FF2007E000210091591E44
:105760008B410221032200F008F840B202B080BD54
:10577000002801D020300EC07047F0B58BB0044631
:10578000FF20002C00D1FDE02568002D00D1F9E0BC
:1057900004951098019008A8C371C2708170A5216A
:1057A0000170190A8171190C4171190E0171217B67
:1057B00041700391481C20730020034602E0801CC6
:1057C000082857D008A90D5C5D406B0007276DB213
:1057D000002D00D57B405D005BB2002B00D57D40E5
:1057E0006B006DB2002D00D57B405D005BB2002BDD
:1057F00000D57D406B006DB2002D00D57B405D0073
:105800005BB2002B00D57D406E006BB2002B00D543
:105810007E40730075B2002D00D57B4009184D788D
:105820005D4069006BB2002B00D579404B0049B256
:10583000002900D57B4059005BB2002B00D5794090
:105840004B0049B2002900D57B4059005BB2002BC8
:1058500000D579404B0049B2002900D57B40590062
:105860005BB2002B00D579404B0049B20029A6D588
:105870007B40A4E7029208A90B7205AA00261672C3
:10588000FF206073059606966068A368049DA8478C
:105890002061002801D0FE2074E005A80178FD20D9
:1058A0005A296FD1334602E0B61C082E56D005AAFD
:1058B000915D59404B0049B2002900D57B405D0005
:1058C00059B2002900D57D406B0069B2002900D58E
:1058D0007B405D0059B2002900D57D406B0069B264
:1058E000002900D57B405D0059B2002900D57D40DC
:1058F00069006BB2002B00D579404B0049B20029FA
:1059000000D57B4091194A785A40510052B2002A82
:1059100000D579404A0049B2002900D57A405100AB
:1059200052B2002A00D579404A0049B2002900D578
:105930007A40510052B2002A00D579404A0049B25B
:10594000002900D57A40510052B2002A00D5794092
:105950004B0049B20029A7D57B40A5E705A9097AE4
:10596000DAB28A420BD105A94978039A914208D14B
:1059700005A989786173002907D0FA2002E0FC208C
:1059800000E0FB2040B20BB0F0BD05A9C978029A37
:105990009142F7D10020019A002AF3D0069909BA62
:1059A0001160EFE7F0B585B00646FF20002E1CD051
:1059B0001746002A19D00D46002916D006212A467E
:1059C0008A4312D1316A002902D0B06A884700E0C8
:1059D0000020039004A800900121042200243046F6
:1059E0002346FFF7CAFE002802D040B205B0F0BD42
:1059F00002943C460BE0641E1FD004A800900121D5
:105A0000042200233046FFF7B8FE0028EDD10498A9
:105A10002840A8420FD0316A0029ECD0B06A8847EC
:105A20000399401AB84208D2726A002AE5D0B06AD7
:105A300001219047E1E70298D7E7F720D5E700007A
:105A40006A490A680B689B1A834210D200BF0B6830
:105A50009B1A83420BD200BF0B689B1A834206D26B
:105A600000BF0B689B1A834201D200BFEAE7704770
:105A7000F0B583B0002803D005460078072801D987
:105A800003B0F0BD0C46124E80001249012A03D12A
:105A90000A5822430A5003E00A58A2430A5010361B
:105AA000002702E07F1C102FEAD00121B9402142DB
:105AB000F8D001AA284600F0A9F80028F2D00198F1
:105AC0000028EFD002990029ECD08151EAE7C046C6
:105AD0009012000050122020444800687047C046D1
