:020000040000FA
:10000000A8172020F9010000FD010000FF010000F9
:1000100000000000000000000000000000000000E0
:1000200000000000000000000000000001020000CD
:10003000000000000000000003020000752B00001B
:10004000070200000702000007020000070200008C
:10005000070200000702000007020000070200007C
:10006000000000000702000007020000000000007E
:100070000000000007020000070200000702000065
:10008000070200000702000007020000070200004C
:10009000070200000702000000000000000000004E
:1000A000070200000702000000000000000000003E
:1000B0000702000000000000070200000702000025
:1000C00000F002F800F06CF812A030C808382418CC
:1000D0002D18AC4201D100F063F80FCCA246AB461C
:1000E0000CA730CF2D1B083F3F197C427F1E544484
:1000F0002D090426F441641EAC4201D300F050F8EF
:100100000126334200D0FB1A3343984754465D46DC
:10011000DFE7000084300000A43000000000000091
:10012000103A02D378C878C1FAD8520701D330C840
:1001300030C101D504680C60704700000000000069
:100140007047000000000000002300240025002666
:10015000103A01D378C1FBD8520700D330C100D583
:100160000B60704710B5642902D100F093F810BD00
:10017000752902D100F08EF810BD732902D100F06C
:1001800084FB10BD002010BD1FB50098019900F040
:100190003CFE00F0AFFB1FBD10B500F017FC10BD1A
:1001A00000F07CFC1146FFF7EFFF02F005FD00F0C8
:1001B000ADFD03B4FFF7F0FF03BC02F0EBFC000061
:1001C00070B505460C46164602E00FCC0FC5103E32
:1001D000102EFAD2082E02D303CC03C5083E042EFB
:1001E00007D301CC01C5361F03E021782970641CB8
:1001F0006D1C761EF9D270BD06480047FEE7FEE78B
:10020000FEE7FEE7FEE7FEE703480449024A044B27
:1002100070470000C1000000A80F2020A817202070
:10022000A80F20200FB4054910B503AA029800F0CA
:1002300031FB10BC08BC04B0184700009C00202013
:1002400070B50C460546012A05D02878800600D5F1
:10025000EA69002302E0012305E05B1C934202D21D
:10026000E05C0028F9D1A869E618C01AA861286ADC
:10027000C01828622846C046C04604E06A68207854
:10028000A968641C9047B442F8D32846C046C046CB
:1002900070BD0000F7B5002575291068009914A6F7
:1002A00011D0C046C046002802DA404211A608E03C
:1002B000009909688A0701D50FA602E0490704D50D
:1002C0000EA6012501E0C046C046009F0024243749
:1002D00004E000F0F3FA30313955641C0028F8D1FD
:1002E0002B4632462146009800F04BFAFEBD000036
:1002F000000000002D0000002B0000002000000086
:10030000F3B50446002081B020622046E1688847AA
:10031000002872D0252802D06268A168ABE0594F4E
:1003200000267F442046E16888472028054608DBF0
:10033000312D06D2781920380078002801D00643E4
:10034000F0E7B00701D5042086430020E0610746AE
:10035000A0612A2D0AD0284602F066FD002827D089
:10036000B8000019303D0090856119E00298BA008C
:10037000121902C8916102902046E1688847012F56
:10038000054617D1E06900281FDA202086431CE0CB
:1003900000980A21806948430099401930388861E3
:1003A0002046E1688847054602F03EFD0028EFD16F
:1003B000012F0AD02E2D08D12046E1688847054636
:1003C000202006437F1C022FC3DBA069002803DA2C
:1003D0004042A06101200643F00701D0102086436F
:1003E0006C2D0BD0682D09D04C2D3CD06A2D38D007
:1003F000742D38D07A2D36D016E040E0E1682F46D3
:1004000020468847B842054609D16C2F29D00120E3
:100410008002E168064320468847054604E06C2FC9
:100420001DD0FF2001300643002D28D0284641383A
:10043000192803D80120C002064320352046266033
:100440002946029A1646FFF78DFE002810D0012893
:100450000BD0F61DF008C0000830029055E7402090
:10046000E1E78020D5E70020D3E7361D02964CE770
:1004700062682846A1689047206A401C44E7206AC9
:10048000FEBD0000C62D000030B5441C03E001781D
:10049000401C00290DD08107F9D10B4BDD0104C8A8
:1004A000D11A91432940FAD0001B0A0603D0C01E7E
:1004B00030BD001B30BD0A0401D0801E30BD0902D2
:1004C000FCD0401E30BD000001010101F8B5042A36
:1004D0002CD3830712D00B78491C0370401C521E8A
:1004E00083070BD00B78491C0370401C521E8307F6
:1004F00004D00B78491C0370401C521E8B079B0FC5
:1005000005D0C91ADF002023DE1B08C90AE0FFF767
:1005100057FEF8BD1D4608C9FD401C46B4402C439B
:1005200010C0121F042AF5D2F308C91A521EF0D4C3
:100530000B78491C0370401C521EEAD40B78491CEE
:100540000370401C012AE4D409780170F8BD01E071
:1005500004C0091F0429FBD28B0701D50280801C2F
:10056000C90700D00270704700290BD0C30702D022
:100570000270401C491E022904D3830702D5028061
:10058000801C891EE3E70022EEE70022DFE77047C8
:1005900070477047F0B5FF252D04C609C209FF2733
:1005A00004462E400137CB093E4348402A402B40A9
:1005B0000746002A6BD0002B69D0AA4267D0AB4215
:1005C00065D0002800DA32460125ED0529432C4389
:1005D00009022002090AD21A4B0C7F24E31A434C69
:1005E000000A7C44E35C7D242404121914145B008B
:1005F000A218884201D3521C00E0400049420C4638
:100600005C4324115C43DB016415E318040A5C437A
:10061000C502200D0C4644436419250A5D4323039B
:10062000EC0C0D46654300030019EB184C42A34245
:1006300001D35B18401CD4052018002B07D05B00A9
:10064000C91804D3401C002901D1400840003F21B3
:1006500089048A4209D3002A08DC1106090F04D054
:10066000032149074018C00FC007F0BD0122410017
:10067000120689187F2252069142F6D205214907B7
:10068000C84201D59010F0BDFF20C005F0BD002F7D
:1006900000DA32461648AA4207D2AB4205D2190206
:1006A000090E17D0F80FC007F0BDFF2563002D0617
:1006B000AB42F9D84900A942F6D8AB4201D1A942D0
:1006C000F2D0A94201D1002101E061004908D00522
:1006D0000843F0BD1102090EFBD0FF200243D005F4
:1006E000F0BD0A460146104654E70000172B0000F3
:1006F0000000C07F0102C21504D00123DB071943AB
:10070000002A0ADB9E239A1A02D40846D04070477A
:10071000FF2241001206914201D900207047C01704
:10072000C04370471F22030C02D10F2200041CD0CB
:10073000030E01D10002083A030F01D10001121F7C
:10074000830F01D18000921E002801DB4000521E61
:10075000D2055118021251181922904004D3491C95
:10076000002801D14908490008467047C10FC90750
:1007700000D04042012292071143D3E701218907AB
:10078000D0E7FFB504460D4681B0243000902168C3
:10079000880604D51022E0699143216000E0012021
:1007A000A84201DD471B00E000270498A1697A19DF
:1007B0001018081AA0612078C00602D42046C0464E
:1007C000C046002608E003986268A168805D9047F3
:1007D000206A401C761C206204988642F3DB207855
:1007E000C0060AD52046C046C04606E06268A16839
:1007F00030209047206A401C206238467F1E002827
:10080000F4DC07E000986268A168405D9047206AC8
:10081000401C206228466D1E0028F3DC2046C0469E
:10082000C0462078000602D5022005B0F0BD0120A8
:10083000FBE7000001694A1C02610878704700B5B7
:100840008FB00291002105910549019379440391EC
:10085000114604906846FFF753FD0FB000BD00003D
:10086000E5FFFFFF10B54369002B02D0C046C0462C
:1008700001E0FFF7E5FC012010BD127801462431AC
:100880000A7000224A700122ECE711680022D2436C
:10089000E8E70000084B70B50D467B44FFF7CFFF3B
:1008A0000446284600F022F8002802D00020C04369
:1008B00070BD204670BD0000FB220000014680088C
:1008C000081A02091018020A1018020C1018C008A1
:1008D000820012185200891A01E0401C0A390A29C4
:1008E000FBD270470048704744012020C068802137
:1008F0000840704710B543485421FFF746FE424870
:100900005421FFF742FE41485421FFF73EFE404884
:100910003C493D4B404A01603E4803603B48106003
:100920005A1C0A65411C1965012101653C48354A7C
:100930003AA1784400F04EF9002804D138487844B0
:100940000C3800F0EBF938482F4A36A1784400F013
:1009500041F9002804D1344878440C3800F0DEF91D
:1009600032482A4A2FA1784400F034F9002804D1F3
:100970002E4878440C3800F0D1F940232148DC009F
:100980000021224600F000F9002804D024487844D1
:100990005C3800F0C3F91C4822464023002100F0D7
:1009A000F3F8002804D0204878445C3800F0B6F909
:1009B000164822461023002100F0E6F8002804D053
:1009C0001A4878445C3800F0A9F910BD0F4870B59A
:1009D000006D44080B48640000F074F90A4800F008
:1009E00071F90A4800F06EF909E0206D45082046CB
:1009F0006D0000F067F9204600F0A0F82C46002CAE
:100A0000F3D170BD480020209C002020F000202061
:100A10000000202004002020080020207200000098
:100A20000728000077000000F1270000DB27000006
:100A300010B5FF231B0644009C421DD84C009C426D
:100A40001AD80346124A0B4307D4401A02D3EFF3D5
:100A5000008010BDEFF3008010BD081A03D3EFF340
:100A60000080904305E0EFF3008001219043C90727
:100A7000084380F3008810BD0D231B041A4204D0E4
:100A80001146002000F050F910BD00F065F910BDCE
:100A90000000009000487047440120207546FFF791
:100AA000F9FFAE46050069465346C008C0008546BA
:100AB00018B020B5FFF7A8FB60BCB646002600279B
:100AC000C0C5C0C5C0C5C0C5C0C5C0C5C0C5C0C5FE
:100AD000403D490849008D46704770B5064600F014
:100AE00077F9056830460B30C408E400B44201D8F9
:100AF000002070BD68682A46002818D00168A1420D
:100B000011D30B46214608318B4208D343680119A3
:100B10004B6003681B1B0B605160046001E041687F
:100B20005160001D70BD024640680028E6D1214694
:100B3000284600F055F90028DCD170BD70B5044698
:100B4000051F00F045F90068002C1AD0446801E048
:100B500020466468002C01D0AC42F9D301680A1821
:100B6000AA4204D12A6805468918016000E0456060
:100B700028684119A14205D161686960216840185F
:100B8000286070BD6C6070BD70B5C468A50713D0D7
:100B9000650211D4D51FF93D0AD0FF3D6D1E07D067
:100BA000FF3DFF3D022D07D101462431012305E021
:100BB000074E5D1EB54201D3012070BD0161C361C6
:100BC00041600F2109028C431443C460002070BDB2
:100BD000FFFFFF00F7B516460C460098002843D0EB
:100BE000104600F06FF82078611C61280AD0722846
:100BF00002D0772839D102E00125002404E0022543
:100C0000042401E02D4D0824022203230127087843
:100C1000491C2B2806D0622807D02039C87F7428A9
:100C200007D008E01D431443F1E7042005433C438B
:100C3000EDE7102004430098214600F095F8411C90
:100C400013D00021316171600121F5604902F16129
:100C50007061200704D530460222002100F008F917
:100C6000306D384330653046FEBD0020FEBDF8B51E
:100C70000D460646124C206DC10704D0410804D031
:100C800044086400F7E7224610E05420FFF725FFF0
:100C9000070010D07908206D490001221143084354
:100CA000542120653846FFF770FC3A462946304605
:100CB000FFF790FFF8BD0020F8BD000002800000A3
:100CC00048002020F8B504460026476900690090D6
:100CD000E568A80717D0204600F07FF9384600F0F5
:100CE0004DF8002800DA761E280502D50098FFF797
:100CF00025FF4C212046FFF748FC206D40084000AE
:100D000020653046F8BD0020C043F8BD10B504464C
:100D1000C046C0462046FFF74CFA10BD10B500F0A3
:100D2000ADF900F0A5F910BDC80212D54803400F77
:100D3000002804D0C803C043012188407047EFF366
:100D400000800001000903210907084380F300889F
:100D5000704700207047000010B5024800F0A8F965
:100D600010BD00000000C07F0EB501910090FFF79C
:100D70008BFB029069460120ABBE0EBD08B56946EB
:100D800000900220ABBE08BD1FB56B4607C3694685
:100D90000520ABBE04B010BD1FB56C460FC469463C
:100DA0000620ABBEF6E708B5694600900920ABBE49
:100DB00008BD1CB500900A2001916946ABBE1CBD60
:100DC000704708B5694600900C20ABBE08BD000016
:100DD000004870474C0120207047704770477047AB
:100DE00038B504460A4600206946C046C046002879
:100DF00005D002462046009900F08AF9012038BD4E
:100E000010B5012000F0D9F910BDF8B5C046C046B4
:100E1000054600200C460C20C0460646A819A042F4
:100E20000DD9324669460020C046C046070001D1B0
:100E300000F0C3F90098A04200D00546C419FFF79E
:100E4000C7FFF61D07460560F008C0004619284692
:100E500000F008F8B44204D031463868A21B00F014
:100E600057F9F8BD00210160416070470C207047C0
:100E7000F8B5044616460D464769007B800730D01A
:100E80003846FFF790FF00282BD132461026002A63
:100E900025D0012A02D0022A23D104E0204600F006
:100EA00051F945191BE03846FFF78BFFE1683143E4
:100EB0000028E16004DA204600F054F80120F8BD73
:100EC000C9030BD56268E16A914200D81146A26954
:100ED00089182269891A814200DD08462D18002DE3
:100EE00001DA0220F8BDE16A6068E268814206D258
:100EF0009103E06203D5012149048A433243A66984
:100F0000AE4211DCE16A814201D90B4600E00346A2
:100F10009F192369FF1AAF4206DD814201D90F46AE
:100F200000E007469F4206D1202002430020A06037
:100F3000A56220600DE0AD1BE669AE1B8142A66094
:100F400000D90846C01A281A20605819606020206D
:100F50008243034802400020E26040342072F8BD22
:100F6000BFCFD7FFC1688022114392039143C16074
:100F70000021816001607047F7B515460C4682B0CC
:100F8000506900903748D768074209D0A96900988E
:100F9000FFF70FFF002815DB3248C0430740EF6022
:100FA000314EB44200D826463B463246029900985C
:100FB000FFF7EAFE4200A9695208B21A8918002810
:100FC000A96106D02846FFF7CDFF0020C04305B039
:100FD000F0BDA41BE4D10020F9E770B50446056913
:100FE000C06A6168884200D80846E1680522D204D8
:100FF0009143E160C90314D5A84209D02246411BA0
:101000002846FFF7B9FF002802D00020C04370BD7A
:10101000E56200206560A060E06801210904884362
:10102000E060002070BD10B50446C06820218843F0
:10103000E060A16AA06988420ED02046FFF7CDFF8C
:10104000E06803210903884310210843E060A06A97
:10105000A0612069E06260600449E0680840E060E7
:1010600010BD000010000200FFFFFF7FBFBFFFFFA9
:1010700010B5002801D001F08DFD10BD10B501465E
:1010800002A000F080F8012010BD00005349475233
:10109000545245443A2052656469726563743A203B
:1010A00063616E2774206F70656E3A200000000047
:1010B00010B50C461107090F092904D00A290AD0D6
:1010C00008290CD104E011460820FFF72DFE06E0A8
:1010D000510606D501E0510601D50120C007214681
:1010E00010BDD10607D501010909CC084907000E3A
:1010F0000006044309E0410F20024907000A0143AA
:10110000200E00061D22D14101430846E7E7704743
:1011100010B50346406801E003464068002801D04E
:101120008842F9D31868C3188B4206D0CB1CD80864
:10113000C000001D411A521A0146081D0A60FFF73F
:10114000FDFC10BD10B50146C268900703D09006A3
:1011500007D5886A0AE0FFF7C5FB01210160881EF8
:1011600010BD8B694868C0180B69C01A40310B7AF2
:10117000002B02D0497A401A10BD1103FCD500287B
:10118000FADD401E10BD70B505460C460A2000E091
:101190006D1C00F018F8002D06D028780028F7D133
:1011A00002E0641C00F00FF8002C02D02078002828
:1011B000F7D10A2000F007F870BD10B500F00AF86A
:1011C000FFF756FF10BD08B5694608700320ABBE97
:1011D00008BD000010B5012805D0002103A0FFF7CD
:1011E000D2FF012010BD09A1F8E700005349475282
:1011F000544D454D3A204F7574206F6620686561E7
:1012000070206D656D6F7279000000003A204865AE
:101210006170206D656D6F727920636F7272757089
:101220007465640070B50E4C24212046FFF7ADF9BB
:101230000C4800210C4A0D4B0D4D0E4E42C0026071
:1012400045608360C2600161012101745D4800F066
:1012500013F8414241412222A154207070BDC04682
:1012600030022020540220200000A0C00000203DB9
:1012700000C09E4000007F43F0B585B00546484C55
:1012800038212046FFF781F98020607541208002D7
:101290002061444800270770002D0ED001AE304673
:1012A00000F020FE01954048314600F029FE00285C
:1012B00005D0022817D0032068E0012066E0012550
:1012C000384E3570221D38482A2100F049FE01466B
:1012D0006068364A42400A4307D002291FD00320E3
:1012E000002952D052E0062050E030780226012832
:1012F00046D1224608322C482B2100F031FEA1684D
:101300002B4A891A4A1E914102062A4600D10A46F2
:10131000012A08D1C1B2022934D0032033E00620CB
:10132000002933D131E01F480078012828D1224616
:101330000C321D48292100F013FEE1681D4A891A6C
:101340004A1E9141020600D10D46012DE2D001F066
:10135000EBF8054613480078012811D121216A468F
:10136000114800F0FDFD0028A3D168460078C007B1
:1013700010D101F0D9F8411B05206429EAD305E01A
:10138000304603E00620002900D1042034216054B7
:1013900005B0F0BD0120207620703846F6E7C04643
:1013A00070022020E0022020A8022020018092ADBF
:1013B000010001000048E80180B5024800F004F88F
:1013C00080BDC04614002020F0B585B00546724EA1
:1013D00044213046FFF7D9F80120B0740027777414
:1013E0008102F1818021F17232493181684C27708C
:1013F000002D0ED001AE304600F074FD0195654819
:10140000314600F07DFD002807D0012800D00320E0
:10141000614E4021705405B0F0BD012525705D4836
:101420000A216A4600F09CFD002804D001285A4E8B
:10143000EFD00320EDE70099574EB16304201E4A18
:101440009142E6D10446534814216A4600F088FDD3
:10145000002802D00128DCD0EBE70098F0631749A0
:1014600088422046D5D1F74809216A4600F078FD28
:1014700001461348009A101A421E9041002900D1DB
:101480000546012D03D101290ED108460DE0642047
:1014900000F0E0F90028BCD10120307000F07EF8A7
:1014A0000028B6D03770B4E703200029B1D104205A
:1014B000AFE7C04680800000020897AD030002003D
:1014C0004059730710B582B0F6480078012808D15A
:1014D000DC4800F0CFFC00280AD0012802D003200D
:1014E00000E002204021F04A5054C0B202B010BDCA
:1014F000D448042101AA00F033FD012803D1044699
:10150000002810D102E0032400280CD1CD4812217C
:101510006A4600F025FD012801D1044600E00324BD
:10152000002800D10446C74800F0CAFC0146204606
:1015300008431ED101A80278012311461940DA4858
:101540004170694609780B4043719306DB0F0371C4
:101550005307DB0FC3709207D20F82700A07D20FB6
:1015600082744A07D20FC2718907C90F81710020A6
:10157000B8E7012903D10846002903D003E003207E
:10158000002900D10846002CACD02046AAE7C0466E
:101590006003202028032020E4022020F0B583B03F
:1015A000C14F3878002808D0A64800F063FC002816
:1015B00005D0012868D0032066E0022064E0A1483D
:1015C00011210024224600F059FF012803D10646CC
:1015D000002830D102E0032600282CD1994811219F
:1015E00002AA00F0BDFC012803D10646002822D142
:1015F00002E0032600281ED102A800782F2108420D
:1016000001D0062617E08F4800210A4600F036FF79
:10161000012801D1064600E0032600280BD18948A5
:10162000002102AA00F09CFC012801D1064600E03E
:10163000032600282CD075427541824800F040FCFA
:10164000014642424241012803D10846002903D005
:1016500003E00320002900D108461540002E00D0E9
:101660003046012D10D13C743C7379497C60B960DF
:10167000BC7001218902F9813A46143224210446C2
:101680001046FEF782FF20464021785403B0F0BD9B
:1016900002A80078C007B4D16A480121002200F0F6
:1016A000EDFE012801D1064600E003260028C2D144
:1016B0006448012502AA294600F052FC012801D104
:1016C000064600E003260028B5D102A800784007AE
:1016D00097D15C480221002200F0D0FE012801D100
:1016E000064600E003260028A5D15648022102AA9A
:1016F00000F036FC012801D1064600E00326002850
:1017000099D10298002800D07BE74E48032680221A
:10171000314600F0B3FE012800D1064600288AD1E8
:101720004848032602AA314600F01AFC012800D1DD
:101730000646002800D07EE702A80078802800D066
:101740005FE740480521002200F098FE012801D102
:10175000064600E00326002800D06CE73948052142
:1017600002AA00F0FDFB012801D1064600E0032695
:10177000002800D05FE70298002800D041E7AA02C5
:1017800030480B21019200F079FE012801D1064674
:1017900000E00326002800D04DE72A480B2102AACA
:1017A00000F0DEFB012801D1064600E003260028F8
:1017B00000D040E72448029901400198814200D0BE
:1017C0001FE720480C21214A00F058FE012801D1D2
:1017D000064600E00326002800D02CE719480C211B
:1017E00002AA00F0BDFB012801D1064600E0032655
:1017F000002800D01FE702981449884200D000E773
:1018000010480021022200F039FE012801D10646CD
:1018100000E00326002800D00DE70A48002102AAB4
:1018200000F09EFB012801D1064600E003260028B7
:1018300000D000E702A80078284040420626064073
:10184000F9E6C04628032020FF0700008080000042
:101850008080008070B504460120002C1DD0114905
:101860000978002919D000F05FFE05460E4E07E00A
:10187000012000F00DFE00F057FE401BA0420BD2ED
:10188000FFF720FE002808D170780028F0D0F0780B
:101890000028EDD0002000E005204021024A5054ED
:1018A00070BDC04660032020E4022020F0B585B062
:1018B000039304920D4600240290214601F09CFA05
:1018C00007462846214601F097FA06463E4321493D
:1018D000284601F086FA07463743049E30462146E3
:1018E00001F097FA38430127002830D13F20010644
:1018F0002846019101F03AFB0146304601F071FAA9
:10190000002824D10A98002821D113480560944862
:1019100002990160954803990170BD480770BD4860
:101920000470C4480470C24804708C4804708A482B
:1019300004709048047009482946FEF72BFE01996F
:1019400001F07AFAFEF7D6FEB84908602746384615
:1019500005B0F0BD00409C463C0020200024F44B24
:10196000F0B581B0AB480078012817D17B480078EA
:1019700000280BD078480078002807D07D480178EF
:10198000FF290BD0491C017001B0F0BDA849A9483E
:101990000078002804D10878002801D101B0F0BDFA
:1019A0006F48046800216F4F6F4E00919E4D685A3A
:1019B000FEF7E4FE0146204601F0D8FA3146FEF774
:1019C000E9FD386000982D186888FEF7D7FE0146BB
:1019D000204601F0CBFA3146FEF7DCFD7860A8889E
:1019E000FEF7CCFE0146204601F0C0FA3146FEF774
:1019F000D1FDB860E888FEF7C1FE0146204601F03F
:101A0000B5FA3146FEF7C6FDF8602889FEF7B6FE46
:101A10000146204601F0AAFA3146FEF7BBFD3861C7
:101A20006889FEF7ABFE0146204601F09FFA314679
:101A3000FEF7B0FD7861A889FEF7A0FE01462046BA
:101A400001F094FA3146FEF7A5FDB861E889FEF78A
:101A500095FE0146204601F089FA3146FEF79AFDCF
:101A6000F861288AFEF78AFE0146204601F07EFAD8
:101A70003146FEF78FFD3862688AFEF77FFE014629
:101A8000204601F073FA3146FEF784FD7862A88A99
:101A9000FEF774FE0146204601F068FA3146FEF773
:101AA00079FDB862E88AFEF769FE0146204601F03A
:101AB0005DFA3146FEF76EFDF862288BFEF75EFE9A
:101AC0000146204601F052FA3146FEF763FD3863C5
:101AD000688BFEF753FE0146204601F047FA314677
:101AE000FEF758FD7863A88BFEF748FE01462046B6
:101AF00001F03CFA3146FEF74DFDB863E88BFEF786
:101B00003DFE0146204601F031FA3146FEF742FD26
:101B1000F863403700982030009001208102009A3D
:101B20008A42009900D040E71049097801293E4EC9
:101B300008D145020E4C31882046FEF773FBB61CD7
:101B40006D1EF8D100203A4908703A4908703149B1
:101B5000087001B0F0BDC04661032020920720202C
:101B600040002020A007202000F07F458B0320208C
:101B7000903100008A032020F0B581B0244800781D
:101B8000012839D123480121017000910E0200275C
:101B9000214D00F057FD044600E000BF00F052FD6B
:101BA000001BFAD4A8693043A8611C490868304377
:101BB0000860286830420BD119482968314207D1A2
:101BC0002968314204D1C01C14D029683142F4D0B4
:101BD000144800687900144A505210490868B0430C
:101BE00008601248006804197F1C00984002874270
:101BF000D4D104E00020EDE7012001B0F0BD0C4994
:101C0000002008700B49009A0A7001B0F0BDC04670
:101C1000890320209107202030100040041100404B
:101C2000FF82FFFF806255408C0320208C0720201C
:101C30008803202062032020F0B581B00C460546C1
:101C400015480078154F3978081A8030420E8218EE
:101C500080231340181A8038C0B2A04201D2002459
:101C600017E00E190E487F2E03D840182946224649
:101C70000CE040187F22D243511ACEB22946324698
:101C8000FEF724FCA919A61B05483246FEF71EFCE8
:101C90003E70204601B0F0BD2C022020A00F202075
:101CA000AC012020B0B50A78032313400B4A8458B6
:101CB0000B4D2540EB18A92424061B19835007223D
:101CC00012064B6813401124240205599543EA1863
:101CD0000251001949780161B0BDC04608080000F2
:101CE000FCFFFF00811E091F00BFFCD270470000EF
:101CF00010B5002A0CD0074BC31800201C686407DD
:101D000005D41C6A0C54401C8242F7D1104610BD09
:101D1000002010BD10110000B0B51122120283582E
:101D20000C4C1C400B894D881D438B792B430A4D6D
:101D30001D402B1983508B88CC791C430978214393
:101D40005D239B001940801842689A4389184160BE
:101D5000B0BDC04680CCFFFF7F33000010B501222C
:101D6000120383180C785C604978815010BD000024
:101D700010B511231B02C418D0001E4B81420CD297
:101D80002068184001231B040343236003235343AB
:101D90008801194600F02AFF16E020681840130158
:101DA00099420AD20123DB0318432060C80051087E
:101DB00000F01CFF401C400806E02060C8001146EF
:101DC00000F014FF401C400821690B4A0A408109B9
:101DD00089B2511821613F21084062698A43101875
:101DE000606160680121084062688A431018606081
:101DF00010BDC046FF7FFEFF0000FFFFB0B51122FF
:101E0000120283580124A34383500B888C781C430F
:101E10008B882343094C1C408358094D1D4063198E
:101E200083508B79CC791C43097A21437E23194056
:101E3000801842689A4351184160B0BD186700008D
:101E4000E798FDFF054A83585B0704D48018C069F2
:101E500008700120704700207047C046081100003C
:101E600010B50122120383180C789C6049788150C8
:101E700010BD000010B50146012000291ED00A4601
:101E800034325378002B02D00220107010BD0B6842
:101E9000324CA34202D00120107010BD4B68002BC1
:101EA000F9D00B89002BF6D0C9684B424B41137017
:101EB000002903D0012000021080002010BDC04680
:101EC00010B502460120002A0BD014463434617844
:101ED000002906D011895068012200F0F1FA002093
:101EE000208010BD002808D00A21C16003491B4A88
:101EF000026041600121C903018170470C0020206C
:101F000070B503460120002B26D0002924D01A46A4
:101F10003432CC68DC608C689C604C685C6009681A
:101F2000196000251D63957055700C4CA14202D0BC
:101F30000120107070BD5C68002CF9D0198900294F
:101F4000F6D0DB685E425E411670002B04D00122A1
:101F5000204600F0B5FA284670BDC0461400202087
:101F6000F0B583B016460546009200220291134652
:101F700000F0E8F8411F0122D443A14200D2DEE084
:101F80007F20C743384600BF00BF00BF00BF00BF6F
:101F900000BF00BF00BF00BF00BF00BF00BF00BF49
:101FA00000BF00BF00BF00BF00BF00BF00BF00BF39
:101FB00000BF00BF00BF00BF00BF00BF00BF00BF29
:101FC00000BF00BF00BF00BF00BF00BF00BF00BF19
:101FD00000BF00BF00BF00BF00BF00BF00BF00BF09
:101FE00000BF00BF00BF00BF00BF00BF00BF00BFF9
:101FF00000BF00BF00BF00BF00BF00BF00BF00BFE9
:1020000000BF00BF00BF4030BDD10096002228466F
:102010000299134600F096F8411FA14200D28EE0CB
:10202000384600BF00BF00BF00BF00BF00BF00BFF9
:1020300000BF00BF00BF00BF00BF00BF00BF00BFA8
:1020400000BF00BF00BF00BF00BF00BF00BF00BF98
:1020500000BF00BF00BF00BF00BF00BF00BF00BF88
:1020600000BF00BF00BF00BF00BF00BF00BF00BF78
:1020700000BF00BF00BF00BF00BF00BF00BF00BF68
:1020800000BF00BF00BF00BF00BF00BF00BF00BF58
:1020900000BF00BF00BF00BF00BF00BF00BF00BF48
:1020A00000BF4030BDD10096002228460299134659
:1020B00000F048F8411FA14241D300BF00BF00BF5C
:1020C00000BF00BF00BF00BF00BF00BF00BF00BF18
:1020D00000BF00BF00BF00BF00BF00BF00BF00BF08
:1020E00000BF00BF00BF00BF00BF00BF00BF00BFF8
:1020F00000BF00BF00BF00BF00BF00BF00BF00BFE8
:1021000000BF00BF00BF00BF00BF00BF00BF00BFD7
:1021100000BF00BF00BF00BF00BF00BF00BF00BFC7
:1021200000BF00BF00BF00BF00BF00BF00BF00BFB7
:1021300000BF00BF00BF00BF00BF4037BDD103B02C
:10214000F0BD0000F0B58DB007460120002F07D08C
:102150004DB2002D04D4129C002A03D1002C01D1D1
:102160000DB0F0BD03943C463434607806900028EE
:1021700000D13AE10AA800254571037108AEB58087
:102180001E0AC6701E0C86701B0E4370531E9A41A9
:10219000D2010A43027008957F20C543284600BF3C
:1021A00000BF00BF00BF00BF00BF00BF00BF00BF37
:1021B00000BF00BF00BF00BF00BF00BF00BF00BF27
:1021C00000BF00BF00BF00BF00BF00BF00BF00BF17
:1021D00000BF00BF00BF00BF00BF00BF00BF00BF07
:1021E00000BF00BF00BF00BF00BF00BF00BF00BFF7
:1021F00000BF00BF00BF00BF00BF00BF00BF00BFE7
:1022000000BF00BF00BF00BF00BF00BF00BF00BFD6
:1022100000BF00BF00BF00BF00BF00BF00BF403015
:10222000BDD104943989079778680022059200F09F
:1022300047F9284600BF00BF00BF00BF00BF00BF76
:1022400000BF00BF00BF00BF00BF00BF00BF00BF96
:1022500000BF00BF00BF00BF00BF00BF00BF00BF86
:1022600000BF00BF00BF00BF00BF00BF00BF00BF76
:1022700000BF00BF00BF00BF00BF00BF00BF00BF66
:1022800000BF00BF00BF00BF00BF00BF00BF00BF56
:1022900000BF00BF00BF00BF00BF00BF00BF00BF46
:1022A00000BF00BF00BF00BF00BF00BF00BF00BF36
:1022B00000BF00BF4030BDD16E480CA9042202927D
:1022C000FFF716FD6C4E00F02FF9074630688007C7
:1022D00007D40798C46800F027F9C01BA042F5D3C3
:1022E00017E00AA80599405C30633068400707D5BD
:1022F0000798C46800F018F9C01BA042F5D308E0A5
:10230000306A08A9059A8854521C0592062ADDD124
:102310008CE0032005900024079801894068012281
:10232000174600F0CDF800BF00BF00BF00BF00BFE0
:1023300000BF00BF00BF00BF00BF00BF00BF00BFA5
:1023400000BF00BF00BF00BF00BF00BF00BF00BF95
:1023500000BF00BF00BF00BF00BF00BF00BF00BF85
:1023600000BF00BF00BF00BF00BF00BF00BF00BF75
:1023700000BF00BF00BF00BF00BF00BF00BF00BF65
:1023800000BF00BF00BF00BF00BF00BF00BF00BF55
:1023900000BF00BF00BF00BF00BF00BF00BF00BF45
:1023A00000BF00BF00BF4035BDD1002C3846049CA3
:1023B000079D059E45D008A90A78A52A40D14978ED
:1023C0005A29029E3DD108A98A781206CB781B04AF
:1023D0009A180B791B02D2184979511829630026E3
:1023E000039A002A2DD011602BE03D680120204E79
:1023F000B54236D17D68002D33D03D89002D30D0D7
:10240000F86845424541257000282DD00120000282
:102410002080AFE607980194C46800F085F8C01BDF
:1024200003210591A042019C00D375E7306810217B
:1024300001404C424C410029ECD1002005906BE753
:10244000029E069900290BD16178002906D02989BE
:102450006868012200F034F800206070002E00D07F
:10246000304620700DB0F0BD01200DB0F0BDC0466B
:1024700014002020008046401091464080B582B074
:102480001346002200920122FFF75CFE02B080BDDD
:10249000A6490A680B689B1A834210D200BF0B68DA
:1024A0009B1A83420BD200BF0B689B1A834206D251
:1024B00000BF0B689B1A834201D200BFEAE7704756
:1024C000F0B583B0002803D005460078072801D96D
:1024D00003B0F0BD0C46124E80001249012A03D110
:1024E0000A5822430A5003E00A58A2430A50103601
:1024F000002702E07F1C102FEAD00121B9402142C1
:10250000F8D001AA284600F021F90028F2D001985D
:102510000028EFD002990029ECD08151EAE7C046AB
:102520009012000064032020804800687047C04675
:102530000346012000290AD0002A08D07E48016005
:10254000814803607D4802807D49002008807047F3
:10255000B0B500680749884200D0B0BD064C0125DF
:1025600020462946FFF768FB044821462A46FFF724
:10257000DFFFB0BD0044004090072020380020203D
:10258000F0B56A4C2568012000292ED0002A2CD0F5
:1025900000202B4E04E00F5CB761401C904225D018
:1025A00037683F06F7D5002B03D027687F1B9F4273
:1025B0001AD237683F06EED5002B03D027687F1B61
:1025C0009F4211D237683F06E5D5002B03D027681C
:1025D0007F1B9F4208D237683F06DCD5002BDFD037
:1025E00027687F1B9F42DBD30320F0BD31680020AA
:1025F000C907FAD0002B03D02168491B9942F3D2B6
:102600003168C907F1D0002B03D02168491B9942DA
:10261000EAD23168C907E8D0002B03D02168491BF2
:102620009942E1D23168C907DFD0002B03D021687D
:10263000491B9942D8D23168C907DBD1D5E7C046DA
:102640000891104010B5384A384B186811681C685A
:10265000A04204D0186811681C68A042F5D1344A21
:10266000531C4343581A801832494860486810BDCB
:1026700010B52E49002008602E49486007492C4AB1
:102680004A60FF221206064B1C68944303229207FD
:10269000A2181A6088600720086010BD10E000E0F2
:1026A00020ED00E0F0B581B01F4A204B186811689A
:1026B0001C68A04204D0186811681C68A042F5D1BB
:1026C0001B4A531C4343581A80181A4948601A4D34
:1026D0002868002825D0194E3088194F3988814242
:1026E0001FD2184C69462046FFF7ACFB00280AD0E1
:1026F00038882968009A0A54411C398030888AB287
:102700008242EFD301E03088398889B2814208D310
:1027100000212960318039800B4A10681160FFF771
:1027200017FF01B0F0BDC04618E000E08403202090
:10273000FF7C0000A4012020940720209E07202079
:102740009C0720200080104098072020B0B5002A68
:1027500024D003460020CC0704463ED18C071FD46A
:102760004C071FD40C071FD4CC061FD48C061FD4D3
:102770004C061FD40C061FD4CC051FD48C051FD4C7
:102780004C051FD40C051FD4CC041FD48C041FD4BB
:102790004C041FD40C041FD50F241EE00020B0BD34
:1027A00001241AE0022418E0032416E0042414E0B3
:1027B000052412E0062410E007240EE008240CE0B3
:1027C00009240AE00A2408E00B2406E00C2404E0B3
:1027D0000D2402E00E2400E01024106050601B78ED
:1027E000072B48D87B441B795B009F4403220F448E
:1027F00028444433072C3ED87C4424796400A74401
:10280000033A3A3A4F3F545702204FE0611E0C29D9
:1028100031D8C0467944097949008F44062C2C2CC4
:102820002C332D372C2C2C2C3B0025490120030464
:1028300033E0224803C2481E81410846B0BD1F490B
:102840001160082C14D0062C10D0022C13D10120BA
:1028500001050FE019491160092C04D0082C0AD198
:102860000120C10506E00120010603E0042022E06A
:10287000012081055160B0BD1149012083040CE0A5
:10288000402013E00E490120430406E00C490120DA
:10289000030202E009490120430311605360B0BD07
:1028A0000120064911605060B0BD1020034901E0CD
:1028B00080200349116050600120B0BD00200A4013
:1028C00000000A4080B5FFF72FFE80BD10B582B032
:1028D000FFF7CEFE002300930A480B490B4AFEF790
:1028E000E5FF002801D1FFF747F9FEF765FD044633
:1028F000FEF798FC024606A02146FDF793FC02B0C5
:1029000010BDC0463333534000409C460000FA459A
:1029100046504741204144393730383D25642C200A
:102920004144393238303D25640D0A0080B5FFF747
:10293000B9FEFFF715F8FFF7B5FE80BD10B501240D
:10294000A0070F49FFF7AEF90E4841680E4A0A404A
:10295000426081680D4A0A4082600D4904220A6083
:10296000210402680A430260082141612102094AE8
:1029700013680B43136001682143016010BDC0461A
:102980004C31000000110040FEFFECFFF8FFE0E0DA
:10299000801100404810004010B50C4C0C492046F6
:1029A000FFF7DCF90B492046FFF7B6F90A48416802
:1029B0000A4A0A400F32426081683F220A4382601D
:1029C000016801220A43026010BDC04600804640F3
:1029D00054310000563100000491464000FCFFFFD6
:1029E000B0B51B49812008601A4A4A608860486176
:1029F000C86288610863486388634864C861886600
:102A0000C86608678864C860134B18619861D8610C
:102A10001A62C86718605A6083248C650C66921C21
:102A2000CA654866586398630C48014630390C4AB9
:102A30000A606D490B4B0B610B4C0C600446403C2B
:102A40000125ED03256002600B640560B0BDC04642
:102A50003080424081000400B0804240D0120A40E1
:102A600080010700F533D60C01124000094800210F
:102A700001600948014608390A6803239A430A603D
:102A80000168012291430160110202688A430260D9
:102A90007047C04608030B4008010B4010B51548AD
:102AA0008221016014494160144C15492046FFF70A
:102AB000D7F914492046FFF7A1F9E1204202124953
:102AC0002046FFF755F90120420410490B681343D3
:102AD0000B60CA682023134350229343CB60CA681B
:102AE0000223134305229343CB600A6802430A6022
:102AF00010BDC04654804240820004000080104057
:102B000060310000623100000048E801009110408F
:102B100080B500F00BF8FFF7A9FFFFF761FFFFF7A3
:102B2000BDFFFFF70BFFFFF737FF80BDB0B50A48C9
:102B30000A4941600A4A51600A4B59600A4C616077
:102B40000A4D69600A4901601160196021602960BD
:102B50001020FFF7C7F8B0BD00080A40030000B11D
:102B600000280A40008810400008004000884640C5
:102B70000100002605480168491C01607D20000213
:102B800003494A68101848607047C04684032020F3
:102B9000A401202000BFFDE710B582B0044601A9C2
:102BA0000870044801221346FFF7EAFC204602B0F1
:102BB00010BDC04638002020FFF7AAFFFFF786FEB1
:102BC00001208506084E3560FFF77CFE0446FFF7BE
:102BD000ADFEFFF777FE001B80087D28F7D3FFF7D7
:102BE00071FE04463562F2E790320A4043088B4298
:102BF0001AD3002203098B4279D3030A8B425ED396
:102C0000030B8B4242D3030C8B4227D30902FF22D2
:102C100012BA030C8B4202D31212090203D0030B27
:102C20008B4233D31AE0D3E0411A8041401C7047F5
:102C300003460B4371D443088B42F5D300220309AA
:102C40008B4254D3030A8B4239D3030B8B421DD3DF
:102C5000030C8B4202D394466EE0090AC30B8B42ED
:102C600001D3CB03C01A5241830B8B4201D38B0398
:102C7000C01A5241430B8B4201D34B03C01A52413D
:102C8000030B8B4201D30B03C01A5241C30A8B4280
:102C900001D3CB02C01A5241830A8B4201D38B026B
:102CA000C01A5241430A8B4201D34B02C01A52410F
:102CB000030A8B4201D30B02C01A5241CDD2C30981
:102CC0008B4201D3CB01C01A524183098B4201D3FD
:102CD0008B01C01A524143098B4201D34B01C01AE8
:102CE000524103098B4201D30B01C01A5241C30860
:102CF0008B4201D3CB00C01A524183088B4201D3CF
:102D00008B00C01A524143088B4201D34B00C01ABA
:102D10005241411A524110007047CA0F00D0494237
:102D2000031000D34042534000229C4603098B42CB
:102D30002DD3030A8B4212D38901FC2212BA030A53
:102D40008B420CD3890192118B4208D389019211D5
:102D50008B4204D3890137D0921100E08909C3095D
:102D60008B4201D3CB01C01A524183098B4201D35C
:102D70008B01C01A524143098B4201D34B01C01A47
:102D8000524103098B4201D30B01C01A5241C308BF
:102D90008B4201D3CB00C01A524183088B4201D32E
:102DA0008B00C01A5241D9D243088B4201D34B0049
:102DB000C01A5241411A00D20146524110466346A0
:102DC0005B1000D34042704763465B1000D3404223
:102DD00001B50021004201D0C9430846C046C046A3
:102DE00002BD10B500F06EF8EFF300804000800FD8
:102DF000012800D0002010BD10B500F08DF8EFF3D1
:102E000000804000800F012801D0012010BD00206B
:102E100010BD10B500F080F8EFF30080800001D401
:102E2000012010BD002010BD30380A2801D2012039
:102E3000704700207047000070B50125ED070400C1
:102E40004C4020D4441A01D2001B0919C60D4B0076
:102E5000F2B2FF2A29D01B0E2CD000020C0228430C
:102E60002C43D31ADC40051910D2280A02D3401C87
:102E70006D0611D0761EF6058019FF2A00DA70BDA6
:102E8000C00DC00570BD694000F0CEF801200543BB
:102E9000C541521C761CE8E764089C40C9016140AA
:102EA0008900E7D10124A043E4E71B0E440200D0CF
:102EB000034870BD002AFCD1C00FC00770BD00BF21
:102EC0000000C07F0123DB0502000A430DD4DA4273
:102ED00003D49A4207D488427047D84214D4D942C6
:102EE00012D48842704780427047DA4203D59A4232
:102EF000F9D5814270475B004200DA4204D24A00B1
:102F0000DA4201D28142704710B5024AFDF790FDC6
:102F100010BD00BF090013040123DB0502000A43B2
:102F20000DD4DA4203D49A4207D488427047D8427B
:102F300014D4D94212D48842704780427047DA4292
:102F400003D59A42F9D5814270475B004200DA42CC
:102F500004D24A00DA4201D28142704710B5024AD7
:102F6000FDF766FD10BD00BF0900160470B54200F4
:102F700064414B005C41120E39D01B0E38D0FF2A41
:102F80003CD0FF2B3AD0D2187F3A40024902400A87
:102F9000490A4518ED0106004E43000A090A484354
:102FA0000104731A4019190C4318990F04D05B08D7
:102FB000012149075B1A521CD80904D3401CF503B0
:102FC00001D19D0607D0FF2A08D2D50506D0E40717
:102FD0002043401970BD0125A843F4E7002A01DC15
:102FE000E00770BD2402FF202043C00570BD1B0E0A
:102FF000FF2A03D0FF2B01D0E00770BDFF26360665
:103000004500B54206D84D00B54203D8D218FF2A74
:1030100000D0E7E7004870BD0000C07F70B5012513
:10302000ED0704004C4022D4441A02D26C40001B2D
:103030000919C60D4B00F2B2FF2A4BD01B0E50D01F
:1030400000020C02A8432C43D31ADC40051B05D513
:10305000AD0019D36D08761E521E37D0F605280A2A
:1030600001D2801970BD70416D0603D070BD6940FA
:10307000FFF7E8FE9C4009026140490001D0401E74
:1030800070BD0124A04370BD6D081DD001202B0C24
:1030900001D12D0410302B0E01D12D0208302B0F41
:1030A00001D12D01001DAB0F01D1AD00801CEB0F34
:1030B00001D16D00401C361A121A6D00680AF50520
:1030C0004019012A02DB70BD002070BDC036300AF5
:1030D000C00770BD1B0E440201D1FF2B00D1024876
:1030E00070BD002AF0D070BD0000C07F0400000851
:1030F0000000000000000002000100001081828337
:103100008485868788898B8C8D8E8F9192939596F6
:1031100097999A9C9D9FA0A2A3A5A7A8AAACAEB080
:10312000B2B3B5B7B9BCBEC0C2C5C7C9CCCED1D485
:10313000D7D9DCDFE2E6E9ECF0F3F7FAFE3A747493
:10314000003A7474003A7474000000000105000035
:10315000000000000800040020000000071000002C
:103160000800000018000000003000004750494FE0
:1031700041004750494F42004750494F4300475094
:10318000494F44004750494F45004750494F480078
:1031900025750D0A00000000B83100000000202055
:1031A00048000000200100000032000048002020FC
:1031B000601700004801000000000000000000004F
:1031C00000000000000000006C31000000300140F1
:1031D00001000000020000000800000000000000E4
:1031E00000000000010000000800000000000000D6
:1031F0000044004000409C46333353400000000030
:04000005000000C136
:00000001FF
